{
  "sendTransaction": {
    "method": "sendTransaction",
    "params": [
      "010000000001019d64f0c72a0d206001decbffaa722eb1044534c74eee7a5df8318e42a4323ec10000000017160014550da1f5d25a9dae2eafd6902b4194c4c6500af6ffffffff02809698000000000017a914cd668d781ece600efa4b2404dc91fd26b8b8aed8870553d7360000000017a914246655bdbd54c7e477d0ea2375e86e0db2b8f80a8702473044022076aba4ad559616905fa51d4ddd357fc1fdb428d40cb388e042cdd1da4a1b7357022011916f90c712ead9a66d5f058252efd280439ad8956a967e95d437d246710bc9012102a80a5964c5612bb769ef73147b2cf3c149bc0fd4ecb02f8097629c94ab013ffd00000000"
    ]
  },
  "sendTransactionResult": {
    "result": "474e6795760ebe81cb4023dc227e5a0efe340e1771c89a0035276361ed733de7"
  },
  "getDetailedTransaction": {
    "method": "getDetailedTransaction",
    "params": [
      "474e6795760ebe81cb4023dc227e5a0efe340e1771c89a0035276361ed733de7"
    ]
  },
  "getDetailedTransactionResult": {
    "result": {
      "hex": "010000000001019d64f0c72a0d206001decbffaa722eb1044534c74eee7a5df8318e42a4323ec10000000017160014550da1f5d25a9dae2eafd6902b4194c4c6500af6ffffffff02809698000000000017a914cd668d781ece600efa4b2404dc91fd26b8b8aed8870553d7360000000017a914246655bdbd54c7e477d0ea2375e86e0db2b8f80a8702473044022076aba4ad559616905fa51d4ddd357fc1fdb428d40cb388e042cdd1da4a1b7357022011916f90c712ead9a66d5f058252efd280439ad8956a967e95d437d246710bc9012102a80a5964c5612bb769ef73147b2cf3c149bc0fd4ecb02f8097629c94ab013ffd00000000",
      "height": -1,
      "version": 1,
      "hash": "474e6795760ebe81cb4023dc227e5a0efe340e1771c89a0035276361ed733de7",
      "locktime": 0,
      "size": 166,
      "inputs": [
        {
          "prevTxId": "c13e32a4428e31f85d7aee4ec7344504b12e72aaffcbde0160200d2ac7f0649d",
          "outputIndex": 0,
          "script": "160014550da1f5d25a9dae2eafd6902b4194c4c6500af6",
          "scriptAsm": "0014550da1f5d25a9dae2eafd6902b4194c4c6500af6",
          "sequence": 4294967295,
          "address": "2N79YMqgEqpr1Lqgqi6gU76zqTWbk4dRqyV",
          "satoshis": 930081328
        }
      ],
      "inputSatoshis": 930081328,
      "outputs": [
        {
          "satoshis": 10000000,
          "script": "a914cd668d781ece600efa4b2404dc91fd26b8b8aed887",
          "scriptAsm": "OP_HASH160 cd668d781ece600efa4b2404dc91fd26b8b8aed8 OP_EQUAL",
          "address": "2NByHN6A8QYkBATzxf4pRGbCSHD5CEN2TRu"
        },
        {
          "satoshis": 920081157,
          "script": "a914246655bdbd54c7e477d0ea2375e86e0db2b8f80a87",
          "scriptAsm": "OP_HASH160 246655bdbd54c7e477d0ea2375e86e0db2b8f80a OP_EQUAL",
          "address": "2MvZguYaGjM7JihBgNqgLF2Ca2Enb76Hj9D"
        }
      ],
      "outputSatoshis": 930081157,
      "feeSatoshis": 171
    }
  },
  "getD2": {
    "result": {
      "hex": "010000000001019d64f0c72a0d206001decbffaa722eb1044534c74eee7a5df8318e42a4323ec10000000017160014550da1f5d25a9dae2eafd6902b4194c4c6500af6ffffffff02809698000000000017a914cd668d781ece600efa4b2404dc91fd26b8b8aed8870553d7360000000017a914246655bdbd54c7e477d0ea2375e86e0db2b8f80a8702473044022076aba4ad559616905fa51d4ddd357fc1fdb428d40cb388e042cdd1da4a1b7357022011916f90c712ead9a66d5f058252efd280439ad8956a967e95d437d246710bc9012102a80a5964c5612bb769ef73147b2cf3c149bc0fd4ecb02f8097629c94ab013ffd00000000",
      "blockHash": "0000000000000d77454274b1f62d1b4472d582fa02399489b3529c1861bd910a",
      "height": 1283714,
      "blockTimestamp": 1519053802,
      "version": 1,
      "hash": "474e6795760ebe81cb4023dc227e5a0efe340e1771c89a0035276361ed733de7",
      "locktime": 0,
      "size": 0,
      "inputs": [
        {
          "prevTxId": "",
          "outputIndex": 0,
          "script": "160014550da1f5d25a9dae2eafd6902b4194c4c6500af6",
          "scriptAsm": "0014550da1f5d25a9dae2eafd6902b4194c4c6500af6",
          "sequence": 4294967295,
          "address": "",
          "satoshis": 0
        }
      ],
      "inputSatoshis": 0,
      "outputs": [
        {
          "satoshis": 100000000,
          "script": "a914cd668d781ece600efa4b2404dc91fd26b8b8aed887",
          "scriptAsm": "OP_HASH160 cd668d781ece600efa4b2404dc91fd26b8b8aed8 OP_EQUAL",
          "address": ""
        },
        {
          "satoshis": 9200811570,
          "script": "a914246655bdbd54c7e477d0ea2375e86e0db2b8f80a87",
          "scriptAsm": "OP_HASH160 246655bdbd54c7e477d0ea2375e86e0db2b8f80a OP_EQUAL",
          "spentIndex": 1,
          "address": ""
        }
      ],
      "outputSatoshis": 0,
      "feeSatoshis": 0
    }
  },
  "subscribe": [
    "subscribe",
    "bitcoind/hashblock"
  ],
  "subscribe": [
    "subscribe",
    "bitcoind/addresstxid",
    [
      "2MzTmvPJLZaLzD9XdN3jMtQA5NexC3rAPww",
      "2NAZRJKr63tSdcTxTN3WaE9ZNDyXy6PgGuv",
      "2NBBaTqmVhTPkjAY5k3QMrGrgT1obB6Yfqo",
      "2MsiAgG5LVDmnmJUPnYaCeQnARWGbGSVnr3",
      "2NEa5ASseCV5twDukyQQzZDeeGGLx8xqSk7",
      "2N4N3tcDD9fscewxLhiikYeGx5ErdqBAB6i",
      "2Muf6t9yiQgNQwEbeav65tioqXxUZgZZDsP",
      "2MyLfpnU6V3htkKc4GDy3jZJwrqEny5zuD1",
      "2N64PAnkCsNiNPS9jRcWdABgUQBVnSH3Txq",
      "2NCMAKdd28nZRryJpp32QFGA2g2pqxk4TPU",
      "2Mshkm6yjJsqc9An1Agyg8bNaLLByNwB5rk",
      "2NDEEu7sZrMRybPZwkiPcNZTEeLCTcmdeNG",
      "2MxWgUGs2Ei77s2NiE5tSAcnZa5sm46ucbx",
      "2NA83v4j5NxYfwRrPKRHMHCQH7bjkKqpubF",
      "2NEXU6r1AnbVaqKSJUJfH9MdpynrKaD1CJc",
      "2Muay1N4aD2K3sg5mz6QsLMu8qpXfois8CJ",
      "2N6vi3wuKjHgZyvsaiB4Z3ai5eB9FNSusut",
      "2N3rvH6gmdPPMsGrsEpbeoYBkLdrE5bzYRy",
      "2MufqF2TPsVwbBJ1KCM4dMSYorwNXNZg5ws",
      "2Mw78UAMckVsTwXb8VnfDfozMJSaaR4Uqqr"
    ]
  ],
  "subscribeResult:": [
    "bitcoind/hashblock",
    "000000000000104614560f9110e89a139baf87bd389c255cdbe3dcf8d8f78fc0"
  ],
  "subscribeResult": [
    "bitcoind/addresstxid",
    {
      "address": "2NByHN6A8QYkBATzxf4pRGbCSHD5CEN2TRu",
      "txid": "474e6795760ebe81cb4023dc227e5a0efe340e1771c89a0035276361ed733de7"
    }
  ],
  "bb": {
    "result": {
      "hex": "010000000001030837f5b19fa0bad93466eab467a4903528bade4e441143ecc2180c1b2938edf101000000171600147edbcdda98080eeb6e8a63c63da135498295c3cdffffffffd5c5679c02074d61c6d4e27e8abddcf385fb8d7844d1a7409b83c5906c90f46c01000000171600147edbcdda98080eeb6e8a63c63da135498295c3cdffffffff694395239e8a054b2c7485c661a6d6ed491fdacdae8d118a32c1d0cbf3db879801000000171600144ef828f2834ef9e0a8807c646371f4e75fe8ee2affffffff0280a4bf070000000017a914b0dc147c52fd824eeff86d4babbc6c2b4d2dafad875f4cff310700000017a914f81f2180d556cda7f199f5b405d760687487635187024730440220367ad3a0626aa628e5a0ecf3b1f4c3e31c275096b261bc5ed63df1db2736bd9602204e15b4e995fa8c26506d1ff718442ee3eba7adfaf27492b5140647c9bf19ddf2012102b45e239d96f8504ae45a32af7c80f6164f7b9658166e318521ee822192fee3ef024830450221008fe4f72a6d4dc5fdf129583753cc620fba87cd6b5b8337c2a31df0f72d6d138c022065a616106e3ec683b5242651912569c34fcdac0759762bd800e2f206acffe3c9012102b45e239d96f8504ae45a32af7c80f6164f7b9658166e318521ee822192fee3ef0247304402207641e3e70f988d436e8dbc6dd93d93de5c0be36b3c12aa3ca8c1714beefe46200220298ce6154dd49f9ee74994ef6f6a898858e3b1d174c2e55abcf1a46063905bc30121039a15881193e947887583a1b1f4e166de7ccf80633d27beb58331204408869bbf00000000",
      "height": -1,
      "blockTimestamp": 0,
      "version": 1,
      "hash": "0c0ffd638dbf0ce80758a6f5fe963e4828965fea98ffe2e4b435ac8f077a9328",
      "inputs": [
        {
          "outputIndex": 1,
          "script": "1600144ef828f2834ef9e0a8807c646371f4e75fe8ee2a",
          "scriptAsm": "00144ef828f2834ef9e0a8807c646371f4e75fe8ee2a",
          "sequence": 4294967295,
          "address": "2N8hwP1WmJrFF5QWABn38y63uYLhnJYJYTF",
          "satoshis": 10000000
        },
        {
          "outputIndex": 1,
          "script": "1600144ef828f2834ef9e0a8807c646371f4e75fe8ee2a",
          "scriptAsm": "00144ef828f2834ef9e0a8807c646371f4e75fe8ee2a",
          "sequence": 4294967295,
          "address": "2N8hwP1WmJrFF5QWABn38y63uYLhnJYJYTF",
          "satoshis": 10000000
        },
        {
          "outputIndex": 1,
          "script": "1600144ef828f2834ef9e0a8807c646371f4e75fe8ee2a",
          "scriptAsm": "00144ef828f2834ef9e0a8807c646371f4e75fe8ee2a",
          "sequence": 4294967295,
          "address": "2NCPYxNzYrjdwFAYGakRTFptxzXME15SSTz",
          "satoshis": 31013685887
        }
      ],
      "outputs": [
        {
          "satoshis": 130000000,
          "script": "a914f81f2180d556cda7f199f5b405d760687487635187",
          "scriptAsm": "OP_HASH160 f81f2180d556cda7f199f5b405d7606874876351 OP_EQUAL",
          "address": "2N9NNZUTAzMUxvEyBLrvWweqHu4RSw1yZtF"
        },
        {
          "satoshis": 30903585887,
          "script": "a914f81f2180d556cda7f199f5b405d760687487635187",
          "scriptAsm": "OP_HASH160 f81f2180d556cda7f199f5b405d7606874876351 OP_EQUAL",
          "spentIndex": 1,
          "address": "2NFsArsLvoBAcpBJj63zQ3zi2WZwBaKgAR7"
        }
      ]
    }
  },
  "bc": {
    "result": {
      "hex": "010000000001030837f5b19fa0bad93466eab467a4903528bade4e441143ecc2180c1b2938edf101000000171600147edbcdda98080eeb6e8a63c63da135498295c3cdffffffffd5c5679c02074d61c6d4e27e8abddcf385fb8d7844d1a7409b83c5906c90f46c01000000171600147edbcdda98080eeb6e8a63c63da135498295c3cdffffffff694395239e8a054b2c7485c661a6d6ed491fdacdae8d118a32c1d0cbf3db879801000000171600144ef828f2834ef9e0a8807c646371f4e75fe8ee2affffffff0280a4bf070000000017a914b0dc147c52fd824eeff86d4babbc6c2b4d2dafad875f4cff310700000017a914f81f2180d556cda7f199f5b405d760687487635187024730440220367ad3a0626aa628e5a0ecf3b1f4c3e31c275096b261bc5ed63df1db2736bd9602204e15b4e995fa8c26506d1ff718442ee3eba7adfaf27492b5140647c9bf19ddf2012102b45e239d96f8504ae45a32af7c80f6164f7b9658166e318521ee822192fee3ef024830450221008fe4f72a6d4dc5fdf129583753cc620fba87cd6b5b8337c2a31df0f72d6d138c022065a616106e3ec683b5242651912569c34fcdac0759762bd800e2f206acffe3c9012102b45e239d96f8504ae45a32af7c80f6164f7b9658166e318521ee822192fee3ef0247304402207641e3e70f988d436e8dbc6dd93d93de5c0be36b3c12aa3ca8c1714beefe46200220298ce6154dd49f9ee74994ef6f6a898858e3b1d174c2e55abcf1a46063905bc30121039a15881193e947887583a1b1f4e166de7ccf80633d27beb58331204408869bbf00000000",
      "height": -1,
      "version": 1,
      "hash": "0c0ffd638dbf0ce80758a6f5fe963e4828965fea98ffe2e4b435ac8f077a9328",
      "locktime": 0,
      "size": 347,
      "inputs": [
        {
          "prevTxId": "f1ed38291b0c18c2ec4311444edeba283590a467b4ea6634d9baa09fb1f53708",
          "outputIndex": 1,
          "script": "1600147edbcdda98080eeb6e8a63c63da135498295c3cd",
          "scriptAsm": "00147edbcdda98080eeb6e8a63c63da135498295c3cd",
          "sequence": 4294967295,
          "address": "2N8hwP1WmJrFF5QWABn38y63uYLhnJYJYTF",
          "satoshis": 10000000
        },
        {
          "prevTxId": "6cf4906c90c5839b40a7d144788dfb85f3dcbd8a7ee2d4c6614d07029c67c5d5",
          "outputIndex": 1,
          "script": "1600147edbcdda98080eeb6e8a63c63da135498295c3cd",
          "scriptAsm": "00147edbcdda98080eeb6e8a63c63da135498295c3cd",
          "sequence": 4294967295,
          "address": "2N8hwP1WmJrFF5QWABn38y63uYLhnJYJYTF",
          "satoshis": 10000000
        },
        {
          "prevTxId": "9887dbf3cbd0c1328a118daecdda1f49edd6a661c685742c4b058a9e23954369",
          "outputIndex": 1,
          "script": "1600144ef828f2834ef9e0a8807c646371f4e75fe8ee2a",
          "scriptAsm": "00144ef828f2834ef9e0a8807c646371f4e75fe8ee2a",
          "sequence": 4294967295,
          "address": "2NCPYxNzYrjdwFAYGakRTFptxzXME15SSTz",
          "satoshis": 31013685887
        }
      ],
      "inputSatoshis": 31033685887,
      "outputs": [
        {
          "satoshis": 130000000,
          "script": "a914b0dc147c52fd824eeff86d4babbc6c2b4d2dafad87",
          "scriptAsm": "OP_HASH160 b0dc147c52fd824eeff86d4babbc6c2b4d2dafad OP_EQUAL",
          "address": "2N9NNZUTAzMUxvEyBLrvWweqHu4RSw1yZtF"
        },
        {
          "satoshis": 30903585887,
          "script": "a914f81f2180d556cda7f199f5b405d760687487635187",
          "scriptAsm": "OP_HASH160 f81f2180d556cda7f199f5b405d7606874876351 OP_EQUAL",
          "address": "2NFsArsLvoBAcpBJj63zQ3zi2WZwBaKgAR7"
        }
      ],
      "outputSatoshis": 31033585887,
      "feeSatoshis": 100000
    }
  }
}