{
    "blockHeight": 195604,
    "blockHash": "00000124fd5a9c1225a5964675c833f6e67b7c94e1414ad43c006ac0e5f47961",
    "blockTime": 1548485163,
    "blockTxs": [
        "0a0c091619bff958253300ca0f0bd40528a429010aef35c63f01cc7a59cf4c7a",
        "96853036083e2ef6e06cd55e0fdd971a41987157952d01a40d4755ddd6880ee1"
    ],
    "txDetails": {
        "96853036083e2ef6e06cd55e0fdd971a41987157952d01a40d4755ddd6880ee1": {
            "hex": "020000000190ab97bb210cc3573fd619813abdfd5c74fd64f48cd5b6deb528ffc0ac2025d2010000006b483045022100b357154a034a8b2775f188da68a00bb282743bbf138038be66f66623082dec830220143aa4786f7a28b4f47333562964033aeb822e3dc48589cf80217244f0cb7e05012102d89a3fb18e04f9e4e91437d008e6f323e5a1308bf312066a09bb83c15739dfb2feffffff07ec235e08000000001976a91441ca8a78aab59c02ebd17d25dc196da34b2cafe788acf0870b060000000017a914bb073b44334b112793b1d9db0709ea7f02a22039876fc061070000000017a914ffea83b42b127b8b5a1bc984ae9d45ec08c92b84877dbaf311000000001976a9143acb8a0091a159337c53e40c3bf5b38d56f4e55588ac70e07b0b000000001976a9141a85678940ac58b5c84231b7e230a99dcc10247388ace84108020000000017a9140191d42d0433b7721c76332a2f1ab6e7f809fc8f87072857060000000017a9147ec3793cafc0b2380a410578b1b5c4d79b090d598713fc0200",
            "txid": "96853036083e2ef6e06cd55e0fdd971a41987157952d01a40d4755ddd6880ee1",
            "blocktime": 1548485163,
            "time": 1548485163,
            "locktime": 195603,
            "version": 2,
            "vin": [
                {
                    "txid": "d22520acc0ff28b5deb6d58cf464fd745cfdbd3a8119d63f57c30c21bb97ab90",
                    "vout": 1,
                    "scriptSig": {
                        "hex": "483045022100b357154a034a8b2775f188da68a00bb282743bbf138038be66f66623082dec830220143aa4786f7a28b4f47333562964033aeb822e3dc48589cf80217244f0cb7e05012102d89a3fb18e04f9e4e91437d008e6f323e5a1308bf312066a09bb83c15739dfb2"
                    },
                    "sequence": 4294967294
                }
            ],
            "vout": [
                {
                    "value": 1.40387308,
                    "n": 0,
                    "scriptPubKey": {
                        "hex": "76a91441ca8a78aab59c02ebd17d25dc196da34b2cafe788ac"
                    }
                },
                {
                    "value": 1.01418992,
                    "n": 1,
                    "scriptPubKey": {
                        "hex": "a914bb073b44334b112793b1d9db0709ea7f02a2203987"
                    }
                },
                {
                    "value": 1.23846767,
                    "n": 2,
                    "scriptPubKey": {
                        "hex": "a914ffea83b42b127b8b5a1bc984ae9d45ec08c92b8487"
                    }
                },
                {
                    "value": 3.01185661,
                    "n": 3,
                    "scriptPubKey": {
                        "hex": "76a9143acb8a0091a159337c53e40c3bf5b38d56f4e55588ac"
                    }
                },
                {
                    "value": 1.92667760,
                    "n": 4,
                    "scriptPubKey": {
                        "hex": "76a9141a85678940ac58b5c84231b7e230a99dcc10247388ac"
                    }
                },
                {
                    "value": 0.34095592,
                    "n": 5,
                    "scriptPubKey": {
                        "hex": "a9140191d42d0433b7721c76332a2f1ab6e7f809fc8f87"
                    }
                },
                {
                    "value": 1.06375175,
                    "n": 6,
                    "scriptPubKey": {
                        "hex": "a9147ec3793cafc0b2380a410578b1b5c4d79b090d5987"
                    }
                }
            ]
        }
    }
}