{
    "blockHeight": 226137,
    "blockHash": "cb586ffac14549c6aa29b37cf774b4a905705ec358a201aefc8142ad63e63973",
    "blockTime": 1572107953,
    "blockTxs": [
        "2efe89c77779b07c5b0a70b12a8c00f5dca2eb4db9ed9ab1efc338a660460b76",
        "621ba62690e934e603b225587ac68aa74b7223b9a5946c79f909a67dd1dd558b"
    ],
    "txDetails": {
        "621ba62690e934e603b225587ac68aa74b7223b9a5946c79f909a67dd1dd558b": {
            "hex": "0100000001325a1066d70f69cd2012e9d3c7a51bf3f758809def510e0bc079347d3b340fb40100000049483045022100d718cd6c483741923f3ab40e67f53e7a7e69c446046cd3e1d9be7abcb6e05cb502207a6a05f3e70690d50053e14ffdef9b35b449cb54c9800f9087f11975848237ae01ffffffff04000000000000000000002cbee70000000023210259b9e8ac4014c04f38a2f3f0ab60052353bf329e83dc03debd14f8e700e300beac6721b1610000000023210259b9e8ac4014c04f38a2f3f0ab60052353bf329e83dc03debd14f8e700e300beac80461c86000000001976a914881e1ddf7dbc1adfb3e3080cf53541ec7b37d6af88ac00000000",
            "txid": "621ba62690e934e603b225587ac68aa74b7223b9a5946c79f909a67dd1dd558b",
            "blocktime": 1572107953,
            "time": 1572107953,
            "locktime": 0,
            "version": 1,
            "vin": [
                {
                    "txid": "b40f343b7d3479c00b0e51ef9d8058f7f31ba5c7d3e91220cd690fd766105a32",
                    "vout": 1,
                    "scriptSig": {
                        "hex": "483045022100d718cd6c483741923f3ab40e67f53e7a7e69c446046cd3e1d9be7abcb6e05cb502207a6a05f3e70690d50053e14ffdef9b35b449cb54c9800f9087f11975848237ae01"
                    },
                    "sequence": 4294967295
                }
            ],
            "vout": [
                {
                    "value": 0,
                    "n": 0,
                    "scriptPubKey": {
                        "hex": ""
                    }
                },
                {
                    "value": 38.88,
                    "n": 1,
                    "scriptPubKey": {
                        "hex": "210259b9e8ac4014c04f38a2f3f0ab60052353bf329e83dc03debd14f8e700e300beac"
                    }
                },
                {
                    "value": 16.38998375,
                    "n": 2,
                    "scriptPubKey": {
                        "hex": "210259b9e8ac4014c04f38a2f3f0ab60052353bf329e83dc03debd14f8e700e300beac"
                    }
                },
                {
                    "value": 22.5,
                    "n": 3,
                    "scriptPubKey": {
                        "hex": "76a914881e1ddf7dbc1adfb3e3080cf53541ec7b37d6af88ac"
                    }
                }
            ]
        }
    }
}
