{
  "blockHeight": 1325168,
  "blockHash": "000000000000004ed0834f3de922e66d024ec4da9fcc2da17be61369cb6dc041",
  "blockTime": 1528788394,
  "blockTxs": [
    "e1179f205aabbf48dc2ce4ebd9ed255571b0578e4de551f6574a50cb81120007",
    "00a5aa2891d41af9eb1dc30c940f142a609ecab8f370eb0874ba7d32252d1b1b",
    "1c519d80804dd17258cfc801bf2c875607956fc9f065a664f43e88d53f80af6f",
    "b10c1e2f7c8a6b10fddf94260aff0f8a5f56e33c8d0de48c49a72eb8418c3f6e",
    "ba85ca543b290deb84cde9c4ca53614dbe557a3dede5d0adb141f803f8e82f34",
    "60dfc2c9cc184ae68ca9e540ab4393d9d2179d060e2ac290f29560c6a1360f51",
    "3a40bca678653ae8f7f6d2771b571d5ace1a258056b99e3fd361a10f1016bc53",
    "4d4e495f3329801d92c7e3dc9874a372576bf3548decf884ede388143980ecab",
    "74ba4bee8d559e4d8b4859c086b0ea5f2c36bcabc95d8578e775f065f70943b8",
    "32bcc281f081e172dcb40ad137564724bd9486095813b78990d1d986173ac3c6",
    "b6e77c59f4a988731d9b8520e0f4971223e622946eb12e28cc2bab72f1e9c2f8",
    "0bc8f39da5d5300a2728b45edb18c8219e94a8b27a2e8074f6c5c10a00d99788",
    "8329b31d2a490d57980afcf5c7df4574ce57f952aef6f5aecb3b7786f5c9f255",
    "e559c2fd0f4e8aebe28fcb6dbb099fc6ee92d726d74fda28522f52bc1490a470",
    "3005378ee85fc905a1812bdfae4b2e0e9bb09f5867a53fd73237bb319a1774aa",
    "ebea245b9e4d96fab65c938547a9b3ffd03659b92b8ae4fcdfe4ac9bc325c0a2",
    "a2d5fe23b50253dda9941dd6c97c04853d58f048acf347acf9ccf549ee215b51",
    "017c2ccec866850521db877c1c7f6d095b7df668f891cfaf70a5e14ce39d010c",
    "d101d3467a831cc4dfc87bdd19d0ff5d01b8c872e47b2096eeeac3b44c2a258a",
    "3884180bab62d0f0498a8ad012b0005aceec778a18a617e5392d99cee5f21869",
    "a00200e57bed4fbd193c4cad49549d311282fee9a82956083353a2874f9bfd9f",
    "d32ce7a9413111fb2e3578472d520eb1437db701f20256e3afd37b7c0a6d67e6",
    "fed1df6d23a40e1a1f26820bbe35febb668aa2240902f1fd17b31a84dde6eb39",
    "5bef621ad6d0970939ae36270a3228d3c315f8008fb04eebffab5f7a3589d114",
    "411e7f3f4cae4125c8933403809771ebfcaa088f6ef773e5a412ead8639fb515",
    "d53858bbbbde4518ea92abda93ac5d01e5122d420a468e6d076244edd99bcea1",
    "b5fc4d963805b439d11f06b5d5d89ce3aac225e7145d1673d20d3d37a12c61dd",
    "c8d7332377d4bf43c232bc7afc3d7e3aacf13523d1c8488f68f530e58e6cfd88",
    "3c21a6b7e3810ca10efac45446cd2b7ef0c9848ac589be7375b61ea5aabbbea4",
    "5a25c2b70e2194e05a6208c99343ebe0fad970dd19f3f9cca88aaf77ab9e4658",
    "031e3c08ebdcafccf6dc5d7ff1161cd5314424d0a943d2c22a5a2109286e332d",
    "4992d16008aa3050b3e2e4aab67e488eb338850ff1c348367ae3d089d8d67a52",
    "beb3e71b8da7da7917228f5ce8a88afdc45836c421b053dde24d367865326bd7"
  ],
  "txDetails": {
    "e559c2fd0f4e8aebe28fcb6dbb099fc6ee92d726d74fda28522f52bc1490a470": {
      "hex": "01000000000102a4b8c14f271cfa77d5ecaed9c3026472a55ea6bca119e2ff7b04975326f5974001000000171600147edbcdda98080eeb6e8a63c63da135498295c3cdffffffffabcdf96b8ba187c24d70f98a2edfbf100821506212637f28b30a08efa970a4eb0100000017160014df7d60680e984aae4052e24bce8f17e4bfdcc532ffffffff0292fe1e00000000001976a914abba3808b854c70b63ff038fcddfbafcb707713988ac13e796110100000017a914c9e67d2b78a38857c786ea9a2fc3e64cb6e775648702483045022100a6910d3a3b64545a44e097a3739b1206095602fa796afc51f81b249d1293ad0a02206cdae51853b59ca52003f4e54ea8ae418b6b4d036cbe1fdd78677efe8eddb318012102b45e239d96f8504ae45a32af7c80f6164f7b9658166e318521ee822192fee3ef0247304402202684a6f59ee255f3f5e9a9209a735bf2aaa818d47add7c3f7a5590623bd2211c0220452bf2fb8d0dc0380862988f0f098c21e861004e02da7bd1fc6bea4e7f33d2dc012103f308867fda821467f77d372791644225174ae16daba86e55754c150a8d5aa40d00000000",
      "txid": "e559c2fd0f4e8aebe28fcb6dbb099fc6ee92d726d74fda28522f52bc1490a470",
      "blocktime": 1528788394,
      "time": 1528788394,
      "locktime": 0,
      "vsize": 259,
      "version": 1,
      "vin": [
        {
          "txid": "4097f5265397047bffe219a1bca65ea5726402c3d9aeecd577fa1c274fc1b8a4",
          "vout": 1,
          "sequence": 4294967295,
          "scriptSig": {
            "hex": "1600147edbcdda98080eeb6e8a63c63da135498295c3cd"
          }
        },
        {
          "txid": "eba470a9ef080ab3287f63126250210810bfdf2e8af9704dc287a18b6bf9cdab",
          "vout": 1,
          "sequence": 4294967295,
          "scriptSig": {
            "hex": "160014df7d60680e984aae4052e24bce8f17e4bfdcc532"
          }
        }
      ],
      "vout": [
        {
          "value": 0.0203125,
          "n": 0,
          "scriptPubKey": {
            "hex": "76a914abba3808b854c70b63ff038fcddfbafcb707713988ac"
          }
        },
        {
          "value": 45.90069523,
          "n": 1,
          "scriptPubKey": {
            "hex": "a914c9e67d2b78a38857c786ea9a2fc3e64cb6e7756487"
          }
        }
      ]
    },
    "3005378ee85fc905a1812bdfae4b2e0e9bb09f5867a53fd73237bb319a1774aa": {
      "hex": "01000000000102c997f74e9ad52a44446302381e0fa6de080dadadf55842588bde1be8a47b438000000000171600147edbcdda98080eeb6e8a63c63da135498295c3cdffffffff563c9674a40bf1aa1063f767a50d2288146116fe869012ad3dad03d71e74a8800100000017160014af97d082fd5de049bce2991d9dcaa5d3035a1b04ffffffff0290f4f700000000001976a914abba3808b854c70b63ff038fcddfbafcb707713988ac74b77b030100000017a914fb1e0f36e2d8e91a43c7faba7dae18a610070c4a87024730440220538fcd8fbbf39b813372a7ff6251f1d22c9e940f54272ab525e1d1dc5f03049b022066cc5a1c445573e7e069fdaf3aa33d6665ef5f7936cb155cfd9093e888ca9461012102b45e239d96f8504ae45a32af7c80f6164f7b9658166e318521ee822192fee3ef0248304502210089e579ce52f765c8de6033e1cee93c94aa9a5ef3a194fec12885ed163dc60688022050aadd6aa170c6cfb58f406497949b0140327b4889ca7e082bdcfa8cc03d487f012103fb1a838f38d587dea0532f4a15a39b96e411cdb37c5160ba576a4cb0072db01900000000",
      "txid": "3005378ee85fc905a1812bdfae4b2e0e9bb09f5867a53fd73237bb319a1774aa",
      "blocktime": 1528788394,
      "time": 1528788394,
      "locktime": 0,
      "vsize": 259,
      "version": 1,
      "vin": [
        {
          "txid": "80437ba4e81bde8b584258f5adad0d08dea60f1e38026344442ad59a4ef797c9",
          "vout": 0,
          "sequence": 4294967295,
          "scriptSig": {
            "hex": "1600147edbcdda98080eeb6e8a63c63da135498295c3cd"
          }
        },
        {
          "txid": "80a8741ed703ad3dad129086fe16611488220da567f76310aaf10ba474963c56",
          "vout": 1,
          "sequence": 4294967295,
          "scriptSig": {
            "hex": "160014af97d082fd5de049bce2991d9dcaa5d3035a1b04"
          }
        }
      ],
      "vout": [
        {
          "value": 0.1625,
          "n": 0,
          "scriptPubKey": {
            "hex": "76a914abba3808b854c70b63ff038fcddfbafcb707713988ac"
          }
        },
        {
          "value": 43.53406836,
          "n": 1,
          "scriptPubKey": {
            "hex": "a914fb1e0f36e2d8e91a43c7faba7dae18a610070c4a87"
          }
        }
      ]
    }
  }
}
