{
    "blockHeight": 15254,
    "blockHash": "000000e3c2b5c8193b96d7ddfab11d7ba04ecfa4f09c7c73ef565af8a3d5731b",
    "blockTime": 1607488510,
    "blockTxs": [
        "484cbfd56b5f3ae079a2e48acd107cf63cbf6139249a69ad6a4f0f85a28e9187",
        "175b6cbdc5155069339f01852ffaaa9908b8528b568ea24c5a6d1b64a3c2cda3",
        "c3ae1e409836b70b1007069b3943d4cba64e8322b0badf811a671e154dc7a11d",
        "1f1f01af015cbfc2e6ad40af3cd65dd5a89d2492ccb9dcbd8554f4ecfe3ec7e0"
    ],
    "txDetails": {
        "175b6cbdc5155069339f01852ffaaa9908b8528b568ea24c5a6d1b64a3c2cda3": {
            "hex": "02000000000101a80513c9c4a45e95089c7f574d5b793f1446128ef316f4353abbc4512dfc14930000000000feffffff02a086010000000000160014d2850d5a21ab3ca3fa2b395c2e6c354f3cae5a239cb00d0000000000160014c9df5d6ccbc6d067d1982267f5b06db644f4218f0247304402204fd46878214ac9cde3acbd5ffac35f7ea9773691090fee894457e626634b720c02201b8c66173193f74f4978703fe02f81ac0839dcebb25cc0cebe31ed5924871f48012103ecfc7e8d21743fe2677057b12b5bb608efd0e8ce065e467e584a48b0656f2c20953b0000",
            "txid": "175b6cbdc5155069339f01852ffaaa9908b8528b568ea24c5a6d1b64a3c2cda3",
            "blocktime": 1607488510,
            "time": 1607488510,
            "locktime": 15253,
            "version": 2,
            "vin": [
                {
                    "txid": "9314fc2d51c4bb3a35f416f38e1246143f795b4d577f9c08955ea4c4c91305a8",
                    "vout": 0,
                    "sequence": 4294967294,
                    "scriptSig": {
                        "hex": ""
                    }
                }
            ],
            "vout": [
                {
                    "value": 0.001,
                    "n": 0,
                    "scriptPubKey": {
                        "hex": "0014d2850d5a21ab3ca3fa2b395c2e6c354f3cae5a23"
                    }
                },
                {
                    "value": 0.0089718,
                    "n": 1,
                    "scriptPubKey": {
                        "hex": "0014c9df5d6ccbc6d067d1982267f5b06db644f4218f"
                    }
                }
            ]
        },
        "1f1f01af015cbfc2e6ad40af3cd65dd5a89d2492ccb9dcbd8554f4ecfe3ec7e0": {
            "hex": "020000000001027386c85b8e00a7a0b19e20c04b9feaa7f60876d7c721301b4f150fa31f24502e0100000000feffffffa3cdc2a3641b6d5a4ca28e568b52b80899aafa2f85019f33695015c5bd6c5b170000000000feffffff022476010000000000160014745e303dc3ded3cf4407bff76bb287f3c05df1c8a0860100000000001976a91462e907b15cbf27d5425399ebf6f0fb50ebb88f1888ac0247304402201c2a302a96a28b5effe632e2cc312793d1163311ad50c7dc65aa1a3caef809e502206d54609b7b4bae245246db6f521d71221aaa24b0eb0f1a856fd75d35d3fc302d012103ecfc7e8d21743fe2677057b12b5bb608efd0e8ce065e467e584a48b0656f2c200247304402207cc78f7f28844dd0a1a1c7857261b57f0c5b4ca7d2118e9ff26cdd9fa42933880220543f6a5b84bd16988176068e6861d634c5850da44badc73915bce9117a1bc0c9012103190640ce052336349c617faca40370c452c7b48ae1aefbd3cc2a08a154ec843c953b0000",
            "txid": "1f1f01af015cbfc2e6ad40af3cd65dd5a89d2492ccb9dcbd8554f4ecfe3ec7e0",
            "blocktime": 1607488510,
            "time": 1607488510,
            "locktime": 15253,
            "version": 2,
            "vin": [
                {
                    "txid": "2e50241fa30f154f1b3021c7d77608f6a7ea9f4bc0209eb1a0a7008e5bc88673",
                    "vout": 1,
                    "sequence": 4294967294,
                    "scriptSig": {
                        "hex": ""
                    }
                },
                {
                    "txid": "175b6cbdc5155069339f01852ffaaa9908b8528b568ea24c5a6d1b64a3c2cda3",
                    "vout": 0,
                    "sequence": 4294967294,
                    "scriptSig": {
                        "hex": ""
                    }
                }
            ],
            "vout": [
                {
                    "value": 0.0009578,
                    "n": 0,
                    "scriptPubKey": {
                        "hex": "0014745e303dc3ded3cf4407bff76bb287f3c05df1c8"
                    }
                },
                {
                    "value": 0.001,
                    "n": 1,
                    "scriptPubKey": {
                        "hex": "76a91462e907b15cbf27d5425399ebf6f0fb50ebb88f1888ac"
                    }
                }
            ]
        }
    }
}
