{
    "blockHeight": 1851162,
    "blockHash": "0000000050a2ab1816b07e63ee9faf8cefbb44a65192e1c5a7360c41efd1d1ef",
    "blockTime": 1583392607,
    "blockTxs": [
        "e55b40c050117cf6cb2e1f35772c00bdc33a1fb8473bca0e3ff99b0e88c70397",
        "f81c34b300961877328c3aaa7cd5e69068457868309fbf1e92544e3a6a915bcb"
    ],
    "txDetails": {
        "f81c34b300961877328c3aaa7cd5e69068457868309fbf1e92544e3a6a915bcb": {
            "hex": "0100000001aef422fb91cd91e556966fed4121ac44017a761d71385596536bb447ae05213e000000006a47304402202341ac4297925257dc72eb418a069c45e76f7070340e27501f6308cc7eff45f802204a347915adceff5f6fc9b8075d95d47887d46b344c7bbc8066d315931b189ad001210228c2520812b7f8c63e7a088c61b6348b22fa0c98812e736a1fd896bc828d3c65feffffff028041f13d000000001976a91478379ea136bb5783b675cd11e412bf0703995aeb88aca9983141000000001976a9144d869697281ad18370313122795e56dfdc3a331388ac193f1c00",
            "txid": "f81c34b300961877328c3aaa7cd5e69068457868309fbf1e92544e3a6a915bcb",
            "blocktime": 1583392607,
            "time": 1583392607,
            "locktime": 1851161,
            "version": 1,
            "vin": [
                {
                    "txid": "3e2105ae47b46b53965538711d767a0144ac2141ed6f9656e591cd91fb22f4ae",
                    "vout": 0,
                    "scriptSig": {
                        "hex": "47304402202341ac4297925257dc72eb418a069c45e76f7070340e27501f6308cc7eff45f802204a347915adceff5f6fc9b8075d95d47887d46b344c7bbc8066d315931b189ad001210228c2520812b7f8c63e7a088c61b6348b22fa0c98812e736a1fd896bc828d3c65"
                    },
                    "sequence": 4294967294
                }
            ],
            "vout": [
                {
                    "value": 10.39221120,
                    "n": 0,
                    "scriptPubKey": {
                        "hex": "76a91478379ea136bb5783b675cd11e412bf0703995aeb88ac"
                    }
                },
                {
                    "value": 10.93769385,
                    "n": 1,
                    "scriptPubKey": {
                        "hex": "76a9144d869697281ad18370313122795e56dfdc3a331388ac"
                    }
                }
            ]
        }
    }
}