{
    "blockHeight": 693800,
    "blockHash": "af5c5943051e1fe17ad41646f01744bd5bf41c835624dd314a2671af22de08ea",
    "blockTime": 1544210151,
    "blockTxs": [
		"8bc8ee32c45156ee5ab127ed33deca6045218ffe01433c74b41dffefce088cf7",
		"b0dc89e0668f2bf1e89f4a41703d3b245f1903cfc07102d79a1fe55ad2a4fe8e",
		"fbee1818d37c336ac5707f91c7886b28b30cf17254fa5386657f92eb16848e2e",
		"77600ceb4692a56ee34834ac1c3eba466299f0097715671bd10b64f3c87f20fa"
    ],
    "txDetails": {
        "77600ceb4692a56ee34834ac1c3eba466299f0097715671bd10b64f3c87f20fa": {
            "hex": "0100000001559be19597c7ec1066f95043285d5a4094c97d10acef888abfeaf5d0c3637145010000006b48304502210082922a9178874d7cf551835c13499a46247c0654ca35c11a940c56b844442705022054e96ab5174ef0ecbbf3efae22ab1d72d2177d4de05f22ecc61b0d4a32c7a823012103a982906e78dfb2220061438b55478f7fc67e669d1d5ea48189666d50fa54fcdbffffffff02f175feeb0b0000001976a9141c7ece8045985cd2d31a78775ea63734880658d188aca7d20f3f070000001976a91405b3348518ec36c6e5e86d2f80551dcb64414eea88ac00000000",
            "txid": "77600ceb4692a56ee34834ac1c3eba466299f0097715671bd10b64f3c87f20fa",
            "blocktime": 1544210151,
            "time": 1544210151,
            "locktime": 0,
            "version": 1,
            "vin": [
                {
                    "txid": "457163c3d0f5eabf8a88efac107dc994405a5d284350f96610ecc79795e19b55",
                    "vout": 1,
                    "sequence": 4294967295,
                    "scriptSig": {
                        "hex": "48304502210082922a9178874d7cf551835c13499a46247c0654ca35c11a940c56b844442705022054e96ab5174ef0ecbbf3efae22ab1d72d2177d4de05f22ecc61b0d4a32c7a823012103a982906e78dfb2220061438b55478f7fc67e669d1d5ea48189666d50fa54fcdb"
                    }
                }
            ],
            "vout": [
                {
                    "value": 512.03962353,
                    "n": 0,
                    "scriptPubKey": {
                        "hex": "76a9141c7ece8045985cd2d31a78775ea63734880658d188ac"
                    }
                },
                {
                    "value": 311.22772647,
                    "n": 1,
                    "scriptPubKey": {
                        "hex": "76a91405b3348518ec36c6e5e86d2f80551dcb64414eea88ac"
                    }
                }
            ]
        }
    }
}
