{
    "blockHeight": 79518,
    "blockHash": "4fe03ccd64f80edf943f6e3708b2fbdfa78224db620ce932a912672f05aab075",
    "blockTime": 1624782302,
    "blockTxs": [
        "a71ab9a308b4f9d78749ef7c8e9652d0dee8ee8a176cfdeadd9f9230c2be37fa",
        "f838f4510b76fe25ef0304a1a0f4fa249c622f8f04c05bf301b74ada5d66ed7f",
        "c69ed365e1db3490200dbca40b5137d7d85ce0c583c288fc36ad8b13e9a05602"
    ],
    "txDetails": {
        "c69ed365e1db3490200dbca40b5137d7d85ce0c583c288fc36ad8b13e9a05602": {
            "hex": "01000000017ead8519ab8848ba62ac1aff62c36ca2ec93c805ac3a072e0b38d91633b5da46010000004847304402207970483f33f61899997d98672c2934d643f1bd35704afc31bcb8bf7b2eec70e602206e834bd611d1222bb27b84500733530ab9d5ab4f7059af4a1fd720af03d297d601feffffff0206081a838b0000001976a9142cb4d2fc255cc88d0a6fca88fb4b2ef3518e211d88ac00943577000000001976a914b60dfcb590be22ed373535ccdcc5eb090fbc451988ac9d360100",
            "txid": "c69ed365e1db3490200dbca40b5137d7d85ce0c583c288fc36ad8b13e9a05602",
            "blocktime": 1624782302,
            "time": 1624782302,
            "locktime": 79517,
            "version": 1,
            "vin": [
                {
                    "txid": "46dab53316d9380b2e073aac05c893eca26cc362ff1aac62ba4888ab1985ad7e",
                    "vout": 1,
                    "sequence": 4294967294,
                    "scriptSig": {
                        "hex": "47304402207970483f33f61899997d98672c2934d643f1bd35704afc31bcb8bf7b2eec70e602206e834bd611d1222bb27b84500733530ab9d5ab4f7059af4a1fd720af03d297d601"
                    }
                }
            ],
            "vout": [
                {
                    "value": 5991.99975430,
                    "n": 0,
                    "scriptPubKey": {
                        "hex": "76a9142cb4d2fc255cc88d0a6fca88fb4b2ef3518e211d88ac"
                    }
                },
                {
                    "value": 20.00000000,
                    "n": 1,
                    "scriptPubKey": {
                        "hex": "76a914b60dfcb590be22ed373535ccdcc5eb090fbc451988ac"
                    }
                }
            ]
        }
    }
}
