{
   "blockHeight":79960,
   "blockHash":"000000058e4ea8b9f687b4e40c32664fd328d8fcc7fe767d7436967c60f29b3f",
   "blockTime":1567264853,
   "blockTxs":[
      "f960f14ac5fd9dbeda393a7ba308760d3864a486d1966fde56acfeda695e8bf4",
      "c763ddc42f825ac090e12c77dd7705575b95e3fe53066ec90bb00627002f9916"
   ],
   "txDetails":{
      "c763ddc42f825ac090e12c77dd7705575b95e3fe53066ec90bb00627002f9916":{
         "hex":"020000000512bdfdaa2164052fca8f7f112e61005a39c9f27a3fd6a3afc695102da749c550020000006a473044022044c3d2f6d7380486ccc2923761fbf064779fe03b726e6834caf942a4ec01c2d8022075aaeaf6cb76d548c99906a24197b733e85512f18bf6347452f4892ddee382eb012102da1d08a1d68dcba32bb2219ec6f80a7fdf2fab8ca9f5b8156a2b21fb36a2b05cfeffffff4bb9c45ef8dc996a5b3172481e7b68600bc38dabdb1d750a7798e5a05c4aa817040000006b483045022100bf1371418cc82702a60b2782dc832043b11ed13ec20fff156708a1d9da2390a20220091631b14b18f076479ab0f22d65bf2fde8bb574e800551dd69439db57cf511c012102be7ec4f4772cf0a54183f8c6b170d17f854a614d49e2d1072c6e2c25f34f5ef8feffffff5d8447c42f04714c066b17cf55b3323fb5674ad0d41b06dfb4b44e8a231260ce020000006b483045022100a397899722f20c42a647c6c95a8c1ef96868b3c19aef2e9666048067620a8e4702204c7bad050479588fc7f0bfa1a641f764e971fb532352e58ab7c8b4d4dea2baee012102da1d08a1d68dcba32bb2219ec6f80a7fdf2fab8ca9f5b8156a2b21fb36a2b05cfeffffffab71308f8af6439455c71a42f7406556e46f4c87478b5a84bd60bdd50747f0a9000000006b4830450221009c5dd8c78cdde9cbdce0c9a1d8f7696b162a3a6d61b49df24e3e02b0339947aa022064f77a50c616461b8e7d1a09e803ab414f7bf050ab062c4bd09217d7bb064b35012102a2422079534414b9e4727501ccece9306a9fe0fb27da2cfcf6d07f5067f27299feffffffea09f641971cac2659f64653b8654fb0cec8461c8adc2ea882cefccb15094d35020000006a47304402200cc2a4e25703b0e6f7e7922a159f6851a6005336ede5ba29c383ede90656a19d02203bbedf68938ef13459967e8141a45bc1948f840f67bf5e3219db3a5394349c48012102da1d08a1d68dcba32bb2219ec6f80a7fdf2fab8ca9f5b8156a2b21fb36a2b05cfeffffff0315cdfa3b000000001976a9149d79bcf021069e941857bdff8388c25011ba626a88acedad2f00000000001976a914765e478e7fc803d1c34310bfa99aefc05de2cc8088acaa6b663c000000001976a91467c0bd18101fc3ea9ce371eae467e0b235b4eca288ac0c380100",
         "txid":"c763ddc42f825ac090e12c77dd7705575b95e3fe53066ec90bb00627002f9916",
         "blocktime":1567264853,
         "time":1567264853,
         "locktime":79884,
         "version":2,
         "vin":[
            {
               "txid":"50c549a72d1095c6afa3d63f7af2c9395a00612e117f8fca2f056421aafdbd12",
               "vout":2,
               "scriptSig":{
                  "asm":"3044022044c3d2f6d7380486ccc2923761fbf064779fe03b726e6834caf942a4ec01c2d8022075aaeaf6cb76d548c99906a24197b733e85512f18bf6347452f4892ddee382eb[ALL] 02da1d08a1d68dcba32bb2219ec6f80a7fdf2fab8ca9f5b8156a2b21fb36a2b05c",
                  "hex":"473044022044c3d2f6d7380486ccc2923761fbf064779fe03b726e6834caf942a4ec01c2d8022075aaeaf6cb76d548c99906a24197b733e85512f18bf6347452f4892ddee382eb012102da1d08a1d68dcba32bb2219ec6f80a7fdf2fab8ca9f5b8156a2b21fb36a2b05c"
               },
               "sequence":4294967294
            },
            {
               "txid":"17a84a5ca0e598770a751ddbab8dc30b60687b1e4872315b6a99dcf85ec4b94b",
               "vout":4,
               "scriptSig":{
                  "asm":"3045022100bf1371418cc82702a60b2782dc832043b11ed13ec20fff156708a1d9da2390a20220091631b14b18f076479ab0f22d65bf2fde8bb574e800551dd69439db57cf511c[ALL] 02be7ec4f4772cf0a54183f8c6b170d17f854a614d49e2d1072c6e2c25f34f5ef8",
                  "hex":"483045022100bf1371418cc82702a60b2782dc832043b11ed13ec20fff156708a1d9da2390a20220091631b14b18f076479ab0f22d65bf2fde8bb574e800551dd69439db57cf511c012102be7ec4f4772cf0a54183f8c6b170d17f854a614d49e2d1072c6e2c25f34f5ef8"
               },
               "sequence":4294967294
            },
            {
               "txid":"ce6012238a4eb4b4df061bd4d04a67b53f32b355cf176b064c71042fc447845d",
               "vout":2,
               "scriptSig":{
                  "asm":"3045022100a397899722f20c42a647c6c95a8c1ef96868b3c19aef2e9666048067620a8e4702204c7bad050479588fc7f0bfa1a641f764e971fb532352e58ab7c8b4d4dea2baee[ALL] 02da1d08a1d68dcba32bb2219ec6f80a7fdf2fab8ca9f5b8156a2b21fb36a2b05c",
                  "hex":"483045022100a397899722f20c42a647c6c95a8c1ef96868b3c19aef2e9666048067620a8e4702204c7bad050479588fc7f0bfa1a641f764e971fb532352e58ab7c8b4d4dea2baee012102da1d08a1d68dcba32bb2219ec6f80a7fdf2fab8ca9f5b8156a2b21fb36a2b05c"
               },
               "sequence":4294967294
            },
            {
               "txid":"a9f04707d5bd60bd845a8b47874c6fe4566540f7421ac7559443f68a8f3071ab",
               "vout":0,
               "scriptSig":{
                  "asm":"30450221009c5dd8c78cdde9cbdce0c9a1d8f7696b162a3a6d61b49df24e3e02b0339947aa022064f77a50c616461b8e7d1a09e803ab414f7bf050ab062c4bd09217d7bb064b35[ALL] 02a2422079534414b9e4727501ccece9306a9fe0fb27da2cfcf6d07f5067f27299",
                  "hex":"4830450221009c5dd8c78cdde9cbdce0c9a1d8f7696b162a3a6d61b49df24e3e02b0339947aa022064f77a50c616461b8e7d1a09e803ab414f7bf050ab062c4bd09217d7bb064b35012102a2422079534414b9e4727501ccece9306a9fe0fb27da2cfcf6d07f5067f27299"
               },
               "sequence":4294967294
            },
            {
               "txid":"354d0915cbfcce82a82edc8a1c46c8ceb04f65b85346f65926ac1c9741f609ea",
               "vout":2,
               "scriptSig":{
                  "asm":"304402200cc2a4e25703b0e6f7e7922a159f6851a6005336ede5ba29c383ede90656a19d02203bbedf68938ef13459967e8141a45bc1948f840f67bf5e3219db3a5394349c48[ALL] 02da1d08a1d68dcba32bb2219ec6f80a7fdf2fab8ca9f5b8156a2b21fb36a2b05c",
                  "hex":"47304402200cc2a4e25703b0e6f7e7922a159f6851a6005336ede5ba29c383ede90656a19d02203bbedf68938ef13459967e8141a45bc1948f840f67bf5e3219db3a5394349c48012102da1d08a1d68dcba32bb2219ec6f80a7fdf2fab8ca9f5b8156a2b21fb36a2b05c"
               },
               "sequence":4294967294
            }
         ],
         "vout":[
            {
               "value":10.06292245,
               "n":0,
               "scriptPubKey":{
                  "asm":"OP_DUP OP_HASH160 9d79bcf021069e941857bdff8388c25011ba626a OP_EQUALVERIFY OP_CHECKSIG",
                  "hex":"76a9149d79bcf021069e941857bdff8388c25011ba626a88ac",
                  "reqSigs":1,
                  "type":"pubkeyhash",
                  "addresses":[
                     "CWpYVfaHU1ZxEujGeVZDJ6LwzEQEBiRdSm"
                  ]
               }
            },
            {
               "value":0.03124717,
               "n":1,
               "scriptPubKey":{
                  "asm":"OP_DUP OP_HASH160 765e478e7fc803d1c34310bfa99aefc05de2cc80 OP_EQUALVERIFY OP_CHECKSIG",
                  "hex":"76a914765e478e7fc803d1c34310bfa99aefc05de2cc8088ac",
                  "reqSigs":1,
                  "type":"pubkeyhash",
                  "addresses":[
                     "CTFmFLGWaMjKcKXVy7MDWGEWUJehtErLTV"
                  ]
               }
            },
            {
               "value":10.13345194,
               "n":2,
               "scriptPubKey":{
                  "asm":"OP_DUP OP_HASH160 67c0bd18101fc3ea9ce371eae467e0b235b4eca2 OP_EQUALVERIFY OP_CHECKSIG",
                  "hex":"76a91467c0bd18101fc3ea9ce371eae467e0b235b4eca288ac",
                  "reqSigs":1,
                  "type":"pubkeyhash",
                  "addresses":[
                     "CRvV4Wscfy8DovLt154patEBTwyzwWoxqr"
                  ]
               }
            }
         ]
      }
   }
}
