{
    "blockHeight": 139521,
    "blockHash": "000000000296ea05e13b5479f6c041de575eec90759f58f57d311a8918b0af17",
    "blockTime": 1528713762,
     "blockTxs": [
        "cfe2d2c5bd9929349a9d8f3d8f2423f4f0c9b408ed41b3002be5e7437a20aa7d",
        "3f7ac6c55c0b383feb17715aef3cebf29182039fc42577d7c517b2fc04096942",
        "3f296b929f6ee4f0ad3d6fce35873d6aeacbdf06aaf2abe384beb6e3f2a4dd03",
        "5ef4f9b7e4c0240687c3a6e6a073e0fbc753645d231ca35435b95325778b7186",
        "805b5ba055227b0f7dbbdef8e603632c4d25b93f0e87c59fc74cbe8ad8dbe806",
        "392785b88f03c82492172827f30cbed4761de3098a0faaa740999b412ff15e46",
        "13fafd7c8afc6fd2c860d342eaf0cfe0edd2b994bb836898c02830b2f688155e",
        "26bc95fcc71380f0d66e437314c72999c0848cab81fe1f91c9c95bf15b74855c",
        "7873d8d774f2aae72100620a21b38ea681b488b328802b6ec3271b1d727c6b73",
        "23147585fd4ed3970118027ce9b2e190e264f26fbf5d8c9708a483cee6cada43",
        "e079894b2545eca7184a2f0eaccf4b069242f18fa0721aedc8f66b73112a1e8f",
        "b36284854fa1947844ecc5d62768be3e14cc44c430db87b1b90184364b30dbf4",
        "1fd3ad5d0392cedf318600908270986c801cac161ef06f660591634cc2a29652",
        "7a5b8944589b0cfba9c408b24b095648b0040a37fd769a9785982603bb7ca1f7",
        "7da1811ec3f2c6381d89e59f40957d36c898ba1bb70b976e0b5490d3b9fa8952",
        "dbcfa65bdfe758353305eaff11b300463018efb7fa8f17c6c6a98bb8dba6bcc9",
        "c046821e5503770304359792c20c1ed3e71509a19a867acf1dae113bf52d2a6f",
        "d3cea11e1a4937323cc94172f93a2e0edc0981a706f2d2c3315ace94b01b375a",
        "6ef2a57e38dd891690c8f230b65f26247799b2421860e6cf8a1c7c8cfdedd96e",
        "53834414d8a88afe4268b85f959e526a0c677ac6b7dedba9a796d1549852fd41",
        "b761ebaccfb6d0eeaa5350ccafdf6a7633e59d6baadc932c6d78491cb08052a6"
    ],
    "txDetails": {
        "3f7ac6c55c0b383feb17715aef3cebf29182039fc42577d7c517b2fc04096942": {
            "hex": "020000000109d37a59b7da8902b8822547c927e35554b16667ffd698daae985c58c71616a4010000006b483045022100f3ef92ae1c8442eff171bd2dbc69373db384c86617032917b3bb2c5cd892bb2702207485cf5f8e6aa9fe245f5708a5c6ec37580c1c35e54429c6b43b322678f54cad012102ba7dbd059cc4f03e9fa4b6007b407279a154a8fc2103241511df155a52b7ea58feffffff02a055e18e170000001976a914e2114cb0a8b5d6f1c3c720f314cbf79e14bb9cdd88ac8cb65df0440000001976a9141ed486862342afd134f96a6cee5ca105801375df88ac00210200",
            "txid": "3f7ac6c55c0b383feb17715aef3cebf29182039fc42577d7c517b2fc04096942",
            "blocktime": 1528713762,
            "time": 1528713762,
            "locktime": 139520,
            "version": 2,
            "vin": [
                {
                    "txid": "a41616c7585c98aeda98d6ff6766b15455e327c9472582b80289dab7597ad309",
                    "vout": 1,
                    "sequence": 4294967294,
                    "scriptSig": {
                        "hex": "483045022100f3ef92ae1c8442eff171bd2dbc69373db384c86617032917b3bb2c5cd892bb2702207485cf5f8e6aa9fe245f5708a5c6ec37580c1c35e54429c6b43b322678f54cad012102ba7dbd059cc4f03e9fa4b6007b407279a154a8fc2103241511df155a52b7ea58"
                    }
                }
            ],
            "vout": [
                {
                    "value": 1011.81380000,
                    "n": 0,
                    "scriptPubKey": {
                        "hex": "76a914e2114cb0a8b5d6f1c3c720f314cbf79e14bb9cdd88ac"
                    }
                },
                {
                    "value": 2960.90449548,
                    "n": 1,
                    "scriptPubKey": {
                        "hex": "76a9141ed486862342afd134f96a6cee5ca105801375df88ac"
                    }
                }
            ]
        },
        "6ef2a57e38dd891690c8f230b65f26247799b2421860e6cf8a1c7c8cfdedd96e": {
            "hex": "020000000327ee9a2a360c6304fda56fa029670a95db595f70ae185a6f76ff1de415e07a18000000006a473044022011e7aed7a1cf187a9b6ca294bb76e3576cadebce48b5b944ad8393a60e8aa485022000818546dc7ba47c625258223dcefd6e84dc3faa8d54c646bfc0f55c4506c8f00121023fe7680caadc7bf3f796936de04d77e1007dea53880621c01d7b34720345d4ecfeffffff1ae8beeed571f491410ed327a6821b683d8ae571aea56057634da7aa8ce1041f000000006b4830450221009277cfac065a076814e18613d89c7d85a6461cf5283f2a9cee7254ec83fce637022023cf7186be7714921fe24719450e65a204d803738a1cb9fe35f30753f0696b8b012102aff34da05a74891899aace72f2e650ec1c039bfc519c192e6c231a2b7fa05749feffffff6388454ad1e5718af92def6fe307e64e97c43324d30c322b31edf85088020dc9000000006a47304402204435602e00d22417ff489302758a246df5fbc05e9bc4d0025464556ae7f77e70022036e30d2d46937ee0fc0cdf9a63e7baf8351bd16454ec02311cac52655ac4c32801210395fbe30126fc97a2c8b1e29bc27028a5a6885e4a4116d13e2cbe32c9d71e7f03feffffff02ce177e09000000001976a91437617547a3e0ba0adeead7c8c33c03970341404088acd0f7aad1010000001976a914f0b3dff509993e0b7035ce997b52763ce501d67888ac00210200",
            "txid": "6ef2a57e38dd891690c8f230b65f26247799b2421860e6cf8a1c7c8cfdedd96e",
            "blocktime": 1528713762,
            "time": 1528713762,
            "locktime": 139520,
            "version": 2,
            "vin": [
                {
                    "txid": "187ae015e41dff766f5a18ae705f59db950a6729a06fa5fd04630c362a9aee27",
                    "vout": 0,
                    "sequence": 4294967294,
                    "scriptSig": {
                        "hex": "473044022011e7aed7a1cf187a9b6ca294bb76e3576cadebce48b5b944ad8393a60e8aa485022000818546dc7ba47c625258223dcefd6e84dc3faa8d54c646bfc0f55c4506c8f00121023fe7680caadc7bf3f796936de04d77e1007dea53880621c01d7b34720345d4ec"
                    }
                },
                {
                    "txid": "1f04e18caaa74d635760a5ae71e58a3d681b82a627d30e4191f471d5eebee81a",
                    "vout": 0,
                    "sequence": 4294967294,
                    "scriptSig": {
                        "hex": "4830450221009277cfac065a076814e18613d89c7d85a6461cf5283f2a9cee7254ec83fce637022023cf7186be7714921fe24719450e65a204d803738a1cb9fe35f30753f0696b8b012102aff34da05a74891899aace72f2e650ec1c039bfc519c192e6c231a2b7fa05749"
                    }
                },
                {
                    "txid": "c90d028850f8ed312b320cd32433c4974ee607e36fef2df98a71e5d14a458863",
                    "vout": 0,
                    "sequence": 4294967294,
                    "scriptSig": {
                        "hex": "47304402204435602e00d22417ff489302758a246df5fbc05e9bc4d0025464556ae7f77e70022036e30d2d46937ee0fc0cdf9a63e7baf8351bd16454ec02311cac52655ac4c32801210395fbe30126fc97a2c8b1e29bc27028a5a6885e4a4116d13e2cbe32c9d71e7f03"
                    }
                }
            ],
            "vout": [
                {
                    "value": 1.59258574,
                    "n": 0,
                    "scriptPubKey": {
                        "hex": "76a91437617547a3e0ba0adeead7c8c33c03970341404088ac"
                    }
                },
                {
                    "value": 78.12610000,
                    "n": 1,
                    "scriptPubKey": {
                        "hex": "76a914f0b3dff509993e0b7035ce997b52763ce501d67888ac"
                    }
                }
            ]
        }
    }
}
