{
    "blockHeight": 18720,
    "blockHash": "00000000056aa5d3268088dd958da4aeb73586815a2974ef40a907ecbbf8893c",
    "blockTime":  1535980876,
    "blockTxs": [
      "47ceedca164da150ce1c677f6d6f1eae41b792d9c16a956204cc0dcbf8caa905",
      "0c7a348bbcc0da20ac5f304627e8154b90ed2b56ec828a5513bce0dd521713cc"
    ],
    "blockSize": 2531,
    "txDetails": {
        "326e54f7909ef8b3d696367039c5eec67b505ef82c3edd2368dd39b6aa272dee": {
            "hex": "01000000010000000000000000000000000000000000000000000000000000000000000000ffffffff00ffffffff03fbed9f0d00000000000017a914d585cd7426d25b4ea5faf1e6987aacfeda3db94287000000000000000000000e6a0c2049000039c63f0b763dfcffa145c0510000000000001976a9149bb0ab1ab455c220c575304aa6bb31dad3eff19888ac000000000000000001e0815f5f0000000000000000ffffffff0800002f646372642f",
            "blocktime":  1535980876,
            "time":  1535980876,
            "locktime": 0,
            "version": 1,
            "vin": [
               {
                  "blockindex": 4294967295,
                  "coinbase": "00002f646372642f",
                  "sequence": 4294967295
               }
            ],
            "vout": [
               {
                  "value": 2.28584955,
                  "n": 0,
                  "scriptPubKey": {
                     "hex": "a914d585cd7426d25b4ea5faf1e6987aacfeda3db94287",
                     "addresses": [
                        "TcrypGAcGCRVXrES7hWqVZb5oLJKCZEtoL1"
                     ]
                  }
               },
               {
                  "value": 0,
                  "n": 1,
                  "scriptPubKey": {
                     "hex": "6a0c2049000039c63f0b763dfcff",
                     "addresses": [
                         "OP_RETURN 2049000039c63f0b763dfcff"
                     ]
                  }
               },
               {
                  "value": 13.71555233,
                  "n": 2,
                  "scriptPubKey": {
                     "hex": "76a9149bb0ab1ab455c220c575304aa6bb31dad3eff19888ac",
                     "addresses": [
                        "TsfDLrRkk9ciUuwfp2b8PawwnukYD7yAjGd"
                     ]
                  }
               }
            ]
        },
        "5cf42c027886df5281df2d15fa876281a362ebb742efe963682258ef201d58d3": {
            "hex": "01000000022071ad6dd7c1f463d1cdd7bf15879397be44da6d98bf03c89d571eedf77ffc530200000001ffffffff39880e89917a590c0b010d87064812019e619048d2c4e8dbe8115048c067ecd50200000001ffffffff03cd1ecb340000000000001976a914ae99f28cb5e00dd88b1669c19995f5c84586c33388accd1ecb340000000000001976a914ae99f28cb5e00dd88b1669c19995f5c84586c33388ac1a0801070000000000001976a914fe3d3bc633ef2321d479332412b71ef6bc60e86a88ac000000000000000002362e54360000000010490000010000006b483045022100dbb703dea8c4fc87357be19a9af114242bc80c4eafa387d654da1a427c56cd6102207cb00d4fedbfaa4f2aa7b4530683e286ad13fe127dd9be5edee4c1cb594d9da401210372321040dccd62d5171718e49713a804ceb566fa65ea762a86e7b89e8448d0ed3ac9433a0000000010490000030000006a4730440220729ca901c17ef7008d32df19bfdedf91821d10f0a7511be4d78bdf1027f5598c022077c4a7df6388d1107927f9f95b6aca4b3fd02ae1ff2c422fe47ad79b51c42b64012103adde046e4f13579bba4104ec9b5064158df0ea6648876a8667d88c6abffc0e22",
            "blocktime":  1535980876,
            "time":  1535980876,
            "locktime": 0,
            "version": 1,
            "vin": [
               {
                  "txid": "53fc7ff7ed1e579dc803bf986dda44be97938715bfd7cdd163f4c1d76dad7120",
                  "vout": 2,
                  "sequence": 4294967295,
                  "scriptSig": {
                     "hex": "483045022100dbb703dea8c4fc87357be19a9af114242bc80c4eafa387d654da1a427c56cd6102207cb00d4fedbfaa4f2aa7b4530683e286ad13fe127dd9be5edee4c1cb594d9da401210372321040dccd62d5171718e49713a804ceb566fa65ea762a86e7b89e8448d0ed"
                  }
               },
               {
                  "txid": "d5ec67c0485011e8dbe8c4d24890619e01124806870d010b0c597a91890e8839",
                  "vout": 2,
                  "sequence": 4294967295,
                  "scriptSig": {
                     "hex": "4730440220729ca901c17ef7008d32df19bfdedf91821d10f0a7511be4d78bdf1027f5598c022077c4a7df6388d1107927f9f95b6aca4b3fd02ae1ff2c422fe47ad79b51c42b64012103adde046e4f13579bba4104ec9b5064158df0ea6648876a8667d88c6abffc0e22"
                  }
               }
            ],
            "vout": [
               {
                  "value": 8.85726925,
                  "n": 0,
                  "scriptPubKey": {
                     "hex": "76a914ae99f28cb5e00dd88b1669c19995f5c84586c33388ac",
                     "addresses": [
                        "TsgwLUPtU1PF6nFe6RohUdhwUURJX7bv5R1"
                     ]
                  }
               },
               {
                  "value": 8.85726925,
                  "n": 1,
                  "scriptPubKey": {
                     "hex": "76a914ae99f28cb5e00dd88b1669c19995f5c84586c33388ac",
                     "addresses": [
                        "TsgwLUPtU1PF6nFe6RohUdhwUURJX7bv5R1"
                     ]
                  }
               },
               {
                  "value": 1.17508122,
                  "n": 2,
                  "scriptPubKey": {
                     "hex": "76a914fe3d3bc633ef2321d479332412b71ef6bc60e86a88ac",
                     "addresses": [
                        "TspCRTrypUAyeE3yNqg6Wp1a2w9bmko3oED"
                     ]
                  }
               }
            ]
        }
    }
}
