{
    "blockHeight": 30000,
    "blockHash": "000000000000039135acfe97d4c769156856318997ff9afa6635873344b4e26f",
    "blockTime": 1463843967,
    "blockTxs": [
        "4cfab09f97f04e065f9a9552dcdda9ce1b2aabec436330adea330f0b5f7a359d",
        "fb422109aa8db4dafdd16a0e9c38d49a4ea448a3e739513d5aaf2cc056e366a6",
        "a768ec0314cde1e497893d6825f4780f5342e24a841c50d48189e540d3d08a2a",
        "7058766ffef2e9cee61ee4b7604a39bc91c3000cb951c4f93f3307f6e0bf4def",
        "ea66736c9488fee34d85042a6cfdb6c53a0b6da4a3b69f9014d9037ffc672173",
        "798b8a038b96719dddb544a82a9e626ea548353064e17541b3a4f4bf91663501",
        "8794b8c3b72fccddeb5acfb61fe8671de697a3e43d9111c59fc80b0890ff9ba9",
        "b285a6e33b3d1bdf329fa0d169a5ddb21c1e9517df021ecf5235c0ebfd21c6fc"
    ],
    "blockSize": 5050,
    "txDetails": {
        "7058766ffef2e9cee61ee4b7604a39bc91c3000cb951c4f93f3307f6e0bf4def": {
            "hex": "0100000001193c189c71dff482b70ccb10ec9cf0ea3421a7fc51e4c7b0cf59c98a293a2f960200000000ffffffff027c87f00b0000000000001976a91418f10131a859912119c4a8510199f87f0a4cec2488ac9889495f0000000000001976a914631fb783b1e06c3f6e71777e16da6de13450465e88ac0000000000000000015ced3d6b0000000030740000000000006a47304402204e6afc21f6d065b9c082dad81a5f29136320e2b54c6cdf6b8722e4507e1a8d8902203933c5e592df3b0bbb0568f121f48ef6cbfae9cf479a57229742b5780dedc57a012103b89bb443b6ab17724458285b302291b082c59e5a022f273af0f61d47a414a537",
            "txid": "7058766ffef2e9cee61ee4b7604a39bc91c3000cb951c4f93f3307f6e0bf4def",
            "blocktime": 1463843967,
            "blockHeight": 30000,
            "time": 1463843967,
            "locktime": 0,
            "version": 1,
            "vin": [
                {
                   "txid": "962f3a298ac959cfb0c7e451fca72134eaf09cec10cb0cb782f4df719c183c19",
                   "vout": 2,
                   "sequence": 4294967295,
                   "scriptSig": {
                      "hex": "47304402204e6afc21f6d065b9c082dad81a5f29136320e2b54c6cdf6b8722e4507e1a8d8902203933c5e592df3b0bbb0568f121f48ef6cbfae9cf479a57229742b5780dedc57a012103b89bb443b6ab17724458285b302291b082c59e5a022f273af0f61d47a414a537"
                   }
                }
             ],
             "vout": [
                {
                   "value": 2.003127,
                   "n": 0,
                   "scriptPubKey": {
                      "hex": "76a91418f10131a859912119c4a8510199f87f0a4cec2488ac",
                      "addresses": [
                         "DsTEnRLDEjQNeQ4A47fdS2pqtaFrGNzkqNa"
                      ]
                   }
                },
                {
                   "value": 15.98654872,
                   "n": 1,
                   "scriptPubKey": {
                      "hex": "76a914631fb783b1e06c3f6e71777e16da6de13450465e88ac",
                      "addresses": [
                         "Dsa12P9VnCd55hTnUXpvGgFKSeGkFkzRvYb"
                      ]
                   }
                }
             ]
        },
        "798b8a038b96719dddb544a82a9e626ea548353064e17541b3a4f4bf91663501": {
            "hex": "0100000001188e1dd0e4708b0921afdd75d013b7cd63f7952e558ceb1040f45681717a27100000000000ffffffff029eb7de050000000000001976a91437b2be41e6b04cc29e4421b2bc2f7ab31a8a926d88aca7eade600000000000001976a914c450e55bb7f766ce35f1c16c3ddbc8eefcc7719688ac0000000000000000018d7ec166000000002d750000020000006b483045022100dd83f7cf6832e78bcbaac959ee38833cf2da2bac537223d8d80c61ea1578716f02202aa925285793c372dc8dfe5ef4febdae94c853b8230443fbb61ef59805b229530121031d5fdebe075585f15d8dad8eecb62bdf5e5d8c353097ee08ed7c1a9bc0de0a77",
            "txid": "798b8a038b96719dddb544a82a9e626ea548353064e17541b3a4f4bf91663501",
            "blocktime": 1463843967,
            "blockHeight": 30000,
            "time": 1463843967,
            "locktime": 0,
            "version": 1,
            "vin": [
                {
                   "txid": "10277a718156f44010eb8c552e95f763cdb713d075ddaf21098b70e4d01d8e18",
                   "vout": 0,
                   "sequence": 4294967295,
                   "scriptSig": {
                      "hex": "483045022100dd83f7cf6832e78bcbaac959ee38833cf2da2bac537223d8d80c61ea1578716f02202aa925285793c372dc8dfe5ef4febdae94c853b8230443fbb61ef59805b229530121031d5fdebe075585f15d8dad8eecb62bdf5e5d8c353097ee08ed7c1a9bc0de0a77"
                   }
                }
             ],
             "vout": [
                {
                   "value": 0.98482078,
                   "n": 0,
                   "scriptPubKey": {
                      "hex": "76a91437b2be41e6b04cc29e4421b2bc2f7ab31a8a926d88ac",
                      "addresses": [
                         "DsW3QnGxXzyvZAvFbLeuDE53aWD55deJiBk"
                      ]
                   }
                },
                {
                   "value": 16.25221799,
                   "n": 1,
                   "scriptPubKey": {
                      "hex": "76a914c450e55bb7f766ce35f1c16c3ddbc8eefcc7719688ac",
                      "addresses": [
                         "Dsirvqn2J4AzZSns3DpoB3iCzV8iWmspa9m"
                      ]
                   }
                }
             ]
        }
    }
}
