{
    "blockHeight": 1377592,
    "blockHash": "9993684c15a793130f43120839e5c2c711907631ef4ad7b43ba535322e4c6649",
    "blockTime": 1564554257,
    "blockTxs": [
        "200b681e57d19131a87c3aa4172b9e2e128cc48ecdf54cc91dcbc44e96e8f7cf",
        "6ba18524d81af732d0226ffdb63d2bcdc0d58a35ac97b5ad731057932d324e14"
    ],
    "txDetails": {
        "e967e3be9b68bcbb5cf5db31816cd40574345a24e69807ee8a80a7f92baeca14": {
            "hex": "0100000015cc175d016012730925e8e7eaff1a7cbd18e255f749e936730c001ca4b900a9a93230abbd0100000048473044022066a828d9d7d3e03dba2ad028bfdcad4e989ab76f11a7a033702759c37525bd8502206480c14e3c39a1d244e00c4113557bd9651d8b2b944426d88f8d7f95f8957c5601ffffffff03000000000000000000c0be295804000000232102bdb95d89f07e3a29305f3c8de86ec211ed77b7e15cf314c85c532a6b71c2ce07acfbf73a5804000000232102bdb95d89f07e3a29305f3c8de86ec211ed77b7e15cf314c85c532a6b71c2ce07ac00000000",
            "txid": "e967e3be9b68bcbb5cf5db31816cd40574345a24e69807ee8a80a7f92baeca14",
            "blocktime": 1561840661,
            "time": 1561840661,
            "locktime": 0,
            "version": 1,
            "vin": [
                {
                    "txid": "bdab3032a9a900b9a41c000c7336e949f755e218bd7c1affeae7e82509731260",
                    "vout": 1,
                    "scriptSig": {
                        "hex": "473044022066a828d9d7d3e03dba2ad028bfdcad4e989ab76f11a7a033702759c37525bd8502206480c14e3c39a1d244e00c4113557bd9651d8b2b944426d88f8d7f95f8957c5601"
                    },
                    "sequence": 4294967295
                }
            ],
            "vout": [
                {
                    "value": 0.00000000,
                    "n": 0,
                    "scriptPubKey": {
                        "hex": ""
                    }
                },
                {
                    "value": 186.59,
                    "n": 1,
                    "scriptPubKey": {
                        "hex": "2102bdb95d89f07e3a29305f3c8de86ec211ed77b7e15cf314c85c532a6b71c2ce07ac"
                    }
                },
                {
                    "value": 186.60128763,
                    "n": 2,
                    "scriptPubKey": {
                        "hex": "2102bdb95d89f07e3a29305f3c8de86ec211ed77b7e15cf314c85c532a6b71c2ce07ac"
                    }
                }
            ]
        }
    }
}
