{
    "blockHeight": 1377592,
    "blockHash": "9993684c15a793130f43120839e5c2c711907631ef4ad7b43ba535322e4c6649",
    "blockTime": 1564554257,
    "blockTxs": [
        "200b681e57d19131a87c3aa4172b9e2e128cc48ecdf54cc91dcbc44e96e8f7cf",
        "6ba18524d81af732d0226ffdb63d2bcdc0d58a35ac97b5ad731057932d324e14"
    ],
    "txDetails": {
        "e967e3be9b68bcbb5cf5db31816cd40574345a24e69807ee8a80a7f92baeca14": {
            "hex": "010000001134415d0114caae2bf9a7808aee0798e6245a347405d46c8131dbf55cbbbc689bbee367e902000000484730440220280f3fa80b4e93834fe0a8d9884105310eaa8d36d77b9aff113b6c498138e5bb02204578409f0a14fa1950ea4951314fd495fd503b42a6325efb5c139a6c8253912401ffffffff0200000000000000000005f22f5904000000232102bdb95d89f07e3a29305f3c8de86ec211ed77b7e15cf314c85c532a6b71c2ce07ac00000000"
            "txid": "e967e3be9b68bcbb5cf5db31816cd40574345a24e69807ee8a80a7f92baeca14",
            "blocktime": 1564554257,
            "time": 1564554257,
            "locktime": 0,
            "version": 1,
            "vin": [
                {
                    "txid": "e967e3be9b68bcbb5cf5db31816cd40574345a24e69807ee8a80a7f92baeca14",
                    "vout": 2,
                    "scriptSig": {
                        "asm": "30440220280f3fa80b4e93834fe0a8d9884105310eaa8d36d77b9aff113b6c498138e5bb02204578409f0a14fa1950ea4951314fd495fd503b42a6325efb5c139a6c82539124[ALL]",
                        "hex": "4730440220280f3fa80b4e93834fe0a8d9884105310eaa8d36d77b9aff113b6c498138e5bb02204578409f0a14fa1950ea4951314fd495fd503b42a6325efb5c139a6c8253912401"
                    },
                    "sequence": 4294967295
                }
            ],
            "vout": [
                {
                    "value": 0.00000000,
                    "n": 0,
                    "scriptPubKey": {
                        "asm": "",
                        "hex": "",
                        "type": "nonstandard"
                    }
                },
                {
                    "value": 186.76183557,
                    "n": 1,
                    "scriptPubKey": {
                        "asm": "02bdb95d89f07e3a29305f3c8de86ec211ed77b7e15cf314c85c532a6b71c2ce07 OP_CHECKSIG",
                        "hex": "2102bdb95d89f07e3a29305f3c8de86ec211ed77b7e15cf314c85c532a6b71c2ce07ac",
                        "reqSigs": 1,
                        "type": "pubkey",
                        "addresses": [
                            "Dm485bNJaiGJmEVth2BnZ4Y1ygcufDsi4E"
                        ]
                    }
                }
            ]
        }
    }
}
