{
    "blockHeight": 430894,
    "blockHash": "ca642b4cebd715d7448066e72d9c1c9f7cc17a7c7275ce5732357f9ede6199c7",
    "blockTime": 1564178016,
    "blockTxs": [
        "c206fc61c6957c54f365e7416d57a7cb314674b64aa84443ffa9b6d196aca9d9",
        "877557968ae65d64e99d09170cd9548e8a309508596355cc264758ce8c483b4b"
    ],
    "txDetails": {
        "877557968ae65d64e99d09170cd9548e8a309508596355cc264758ce8c483b4b": {
            "hex": "010000000175d0b5235b4786be686a50f04382c3e401a1e8aa1ba17e7c959a58ddd39efeaa010000006b483045022100e552531d4be4290438edc7e8c5d1e2b5548c1a76cd396dfa9423b0e55abb0c6a02203efc3f76133de9161ba787c5fd9ef4cffbfd0745cfea8cf3a3f6dd3bce9293d0012103961c8f7574f64a61087adf3057f394be8bdc33b7a8abcbc60a71f7477dbd52a1ffffffff03000000000000000000009bb81da10100001976a9143ae7ad31dc26934c71e61bbb3248fb509a5f5d5988ac009ca6920c0000001976a9140d570e6e31e046f05b26f8bd8b14adbc2e76f99988ac00000000",
            "txid": "877557968ae65d64e99d09170cd9548e8a309508596355cc264758ce8c483b4b",
            "blocktime": 1564178016,
            "time": 1564178016,
            "locktime": 0,
            "version": 1,
            "vin": [
                {
                    "txid": "aafe9ed3dd589a957c7ea11baae8a101e4c38243f0506a68be86475b23b5d075",
                    "vout": 1,
                    "sequence": 4294967295,
                    "scriptSig": {
                        "hex": "483045022100e552531d4be4290438edc7e8c5d1e2b5548c1a76cd396dfa9423b0e55abb0c6a02203efc3f76133de9161ba787c5fd9ef4cffbfd0745cfea8cf3a3f6dd3bce9293d0012103961c8f7574f64a61087adf3057f394be8bdc33b7a8abcbc60a71f7477dbd52a1"
                    }
                }
            ],
            "vout": [
                {
                    "value": 0,
                    "n": 0,
                    "scriptPubKey": {
                        "type": "nonstandard"
                    }
                },
                {
                    "value": 17915,
                    "n": 1,
                    "scriptPubKey": {
                        "hex": "76a9143ae7ad31dc26934c71e61bbb3248fb509a5f5d5988ac"
                    }
                },
                {
                    "value": 540,
                    "n": 2,
                    "scriptPubKey": {
                        "hex": "76a9140d570e6e31e046f05b26f8bd8b14adbc2e76f99988ac"
                    }
                }
            ]
        }
    }
}
