{
    "blockHeight": 1000026,
    "blockHash": "1d817bb9494aae8937c7b2ee7328eed4518b91cfd5bb4308b14516530ea8c30b",
    "blockTime": 1495656473,
    "blockTxs": [
        "6a86882d6732cef2c2b87286cdfea028f57f8e46a444bc0745e4b7c758b8a987",
        "0c51e442d35946bf0e10ef321c5b2492bbe2c5e218a7e6fafaceb09496c3965f",
        "909c00caac5cb72df3bc3c198d6bb0d897f102834ea8621a6329bf5983fc22c5",
        "05d64a16beaf6604281efa28ee5449df8a58ad5a18528440ee89b9c28d062388",
        "9f6c0c98b3d61454e40d26746531e8278d55c0e19628bdc2829ceb3655719a39",
        "51d503e96dd4292a168f9b3958106ed5122f3d28aac279cfc14f05b720569a74",
        "135af3d89384d2e97aada23fcb53995642ded2afc52347cea15bbec1f1c2e39c",
        "c88637b70b11f3d7750bdc7cc30e446c0e7b4c595891a103083e3ff0da2a1f4c"
    ],
    "txDetails": {
        "0c51e442d35946bf0e10ef321c5b2492bbe2c5e218a7e6fafaceb09496c3965f": {
            "hex": "0100000002f2abad3753e2e52be2de82f9c2b7e899237eee901f66c5dec22fbc16ef1cde2d010000006b483045022100fbee8b46d376d7cad5d6240a56cc9fc58a9bf6fba812abb3a6006fde1899bb750220386f11ff554966362a78a75cd56bf1708d2156f490384893300307cffefdad51012102991a76081c2513ba269f98c84ffa3d94d1a923858b4fe27f888e8cc8640fef03fffffffffdf846e9f59b30ebbd61fcdba290871611af468a61d663c0d89ad33cadae0acc010000006b483045022100bc9f869763ce4b16cb819a752f29a40e44b52230304a85550010f22b6b9a1aeb022032af127c7133257897c9c999a36bd1751870fca970e92c15163addd2679eb4d0012102991a76081c2513ba269f98c84ffa3d94d1a923858b4fe27f888e8cc8640fef03ffffffff0200d6117e030000001976a91477d527b839af5b9d2126de7df15908613d68b31188ac00275c0b120000001976a914a4cbacf5e85425abfaf2338b068351236e69807f88ac00000000",
            "txid": "0c51e442d35946bf0e10ef321c5b2492bbe2c5e218a7e6fafaceb09496c3965f",
            "blocktime": 1495656473,
            "time": 1495656473,
            "locktime": 0,
            "version": 1,
            "vin": [
                {
                    "txid": "2dde1cef16bc2fc2dec5661f90ee7e2399e8b7c2f982dee22be5e25337adabf2",
                    "vout": 1,
                    "scriptSig": {
                        "hex": "483045022100fbee8b46d376d7cad5d6240a56cc9fc58a9bf6fba812abb3a6006fde1899bb750220386f11ff554966362a78a75cd56bf1708d2156f490384893300307cffefdad51012102991a76081c2513ba269f98c84ffa3d94d1a923858b4fe27f888e8cc8640fef03"
                    },
                    "sequence": 4294967295
                },
                {
                    "txid": "cc0aaead3cd39ad8c063d6618a46af11168790a2dbfc61bdeb309bf5e946f8fd",
                    "vout": 1,
                    "scriptSig": {
                        "hex": "483045022100bc9f869763ce4b16cb819a752f29a40e44b52230304a85550010f22b6b9a1aeb022032af127c7133257897c9c999a36bd1751870fca970e92c15163addd2679eb4d0012102991a76081c2513ba269f98c84ffa3d94d1a923858b4fe27f888e8cc8640fef03"
                    },
                    "sequence": 4294967295
                }
            ],
            "vout": [
                {
                    "value": 150.00000000,
                    "n": 0,
                    "scriptPubKey": {
                        "hex": "76a91477d527b839af5b9d2126de7df15908613d68b31188ac"
                    }
                },
                {
                    "value": 775.00000000,
                    "n": 1,
                    "scriptPubKey": {
                        "hex": "76a914a4cbacf5e85425abfaf2338b068351236e69807f88ac"
                    }
                }
            ]
        }
    }
}