{
  "blockHeight": 2000002,
  "blockHash": "6db0b6fc543cacbc4244f5fab23af56792a87eacc3149957a1922fd59d4d03e0",
  "blockTime": 1512601001,
  "blockTxs": [
    "cc3c92a9da8e28f18faf17efe74e96f541f03e3a300c55fef0c4dbc9e5b14c01",
    "cb3cb43e34385556c9617699687b15f3dbad57cb0e8548114b66c55512c51a52",
    "f6be02faa646a1ad764e4eb49fb6f02cbae69e5bc396a8977e59c7d887aa38b2",
    "79883da5f57c942feb922e4bb635af631219aae2e70037459b07840945d6466c",
    "23b5caddcb3c1222a0b97ff6f67185266b982465ef1a3546c7fc6ad8414ba7d0",
    "82cf9f6822362ecfc0d47cc6b7372862ef0fdd14b259c42c8f2def8589f266f0",
    "12a4e4daa6e3b842a2395c315f296f284ac2085e2f2fb4f356f94e08117963ba",
    "cc136353be3db35e051e5dd34ff29f9cfe47a7b3f6ab7383fd644bc00ab1e348",
    "f2db6749bc5f7e727f9e6c9a5553ad44dc59d9994dcadc24a57cf6042d1d07e7"
  ],
  "txDetails": {
    "f6be02faa646a1ad764e4eb49fb6f02cbae69e5bc396a8977e59c7d887aa38b2": {
      "hex": "0100000002361742ebea8bdce921359dbe528b23cc8050dc86950fd07011a74258cd0215dde5030000db00483045022100885238254408979e8f44c087c06333376980a73594c4d51c8cdf457934514e34022026287952d554f9f9f24c0a47096cce0db53547099aa700a91fa9046eb5c4960801483045022100a4ce7700bdf654dfe2a4fc5796bd3466be6af3691dc263821d4c71f91f9d9d1e02200b988bea6bf9e7d44e9a4b8cee9e390c72d284e3df1aacf6ab23368560b3e53e0147522102a39a18546545ee2944481953c25b3a5f4942cd8ed533ae2daabb4339c68c599b210349ed7f7284feff2b9d0b3493fde313afcc63b41347592c435f5408852c9ea05d52aeffffffff85f2900e642720043fae056075b48ea83cbd3653797c40fb4e7e512938dcda7573020000da004730440220138a8dd272f3081e54b172fb3e6cf43fe5375369d7e93c310ceba852c22ba16f022050de068f932f6d6db9889a8d4e489ffeda2ed1848cd2a71a06d635e6d1799b8e01483045022100af99d412c97062219ef56c3c8ad99023feab94042d310f792392940c61df9bdd02200b4542395624412260c96c46427509c2b801df33e15da08c6c505594c7c142010147522102a39a18546545ee2944481953c25b3a5f4942cd8ed533ae2daabb4339c68c599b210349ed7f7284feff2b9d0b3493fde313afcc63b41347592c435f5408852c9ea05d52aeffffffff01c0ebf7b90100000017a9147541523df4d0d0875c024e1906b0d195abaf20958700000000",
      "txid": "f6be02faa646a1ad764e4eb49fb6f02cbae69e5bc396a8977e59c7d887aa38b2",
      "blocktime": 1512601001,
      "time": 1512601001,
      "locktime": 0,
      "version": 1,
      "vsize": 561,
      "vin": [
        {
          "txid": "dd1502cd5842a71170d00f9586dc5080cc238b52be9d3521e9dc8beaeb421736",
          "vout": 997,
          "scriptSig": {
            "hex": "00483045022100885238254408979e8f44c087c06333376980a73594c4d51c8cdf457934514e34022026287952d554f9f9f24c0a47096cce0db53547099aa700a91fa9046eb5c4960801483045022100a4ce7700bdf654dfe2a4fc5796bd3466be6af3691dc263821d4c71f91f9d9d1e02200b988bea6bf9e7d44e9a4b8cee9e390c72d284e3df1aacf6ab23368560b3e53e0147522102a39a18546545ee2944481953c25b3a5f4942cd8ed533ae2daabb4339c68c599b210349ed7f7284feff2b9d0b3493fde313afcc63b41347592c435f5408852c9ea05d52ae"
          },
          "sequence": 4294967295
        },
        {
          "txid": "75dadc3829517e4efb407c795336bd3ca88eb4756005ae3f042027640e90f285",
          "vout": 627,
          "scriptSig": {
            "hex": "004730440220138a8dd272f3081e54b172fb3e6cf43fe5375369d7e93c310ceba852c22ba16f022050de068f932f6d6db9889a8d4e489ffeda2ed1848cd2a71a06d635e6d1799b8e01483045022100af99d412c97062219ef56c3c8ad99023feab94042d310f792392940c61df9bdd02200b4542395624412260c96c46427509c2b801df33e15da08c6c505594c7c142010147522102a39a18546545ee2944481953c25b3a5f4942cd8ed533ae2daabb4339c68c599b210349ed7f7284feff2b9d0b3493fde313afcc63b41347592c435f5408852c9ea05d52ae"
          },
          "sequence": 4294967295
        }
      ],
      "vout": [
        {
          "value": 74.15,
          "n": 0,
          "scriptPubKey": {
            "hex": "a9147541523df4d0d0875c024e1906b0d195abaf209587"
          }
        }
      ]
    }
  }
}
