{
    "blockHeight": 723621,
    "blockHash": "0000000000000000016ee40672952698db9a72054014077e8065d0ed3843be38",
    "blockTime": 1643027028,
    "blockTxs": [
        "79a716de966042dedb1294e662c4340fcc121f31fc67d4f37734b6838f7309c4",
        "1568e2fcf08ad3eaa0a004f2cb8ca2456ea4c624652843a04f727d984c1c5ea6",
        "6ddcf32bdc26f12200a3cc41d9d660bf0afc39ee3f1c94706e202373bcd782d6",
        "9057bdf099646b3f28498dd33302a28db5c3556e80593d506f45dfa240206c4b",
        "d19abd0ea6b2dfa745c1a194d87b0d621f3d55aa7e1bc53d9d2d7fe44f0e1226",
        "d864b206afccff0a37ce6a1bb697a6c6217c537760b291d832ad526a7d94b270",
        "ff7cdcf1f3bd5bf7551133309cc466d32caa0cb11860e2ffea5bee8372240b9f"
    ],
    "txDetails": {
        "d864b206afccff0a37ce6a1bb697a6c6217c537760b291d832ad526a7d94b270": {
            "hex": "0200000001e37114f0c54cb6c6eac13140f38f356784082a289812540e8dc2d5fa81321bbf010000006a473044022064d48cd0549b3c64e4fe012b2a6303856ba44a711c4aa39fd991e071b1e9e46c0220485fde649603a0e1f963d106aa6a34bd2a96756397cee5475ff451385f17f1f441210244810e359356866bfd28729dcc252314f760d6b46c5b430a0f47d805fab44507ffffffff023447de31010000001976a9146e233ca966c8616981bb556999ebe48c39e742a988acb838740f040000001976a914e330f03a2bf6afc5a0e5819f28fde1671d017e8a88ac00000000",
            "txid": "d864b206afccff0a37ce6a1bb697a6c6217c537760b291d832ad526a7d94b270",
            "blocktime":1643027028,
            "time":1643027028,
            "locktime": 0,
            "version": 2,
            "vin": [
                {
                    "txid": "bf1b3281fad5c28d0e541298282a088467358ff34031c1eac6b64cc5f01471e3",
                    "vout": 1,
                    "sequence": 4294967295,
                    "scriptSig": {
                        "hex": "473044022064d48cd0549b3c64e4fe012b2a6303856ba44a711c4aa39fd991e071b1e9e46c0220485fde649603a0e1f963d106aa6a34bd2a96756397cee5475ff451385f17f1f441210244810e359356866bfd28729dcc252314f760d6b46c5b430a0f47d805fab44507"
                    }
                }
            ],
            "vout": [
                {
                    "value": 51316181,
                    "n": 0,
                    "scriptPubKey": {
                        "hex": "76a9146e233ca966c8616981bb556999ebe48c39e742a988ac"
                    }
                },
                {
                    "value": 174391441.2,
                    "n": 1,
                    "scriptPubKey": {
                        "hex": "76a914e330f03a2bf6afc5a0e5819f28fde1671d017e8a88ac"
                    }
                }
            ]
        },
        "ff7cdcf1f3bd5bf7551133309cc466d32caa0cb11860e2ffea5bee8372240b9f": {
            "hex": "020000000234a3e9790ac787d2c7276a8e952f25ef76e8c048a56a8effc804363c7708e2e7000000006a4730440220305bcd24adaa24843558fbaed56db3c64d3afab6be533ce92736dcc606de7ade022067f1469cdf17395d2cc30e98b5cc9d448c803ae3d4c121eacefca5698eec5fe5412103398deb450f13c10234d6c5b74d2cdf8dc7c3ce46731815cba3d845facf44e037feffffff67260c8e7f40362980cf491831c0a1753cc263cf9bdad1f689eb2570be592106010000006a47304402203ae38828d2568f1fecd1f2b19e4220e318d0e70c48bf0282538628a4ddea8bdc02200358499ce2e077ae699ecf4fd91bf5878774d1f935eac730d55a19921847e874412103fc530a380acfed725bec8ebc2c686104f0be4e5ba0e64bc8d78bd57580ea3fa8feffffff02a8391400000000001976a914fd14b9272106691a47b8a9c0b661355ffd3f4eaa88acab2a070f000000001976a9145994e1c4b207d0503525e943702ffd820b332f5288aca40a0b00",
            "txid": "ff7cdcf1f3bd5bf7551133309cc466d32caa0cb11860e2ffea5bee8372240b9f",
            "blocktime":1643027028,
            "time":1643027028,
            "locktime": 723620,
            "version": 2,
            "vin": [
                {
                    "txid": "e7e208773c3604c8ff8e6aa548c0e876ef252f958e6a27c7d287c70a79e9a334",
                    "vout": 0,
                    "sequence": 4294967294,
                    "scriptSig": {
                        "hex": "4730440220305bcd24adaa24843558fbaed56db3c64d3afab6be533ce92736dcc606de7ade022067f1469cdf17395d2cc30e98b5cc9d448c803ae3d4c121eacefca5698eec5fe5412103398deb450f13c10234d6c5b74d2cdf8dc7c3ce46731815cba3d845facf44e037"
                    }
                },
                {
                    "txid": "062159be7025eb89f6d1da9bcf63c23c75a1c0311849cf802936407f8e0c2667",
                    "vout": 1,
                    "sequence": 4294967294,
                    "scriptSig": {
                        "hex": "47304402203ae38828d2568f1fecd1f2b19e4220e318d0e70c48bf0282538628a4ddea8bdc02200358499ce2e077ae699ecf4fd91bf5878774d1f935eac730d55a19921847e874412103fc530a380acfed725bec8ebc2c686104f0be4e5ba0e64bc8d78bd57580ea3fa8"
                    }
                }
            ],
            "vout": [
                {
                    "value": 13254.8,
                    "n": 0,
                    "scriptPubKey": {
                        "hex": "76a914fd14b9272106691a47b8a9c0b661355ffd3f4eaa88ac"
                    }
                },
                {
                    "value": 2521279.15,
                    "n": 1,
                    "scriptPubKey": {
                        "hex": "76a9145994e1c4b207d0503525e943702ffd820b332f5288ac"
                    }
                }
            ]
        }
    }
}
