{
  "blockHash": "02a020f2615c46baab621129cc48ba224cb603e18d54f786d247eb41d98e9635",
  "blockHeight": 4232070,
  "blockTime": 1656489414,
  "blockTxs": [
    "e79b5f89d8bc061ec1be0c4e1981d300c28a71308f0fd6982db8f328e80d3b73"
  ],
  "txDetails": {
    "e79b5f89d8bc061ec1be0c4e1981d300c28a71308f0fd6982db8f328e80d3b73": {
      "txid": "e79b5f89d8bc061ec1be0c4e1981d300c28a71308f0fd6982db8f328e80d3b73",
      "version": 2,
      "vin": [
        {
          "coinbase": "0386934004c605bc62088100036e2b0000007969696d7000",
          "sequence": 0
        }
      ],
      "vout": [
        {
          "value": 20.00000000,
          "n": 0,
          "scriptPubKey": {
            "hex": "a914eb95c76c2190549975875f40819b5b5d8a97da8a87"
          }
        }
      ],
      "hex": "02000000010000000000000000000000000000000000000000000000000000000000000000ffffffff180386934004c605bc62088100036e2b0000007969696d70000000000001009435770000000017a914eb95c76c2190549975875f40819b5b5d8a97da8a8700000000",
      "time": 1656489414,
      "blocktime": 1656489414
    }
  }
}
