{
    "blockHeight": 126311,
    "blockHash": "4857051323dd6a10bc1c92facb00e7c8258adc9b8b680d0bcdd19034a777d72d",
    "blockTime": 1547120622,
    "blockTxs": [
        "5ee3ba91195adc9a22e61a570b168052764584305000450d04355ebcb9cc4be8",
        "2f831477d523ea717caf9a9520dd848b8fe932540207037fabf100a56d466e91",
        "347d7c8c1d77f2f835641be27d97900f88be71646bdaa14ffb11b37aaac72f79"
    ],
    "txDetails": {
        "2f831477d523ea717caf9a9520dd848b8fe932540207037fabf100a56d466e91": {
            "hex": "010000000106be6afc693eb158fa010f751c347982851108ea316d0685109caaa8ec4580c2000000006a473044022048dcdd1121148ecf495df74f563384d91db0635dae3c608666511ef8f24adc19022004af5384be1bce1531d0bf8498a8bfb150f797e63e348ca3865f0322203384aa012102d79d7e7f40e091517465c50ed3f5345c7b9a4611a98103ee1ca1f8e66686ad9fffffffff02e04d6cb3160000001976a914b923050a6542d70d6eb6546ba3275a2b6ea0eda588ac06d8c849000000001976a914c353c188620cb33a72d218c0d67fb3f92ad1b6b088ac00000000",
            "txid": "2f831477d523ea717caf9a9520dd848b8fe932540207037fabf100a56d466e91",
            "blocktime": 1547120622,
            "time": 1547120622,
            "locktime": 0,
            "version": 1,
            "vin": [
                {
                    "txid": "c28045eca8aa9c1085066d31ea0811858279341c750f01fa58b13e69fc6abe06",
                    "vout": 0,
                    "sequence": 4294967295,
                    "scriptSig": {
                        "hex": "473044022048dcdd1121148ecf495df74f563384d91db0635dae3c608666511ef8f24adc19022004af5384be1bce1531d0bf8498a8bfb150f797e63e348ca3865f0322203384aa012102d79d7e7f40e091517465c50ed3f5345c7b9a4611a98103ee1ca1f8e66686ad9f"
                    }
                }
            ],
            "vout": [
                {
                    "value": 974.99500000,
                    "n": 0,
                    "scriptPubKey": {
                        "hex": "76a914b923050a6542d70d6eb6546ba3275a2b6ea0eda588ac"
                    }
                },
                {
                    "value": 12.37899270,
                    "n": 1,
                    "scriptPubKey": {
                        "hex": "76a914c353c188620cb33a72d218c0d67fb3f92ad1b6b088ac"
                    }
                }
            ]
        },
        "347d7c8c1d77f2f835641be27d97900f88be71646bdaa14ffb11b37aaac72f79": {
            "hex": "0100000004bc566f299c27644851e70f8646f2ed642985897f488090f5bd5b152d891388a9000000006b483045022100cd5ca45783f836db65a47ba568f97f890155c27ccf0769c1edf231bf6bf49f9b022021d8493fae950bced2c417ce6c4a62aaad495c4d8675e4a4a3e9d86ab44f4b29012102d91223be36388a51cef618ec34c2a1d95f85b6d85d0e07e9e963d84893b5cc4dfefffffff117437f28af1665a002c8351e903de10bd40ab73d54932bbaae28caa6f49a42640000006b483045022100962a7c4b0a96b25fa418f92a69e9f37c5517740d50e996a92724f064bfadcf75022073f1c0475215bef70de392273360655a0b0d4f1f8afd3917614a5dfd1ddd1ca1012103bbfb869bf408cfdc237c63c1dcec226faf56cc141c42ef6bb8ef4d156df669eafeffffff0dd680cce849762fa7f3f117a1b0e3e7fb6493f2600152143502aa59ad7ca4ed4d0000006b483045022100a6b7befee6468f01e2b3813f05b81241dd5a4c0b04d97a783940c75d97b85ba502206c0dd2fa5cc5c153d359c55f24407c97aec32bf42b2723fc40374188443bd4b2012103bbfb869bf408cfdc237c63c1dcec226faf56cc141c42ef6bb8ef4d156df669eafeffffffd7e86128b28dcf2046c33f098cfcc2b7f08ea781cc119c0944b2fb23e378135d150000006a47304402204116539acc084920a86bf837ade9d938b517dfa0d346beb969cc97505e6f21520220069a9a33f798a6c1912e29568be2cef12d4db0ea1db751054db5e2311b761854012103bbfb869bf408cfdc237c63c1dcec226faf56cc141c42ef6bb8ef4d156df669eafeffffff0229b90000000000001976a914da8378d88cd781e0a6f9fdfa6668dd47a718cf6188ac80a35d06000000001976a914707077511db03836716dc01ce47442596264fd8a88acccea0100",
            "txid": "347d7c8c1d77f2f835641be27d97900f88be71646bdaa14ffb11b37aaac72f79",
            "blocktime": 1547120622,
            "time": 1547120622,
            "locktime": 125644,
            "version": 1,
            "vin": [
                {
                    "txid": "a98813892d155bbdf59080487f89852964edf246860fe7514864279c296f56bc",
                    "vout": 0,
                    "sequence": 4294967294,
                    "scriptSig": {
                        "hex": "483045022100cd5ca45783f836db65a47ba568f97f890155c27ccf0769c1edf231bf6bf49f9b022021d8493fae950bced2c417ce6c4a62aaad495c4d8675e4a4a3e9d86ab44f4b29012102d91223be36388a51cef618ec34c2a1d95f85b6d85d0e07e9e963d84893b5cc4d"
                    }
                },
                {
                    "txid": "429af4a6ca28aeba2b93543db70ad40be13d901e35c802a06516af287f4317f1",
                    "vout": 100,
                    "sequence": 4294967294,
                    "scriptSig": {
                        "hex": "483045022100962a7c4b0a96b25fa418f92a69e9f37c5517740d50e996a92724f064bfadcf75022073f1c0475215bef70de392273360655a0b0d4f1f8afd3917614a5dfd1ddd1ca1012103bbfb869bf408cfdc237c63c1dcec226faf56cc141c42ef6bb8ef4d156df669ea"
                    }
                },
                {
                    "txid": "eda47cad59aa023514520160f29364fbe7e3b0a117f1f3a72f7649e8cc80d60d",
                    "vout": 77,
                    "sequence": 4294967294,
                    "scriptSig": {
                        "hex": "483045022100a6b7befee6468f01e2b3813f05b81241dd5a4c0b04d97a783940c75d97b85ba502206c0dd2fa5cc5c153d359c55f24407c97aec32bf42b2723fc40374188443bd4b2012103bbfb869bf408cfdc237c63c1dcec226faf56cc141c42ef6bb8ef4d156df669ea"
                    }
                },
                {
                    "txid": "5d1378e323fbb244099c11cc81a78ef0b7c2fc8c093fc34620cf8db22861e8d7",
                    "vout": 21,
                    "sequence": 4294967294,
                    "scriptSig": {
                        "hex": "47304402204116539acc084920a86bf837ade9d938b517dfa0d346beb969cc97505e6f21520220069a9a33f798a6c1912e29568be2cef12d4db0ea1db751054db5e2311b761854012103bbfb869bf408cfdc237c63c1dcec226faf56cc141c42ef6bb8ef4d156df669ea"
                    }
                 }
            ],
            "vout": [
                {
                    "value": 0.00047401,
                    "n": 0,
                    "scriptPubKey": {
                        "hex": "76a914da8378d88cd781e0a6f9fdfa6668dd47a718cf6188ac"
                    }
                },
                {
                    "value": 1.06800000,
                    "n": 1,
                    "scriptPubKey": {
                        "hex": "76a914707077511db03836716dc01ce47442596264fd8a88ac"
                    }
                }
            ]
        }
    }
}
