{
    "blockHeight": 2356068,
    "blockHash": "e6fdbcc2fe720aa54eecc8a2df8e50f9f2be21927fee87375a1d38bcb537c4ce",
    "blockTime": 1546286958,    
    "blockTxs": [
        "2ebd98c5debc1e403c87966e00db42590b6bedaeb6b2fd640b942ad18032ce62",
        "88e23fb129d2b7566702396a6b35696ed445d5fe8ab3a526901bf2efe107a46c",
        "7367db1a3073146f0b6060ce4a6dbb96b67b7aadcbaa450bff8d7dedda52ec13"
    ],
    "txDetails": {
        "7367db1a3073146f0b6060ce4a6dbb96b67b7aadcbaa450bff8d7dedda52ec13": {
            "hex": "0100000001ec5666d4e842926c6e872fd7f12a87183b298464716dec1b03fc956777e06a70010000006a473044022062949ffe184af6bdc8d77e07c2caf1bd4e36d977bc27e24ab6d24c9e735d76b802201f42950f6fa005126f1fbd5cb9d6f0838d94adb70a05517b3eebd144a0ec2fd6012102534f95a0a13bbc3e261f966edd057a1dc9819a4e6bb21d81a633d5500d184a7bfeffffff0200e876481700000017a9146b8a69f8b43bc06b886c0668c93197be5152e8598740494d552e0000001976a914df783f980b38d7a64cee23202af95609b547fde888ac62f32300",
            "txid": "7367db1a3073146f0b6060ce4a6dbb96b67b7aadcbaa450bff8d7dedda52ec13",
            "blocktime": 1546286958,
            "time": 1546286958,
            "locktime": 2356066,
            "version": 1,
            "vin": [
                {
                    "txid": "706ae0776795fc031bec6d716484293b18872af1d72f876e6c9242e8d46656ec",
                    "vout": 1,
                    "scriptSig": {
                        "hex": "473044022062949ffe184af6bdc8d77e07c2caf1bd4e36d977bc27e24ab6d24c9e735d76b802201f42950f6fa005126f1fbd5cb9d6f0838d94adb70a05517b3eebd144a0ec2fd6012102534f95a0a13bbc3e261f966edd057a1dc9819a4e6bb21d81a633d5500d184a7b"
                    },
                    "sequence": 4294967294
                }
            ],
            "vout": [
                {
                    "value": 1000.00000000,
                    "n": 0,
                    "scriptPubKey": {
                        "hex": "a9146b8a69f8b43bc06b886c0668c93197be5152e85987"
                    }
                },
                {
                    "value": 1989.99624000,
                    "n": 1,
                    "scriptPubKey": {
                        "hex": "76a914df783f980b38d7a64cee23202af95609b547fde888ac"
                    }
                }
            ]
        }
    }
}