{
    "blockHeight": 6048,
    "blockHash": "000000000042094e5284ae4f5d7fdb10c44ab0efe6a52cad194d4555156428bb",
    "blockTime": 1511900194,
    "blockTxs": [
        "eb2a7568acce7ccb7bbaca73dd69b3c2be96c093e1ee1167432b2d0553db9705",
        "2a771edce522e87ba092ba1be99fbc3a6cf632d81e6a4f5f7b1b6fa3ee21678d"
    ],
    "txDetails": {
      "eb2a7568acce7ccb7bbaca73dd69b3c2be96c093e1ee1167432b2d0553db9705": {
          "hex": "02000000010000000000000000000000000000000000000000000000000000000000000000ffffffff1e02a0170422c41d5a0881004cd9df000000416c744d696e65722e4e65740000000000021c26b42c000000001976a9141c333960eff1c1104be135e792d5540d0f21300e88ac1c26b42c000000001976a9144e789acae87934eecd346718aca849b0d8408f6d88ac00000000",
          "txid": "eb2a7568acce7ccb7bbaca73dd69b3c2be96c093e1ee1167432b2d0553db9705",
          "blocktime": 1511900194,
          "time": 1511900194,
          "locktime": 0,
          "version": 2,
          "vin": [
              {
                  "coinbase": "02a0170422c41d5a0881004cd9df000000416c744d696e65722e4e657400",
                  "sequence": 0
              }
          ],
          "vout": [
              {
                  "value": 7.5000374,
                  "n": 0,
                  "scriptPubKey": {
                      "hex": "76a9141c333960eff1c1104be135e792d5540d0f21300e88ac"
                  }
              },
              {
                "value": 7.5000374,
                "n": 1,
                "scriptPubKey": {
                    "hex": "76a9144e789acae87934eecd346718aca849b0d8408f6d88ac"
                }
              }
          ]
      },
        "2a771edce522e87ba092ba1be99fbc3a6cf632d81e6a4f5f7b1b6fa3ee21678d": {
            "hex": "010000000212090fe76fb3cae2b2fb936b8b1a70ccfedd46f31b80495bbbda1d7eb17dbfd1010000006a47304402203ac014d7dafe66bb8cf470bf9f530189ec4fb86ea3d9467f8ae99508617b3d6102201b7499bfc18c009b1db57bd5c0d0e5f63cbcbff3756ed8c9a97b0b97280a5457012102ccbd4b6fa9db926815bf46dd4c6c5e795b21db731feab377637bdc7542c0678ffeffffffcfac206a2b8805d9c4a5d08e28093862d43191e59b8001aad7928eb9e23ac6a1010000006b4830450221009e13a84c080f8157ed1befeba908266be0bc5689d229485e77f66962ebf601dc022012cf957fe5458e17d15fce3b5ca9710c73135295049eecdd804d3a63d3530c49012102ccbd4b6fa9db926815bf46dd4c6c5e795b21db731feab377637bdc7542c0678ffeffffff01c8116859000000001976a9144904f952d8c269d3a35815e8b26466d3d916bf8688ac9f170000",
            "txid": "2a771edce522e87ba092ba1be99fbc3a6cf632d81e6a4f5f7b1b6fa3ee21678d",
            "blocktime": 1511900194,
            "time": 1511900194,
            "locktime": 6047,
            "version": 1,
            "vin": [
                {
                    "txid": "d1bf7db17e1ddabb5b49801bf346ddfecc701a8b6b93fbb2e2cab36fe70f0912",
                    "vout": 1,
                    "sequence": 4294967294,
                    "scriptSig": {
                        "hex": "47304402203ac014d7dafe66bb8cf470bf9f530189ec4fb86ea3d9467f8ae99508617b3d6102201b7499bfc18c009b1db57bd5c0d0e5f63cbcbff3756ed8c9a97b0b97280a5457012102ccbd4b6fa9db926815bf46dd4c6c5e795b21db731feab377637bdc7542c0678f"
                    }
                },
                {
                    "txid": "a1c63ae2b98e92d7aa01809be59131d4623809288ed0a5c4d905882b6a20accf",
                    "vout": 1,
                    "sequence": 4294967294,
                    "scriptSig": {
                        "hex": "4830450221009e13a84c080f8157ed1befeba908266be0bc5689d229485e77f66962ebf601dc022012cf957fe5458e17d15fce3b5ca9710c73135295049eecdd804d3a63d3530c49012102ccbd4b6fa9db926815bf46dd4c6c5e795b21db731feab377637bdc7542c0678f"
                    }
                }
            ],
            "vout": [
                {
                    "value": 14.9999252,
                    "n": 0,
                    "scriptPubKey": {
                        "hex": "76a9144904f952d8c269d3a35815e8b26466d3d916bf8688ac"
                    }
                }
            ]
        }
    }
}
