{
	"blockHeight": 2294439,
	"blockHash": "0000000000003e6b31abe139b028a97f4fe4dea10fd52a04c404cc85b4d7f773",
	"blockTime": 1539462668,
	"blockTxs": [
		"986e0848c7e0b438ad3816875ed6dc867393897a0e893e6006efefec0197f90d",
		"dce355dd367e757ead8bbf4480d96885108d9f248d1e74e493ff4693f97cc11c",
		"4b5f5892a385f75bcd8c5584cea2765f25976b38c450e98bc6d22e342f805ae1",
		"dfa2ae8837705ee9c5b05ffc652d54dc1b5d38dd836d8b30c5b16c655db8a75b",
		"0b41b9325d3366a3bba0bf2cf76218ea23ec74aca19c0ce37dc55b5cbcaa8b84",
		"91a2a72dacf0774c7d4f37e0c9b011a3f747518c20ea6f44ee47d8d35aed4f1a",
		"f13366400b6ee643f48aa40592382dbf3085c3e31f42e0283b0efd970533c55d",
		"062f4f5eab8ef188922c197b8becf94ab292f6f1efff57173617b27380a55616"
	],
	"txDetails": {
		"4b5f5892a385f75bcd8c5584cea2765f25976b38c450e98bc6d22e342f805ae1": {
			"hex": "020000000001011cc17cf99346ff93e4741e8d249f8d108568d98044bf8bad7e757e36dd55e3dc01000000171600142e9f7a9a16b2fcb817752f1f44c7518c83886cdefeffffff02fa76e3e50200000017a914b996e79692d2212707e59235f0a00f2f951c1ba487004d4466170000001976a914fcad3abf614562d224c6cc8b0e00d2fa9016404388ac0247304402206794af78bbfc6f39fa86788bdaff9959af9b519af133e696e2b1226a3df2c0830220254855ae4270af92a6add130efe41222cf150033f5a55225308cd0a39b7b73ee01210352b1a67fef7a34042ff4ed75cd375f22d2f5ea24353d3e6be363f967d9deb612a6022300",
			"txid": "4b5f5892a385f75bcd8c5584cea2765f25976b38c450e98bc6d22e342f805ae1",
			"blocktime": 1539462668,
			"time": 1539462668,
			"locktime": 2294438,
			"version": 2,
			"vin": [
				{
					"txid": "dce355dd367e757ead8bbf4480d96885108d9f248d1e74e493ff4693f97cc11c",
					"vout": 1,
					"scriptSig": {
						"hex": "1600142e9f7a9a16b2fcb817752f1f44c7518c83886cde"
					},
					"sequence": 4294967294
				}
			],
			"vout": [
				{
					"value": 124.46824186,
					"n": 0,
					"scriptPubKey": {
						"hex": "a914b996e79692d2212707e59235f0a00f2f951c1ba487",
						"addresses": [
							"3JcKi541GubsiCdpdZqvsSy3rfA6R11tg7"
						]
					}
				},
				{
					"value": 1005.00000000,
					"n": 1,
					"scriptPubKey": {
						"hex": "76a914fcad3abf614562d224c6cc8b0e00d2fa9016404388ac",
						"addresses": [
							"FtCkFSrwrgiJzjQzGRZvjHzrmHp4HJeGYm"
						]
					}
				}
			]
		}
	}
}
