{
  "blockHeight": 340756,
  "blockHash": "40c7c0bf84e8e6c0ed1ad92bc97d1b08d2da2a24dbc1912508a451e1dbf1b84f",
  "blockTime": 1649384064,
  "blockTxs": [
    "e3d3524e7831f5c0677c79ca76d28d2d702479fb67c92a993fec402813857a10",
    "7403edf97d01490d4e94f60344c43952cec08dcc53ee74127971c236a24983c3"
  ],
  "txDetails": {
    "e3d3524e7831f5c0677c79ca76d28d2d702479fb67c92a993fec402813857a10": {
      "hex": "020000000001010000000000000000000000000000000000000000000000000000000000000000ffffffff050314330500ffffffff020000000000000000000000000000000000266a24aa21a9ed598bdca4eab6001d5753ba33e9a50b1986649f4b477948b5f761decd6b742b4e0120000000000000000000000000000000000000000000000000000000000000000000000000",
      "txid": "e3d3524e7831f5c0677c79ca76d28d2d702479fb67c92a993fec402813857a10",
      "blocktime": 1649384064,
      "time": 1649384064,
      "locktime": 0,
      "version": 2,
      "vin": [
        {
          "coinbase": "0314330500",
          "sequence": 4294967295
        }
      ],
      "vout": [
        {
          "value": 0,
          "n": 0,
          "scriptPubKey": {
            "hex": "",
            "type": "nonstandard"
          }
        },
        {
          "value": 0,
          "n": 1,
          "scriptPubKey": {
            "hex": "6a24aa21a9ed598bdca4eab6001d5753ba33e9a50b1986649f4b477948b5f761decd6b742b4e"
          }
        }
      ]
    },
    "7403edf97d01490d4e94f60344c43952cec08dcc53ee74127971c236a24983c3": {
      "hex": "0200000001dc04621fb40be2823e9e3be355362ee8b8a703f8fac511adeea9c2b62a055517020000004847304402202fe07dc28ab5cd9ac8117f9bcc1e77b10a5cfe461f642057ecf07ddd2e9ce938022063a2523be3bb96dc8c8231a466a375e82bd0dfa62904bc28a2ca2ec152896b3601ffffffff03000000000000000000c0b2aec20700000023210309114bf489097c85e2c8356d8273620f95304b2a809a72f97fee44e09368ee33ac0247c6c20700000023210309114bf489097c85e2c8356d8273620f95304b2a809a72f97fee44e09368ee33ac00000000",
      "txid": "7403edf97d01490d4e94f60344c43952cec08dcc53ee74127971c236a24983c3",
      "blocktime": 1649384064,
      "time": 1649384064,
      "locktime": 0,
      "version": 2,
      "vin": [
        {
          "txid": "1755052ab6c2a9eead11c5faf803a7b8e82e3655e33b9e3e82e20bb41f6204dc",
          "vout": 2,
          "scriptSig": {
            "hex": "47304402202fe07dc28ab5cd9ac8117f9bcc1e77b10a5cfe461f642057ecf07ddd2e9ce938022063a2523be3bb96dc8c8231a466a375e82bd0dfa62904bc28a2ca2ec152896b3601"
          },
          "sequence": 4294967295
        }
      ],
      "vout": [
        {
          "value": 0.00000000,
          "n": 0,
          "scriptPubKey": {
            "hex": "",
            "type": "nonstandard"
          }
        },
        {
          "value": 333.31,
          "n": 1,
          "scriptPubKey": {
            "hex": "210309114bf489097c85e2c8356d8273620f95304b2a809a72f97fee44e09368ee33ac",
            "addresses": [
              "HNfujurT3BzM4HU9rVA52fU3XMX4eu4Qf7"
            ]
          }
        },
        {
          "value": 333.32545282,
          "n": 2,
          "scriptPubKey": {
            "hex": "210309114bf489097c85e2c8356d8273620f95304b2a809a72f97fee44e09368ee33ac",
            "addresses": [
              "HNfujurT3BzM4HU9rVA52fU3XMX4eu4Qf7"
            ]
          }
        }
      ]
    }
  }
}