{
    "blockHeight": 2261437,
    "blockHash": "468cab82b6ad8782f3cf85e1bf86349ce8a1b7afe1b891783df0f429e4d82c40",
    "blockTime": 1553878112,
    "blockTxs": [
        "3daa102db7236aa25c7f4f2dc09afe0285223cbbe7a1b167011c81a013cc76a7",
        "8a2248e2ab269cd1a4cb30c1c7fca2e9bcfe94c51deed7f24466582512caf2f3",
        "768f11e50fb5137fd5605f5a43b914bb8a88f07015583ade5fedb15299aa5ab3"
    ],
    "txDetails": {
        "768f11e50fb5137fd5605f5a43b914bb8a88f07015583ade5fedb15299aa5ab3": {
            "hex": "01000000934b9e5c0148bd22bbe1f0e700121d11380b6ccba11d0b5b7b10af3241b53514a6d7c1a050000000006a4730440220744503f4c1f7dd5bc585c2b5ae93f1d8b4831ac9cc1e1a454078315eaf489f29022019c74bf3caff3d31795a5d636d94bea7c0144c650269230c01ea3fafddf6ddb301210301f27030e7b0b825e68ad924bff69ab9521115a7bf1927f9723b8893140beb0effffffff0297ad7c47060000001976a9147e6efb8717c64ceff55e0ebbc58d7efa506afaaa88ac007cdcac040000001976a914622aa5df3e1dabe518f28adbcb6ea95d626548f188ac00000000",
            "txid": "768f11e50fb5137fd5605f5a43b914bb8a88f07015583ade5fedb15299aa5ab3",
            "blocktime": 1553878112,
            "time": 1553878112,
            "locktime": 0,
            "version": 1,
            "vin": [
                {
                    "txid": "50a0c1d7a61435b54132af107b5b0b1da1cb6c0b38111d1200e7f0e1bb22bd48",
                    "vout": 0,
                    "scriptSig": {
                        "hex": "4730440220744503f4c1f7dd5bc585c2b5ae93f1d8b4831ac9cc1e1a454078315eaf489f29022019c74bf3caff3d31795a5d636d94bea7c0144c650269230c01ea3fafddf6ddb301210301f27030e7b0b825e68ad924bff69ab9521115a7bf1927f9723b8893140beb0e"
                    },
                    "sequence": 4294967295
                }
            ],
            "vout": [
                {
                    "value": 269.69157015,
                    "n": 0,
                    "scriptPubKey": {
                        "hex": "76a9147e6efb8717c64ceff55e0ebbc58d7efa506afaaa88ac"
                    }
                },
                {
                    "value": 200.8,
                    "n": 1,
                    "scriptPubKey": {
                        "hex": "76a914622aa5df3e1dabe518f28adbcb6ea95d626548f188ac"
                    }
                }
            ]
        }
    }
}
