{
    "blockHeight": 1205643,
    "blockHash": "60c80ce4f0a90f7b217bef8fab32ce2e499a4dc2067f4a6062048e3b940d76c6",
    "blockTime": 1514835214,
    "blockTxs": [
        "38b4a919ab0f8b4570e1f26717740846b7994ba22f94c51d96eb32bc45c5886e",
        "7f793aff2f74ca9cec6df08a7c0fcaa1ea301468459b46edbed693a871832298",
        "c2bdcc759c1d4e6bb3eee859cc7400bc376479e30bc8328f31864aad92d52ade",
        "8a26deeda15f1ddc3234acafb0da9829bf334ea108e359f11d8f281ae42512f8"
    ],
    "txDetails": {
        "7f793aff2f74ca9cec6df08a7c0fcaa1ea301468459b46edbed693a871832298": {
            "hex": "0200000002d9d3592e550618b41347bd992d33b9eaebe7e26eb21df49bda5372ce1711f8e5010000006b483045022100b4fb223759753d82fd5ce833e84f62904c086b51fd2be11d7e3e9f183e2442850220079f8b3d6555610ff98da3216fa117bcb49f98e610a38471d69566ce7bc5770801210362c5e60c40f0b588216310dbb2f4a46e86038ba597f33d023ad64e66ff2e972bfeffffff4f4e9b373e6cd134d2f5f45bf3645a00c2689472ad66aa37ae022eef3dd6b16a010000006a47304402203dd8510301d68bc21169f953d2996d602f8411a309c494392b6f2bf85e5d58f102206fa2db245d15021f3b556d10747cfd8eba100fd19dfa1a0a9c5cebc58d7c22f6012103c65394a4c6705e3a13f6305e7997fb68feb192acce312a8ba144994b9a33507bfeffffff02bbe52c00000000001976a914eb0f5829a547f30b3d488ab38b425c1d93afb4b888ac00f90295000000001976a914883f0723e1c93db538d02c7a8d318322e655b59888ac89651200",
            "txid": "7f793aff2f74ca9cec6df08a7c0fcaa1ea301468459b46edbed693a871832298",
            "blocktime": 1514835214,
            "time": 1514835214,
            "locktime": 1205641,
            "version": 2,
            "vin": [
                {
                    "txid": "e5f81117ce7253da9bf41db26ee2e7ebeab9332d99bd4713b41806552e59d3d9",
                    "vout": 1,
                    "scriptSig": {
                        "hex": "483045022100b4fb223759753d82fd5ce833e84f62904c086b51fd2be11d7e3e9f183e2442850220079f8b3d6555610ff98da3216fa117bcb49f98e610a38471d69566ce7bc5770801210362c5e60c40f0b588216310dbb2f4a46e86038ba597f33d023ad64e66ff2e972b"
                    },
                    "sequence": 4294967294
                },
                {
                    "txid": "6ab1d63def2e02ae37aa66ad729468c2005a64f35bf4f5d234d16c3e379b4e4f",
                    "vout": 1,
                    "scriptSig": {
                        "hex": "47304402203dd8510301d68bc21169f953d2996d602f8411a309c494392b6f2bf85e5d58f102206fa2db245d15021f3b556d10747cfd8eba100fd19dfa1a0a9c5cebc58d7c22f6012103c65394a4c6705e3a13f6305e7997fb68feb192acce312a8ba144994b9a33507b"
                    },
                    "sequence": 4294967294
                }
            ],
            "vout": [
                {
                    "value": 0.02942395,
                    "n": 0,
                    "scriptPubKey": {
                        "hex": "76a914eb0f5829a547f30b3d488ab38b425c1d93afb4b888ac"
                    }
                },
                {
                    "value": 25.00000000,
                    "n": 1,
                    "scriptPubKey": {
                        "hex": "76a914883f0723e1c93db538d02c7a8d318322e655b59888ac"
                    }
                }
            ]
        }
    }
}
