{
    "blockHeight": 447973,
    "blockHash": "c81fe0f3524938c618156449d27ede51c2c76b73e00e83cdb9b599181ca505d5",
    "blockTime": 1556541002,
    "blockTxs": [
        "062f1f851b5d350f860a2c96c98b6dac8030f84bb02df42b5608619abf6049c8",
        "72502137b0924c69400eec74deacc57e9290f32a6ba2f5559f17256c9c06a347"
    ],
    "txDetails": {
        "72502137b0924c69400eec74deacc57e9290f32a6ba2f5559f17256c9c06a347": {
            "hex": "0100000001ac2e21335c11482009e10d78ddf0378e2e778f09ec01077d3ac7747ac4f3eae5010000004847304402201de5db6155e047897ea2fed2a8cbc1d717fb8c5b1a18964cd4942c800db1a218022035a6c8aed82c582db22f4835dbd86a283c7ed3b84eaf1f68932b910dfd08d1be01ffffffff030000000000000000008e36f7c90d00000023210219e5714cbba5933a9c09bc93330efece366f61910ee1cc38b245e420063ca3f2ac00d2496b000000001976a914a1f4fccad310761f842f3cdcc41b5ca3220fd30488ac00000000",
            "txid": "72502137b0924c69400eec74deacc57e9290f32a6ba2f5559f17256c9c06a347",
            "blocktime": 1556541002,
            "time": 1556541002,
            "locktime": 0,
            "version": 1,
            "vin": [
                {
                    "txid": "e5eaf3c47a74c73a7d0701ec098f772e8e37f0dd780de1092048115c33212eac",
                    "vout": 1,
                    "scriptSig": {
                        "hex": "47304402201de5db6155e047897ea2fed2a8cbc1d717fb8c5b1a18964cd4942c800db1a218022035a6c8aed82c582db22f4835dbd86a283c7ed3b84eaf1f68932b910dfd08d1be01"
                    },
                    "sequence": 4294967295
                }
            ],
            "vout": [
                {
                    "value": 0.00000000,
                    "n": 0,
                    "scriptPubKey": {
                        "hex": ""
                    }
                },
                {
                    "value": 592.22996622,
                    "n": 1,
                    "scriptPubKey": {
                        "hex": "210219e5714cbba5933a9c09bc93330efece366f61910ee1cc38b245e420063ca3f2ac"
                    }
                },
                {
                    "value": 18,
                    "n": 2,
                    "scriptPubKey": {
                        "hex": "76a914a1f4fccad310761f842f3cdcc41b5ca3220fd30488ac"
                    }
                }
            ]
        }
    }
}
