{
    "blockHeight": 65856,
        "blockHash": "00000000000ef792eee81acc4c008c6d76d26780249ca04ce06e1f75a7589cc0",
        "blockTime": 1571024221,
        "blockTxs": [
            "88cc29d05f954606eb674d863cc4c574a74bf85fc18a305b22a7c7877c356ce7",
        "6f9006feb50be3d0c42d98b7c88308adae2839e45f52763826a368211935166d"
        ],
        "txDetails": {
            "6f9006feb50be3d0c42d98b7c88308adae2839e45f52763826a368211935166d": {
                "hex": "01000000020f704d32f71c5fadb17036403336bb6f15563d434944974753e8c43d7880c004000000004847304402203749e06f3d3ff0cce5e5c91cdb3876cf32e4dcc12feccd4ec816cc86db6260090220546d03aa361b87c087cac86273b628dd3e1bffd93ea8b9e99d9506a627a35bde01fffffffffd215820344e8d012e7e08289310318c2caed57e36db31b711f3a722a5cfa11100000000484730440220606707fc7830306a889bb5fa549bf8e26b71b793d4d22b9ae76d37b95ace3fe1022072016086b81746d1b2a0caf12158d5f437b05ffd8b0610efe07a5672c315655701ffffffff0100c2eb0b000000001976a914f61ce564ca563d708e971db2ad24234146c377fd88ac00000000",
                "txid": "6f9006feb50be3d0c42d98b7c88308adae2839e45f52763826a368211935166d",
                "version": 1,
                "locktime": 0,
                "vin": [
                {
                    "txid": "04c080783dc4e85347974449433d56156fbb3633403670b1ad5f1cf7324d700f",
                    "vout": 0,
                    "scriptSig": {
                        "asm": "304402203749e06f3d3ff0cce5e5c91cdb3876cf32e4dcc12feccd4ec816cc86db6260090220546d03aa361b87c087cac86273b628dd3e1bffd93ea8b9e99d9506a627a35bde01",
                        "hex": "47304402203749e06f3d3ff0cce5e5c91cdb3876cf32e4dcc12feccd4ec816cc86db6260090220546d03aa361b87c087cac86273b628dd3e1bffd93ea8b9e99d9506a627a35bde01"
                    },
                    "sequence": 4294967295
                },
                {
                    "txid": "11a1cfa522a7f311b731db367ed5ae2c8c31109328087e2e018d4e34205821fd",
                    "vout": 0,
                    "scriptSig": {
                        "asm": "30440220606707fc7830306a889bb5fa549bf8e26b71b793d4d22b9ae76d37b95ace3fe1022072016086b81746d1b2a0caf12158d5f437b05ffd8b0610efe07a5672c315655701",
                        "hex": "4730440220606707fc7830306a889bb5fa549bf8e26b71b793d4d22b9ae76d37b95ace3fe1022072016086b81746d1b2a0caf12158d5f437b05ffd8b0610efe07a5672c315655701"
                    },
                    "sequence": 4294967295
                }
                ],
                "vout": [
                {
                    "value": 2,
                    "n": 0,
                    "scriptPubKey": {
                        "asm": "OP_DUP OP_HASH160 f61ce564ca563d708e971db2ad24234146c377fd OP_EQUALVERIFY OP_CHECKSIG",
                        "hex": "76a914f61ce564ca563d708e971db2ad24234146c377fd88ac",
                        "reqSigs": 1,
                        "type": "pubkeyhash",
                        "addresses": [
                            "SjjKsmPj73iTWHUzKiXfdR46qjLdKwawkh"
                        ]
                    }
                }
                ],
                "blockhash": "00000000000ef792eee81acc4c008c6d76d26780249ca04ce06e1f75a7589cc0",
                "confirmations": 0,
                "time": 1571024221,
                "blocktime": 1571024221
            }
        }
}
