{
    "blockHeight": 1234,
        "blockHash": "0000000b65c99d7864c506cdfaf0daedad8d651c9fa8f72479c771ae76804839",
        "blockTime": 1579761404,
        "blockTxs": [
            "2c1c0368fb06443c61dca97ed74107555854bdf9b5a03d89e1958d657e1e32cb",
        "f072e70a187bdc321399644612ee7076f82e541a4905b458fcb1d1e18f78287b"
        ],
        "txDetails": {
            "f072e70a187bdc321399644612ee7076f82e541a4905b458fcb1d1e18f78287b": {
                "hex": "01000000025ca81ee15d6ffe0343dfe93c027c4663ef0ea939b79f56db9734840ac1adf7f40000000049483045022100b036866dcffe2a0a503f6c8f1e8f2e264f549c2980598d69cf2364ef166a0c3102203b8050fe7b1b04a4469b5012c03240fb840f894c82e653903d405b4ff746ecb801ffffffffcaa1a7123f477980412d97f350e3f20d53cd26c48c3dceefc0acbc7af0949f0100000000484730440220449315f1aafa884f4c49138386d5bc8f9b2f9641b13a66fdbfc106986014c5580220219f9a08d62d39ff8adc893249fc479e9ccd9aa2902f7b2050e62381621f076e01ffffffff020cdc7648170000001976a9143901f589f1c60a361b4d7f92f2296259ced577bb88ac00e87648170000001976a91428904c18fb5423f5c3995359b27067d92ff85af388ac00000000",
                "txid": "f072e70a187bdc321399644612ee7076f82e541a4905b458fcb1d1e18f78287b",
                "version": 1,
                "locktime": 0,
                "vin": [
                {
                    "txid": "f4f7adc10a843497db569fb739a90eef63467c023ce9df4303fe6f5de11ea85c",
                    "vout": 0,
                    "scriptSig": {
                        "asm": "3045022100b036866dcffe2a0a503f6c8f1e8f2e264f549c2980598d69cf2364ef166a0c3102203b8050fe7b1b04a4469b5012c03240fb840f894c82e653903d405b4ff746ecb801",
                        "hex": "483045022100b036866dcffe2a0a503f6c8f1e8f2e264f549c2980598d69cf2364ef166a0c3102203b8050fe7b1b04a4469b5012c03240fb840f894c82e653903d405b4ff746ecb801"
                    },
                    "sequence": 4294967295
                },
                {
                    "txid": "019f94f07abcacc0efce3d8cc426cd530df2e350f3972d418079473f12a7a1ca",
                    "vout": 0,
                    "scriptSig": {
                        "asm": "30440220449315f1aafa884f4c49138386d5bc8f9b2f9641b13a66fdbfc106986014c5580220219f9a08d62d39ff8adc893249fc479e9ccd9aa2902f7b2050e62381621f076e01",
                        "hex": "4730440220449315f1aafa884f4c49138386d5bc8f9b2f9641b13a66fdbfc106986014c5580220219f9a08d62d39ff8adc893249fc479e9ccd9aa2902f7b2050e62381621f076e01"
                    },
                    "sequence": 4294967295
                }
                ],
                "vout": [
                {
                    "value": 999.9999694,
                    "n": 0,
                    "scriptPubKey": {
                        "asm": "OP_DUP OP_HASH160 3901f589f1c60a361b4d7f92f2296259ced577bb OP_EQUALVERIFY OP_CHECKSIG",
                        "hex": "76a9143901f589f1c60a361b4d7f92f2296259ced577bb88ac",
                        "reqSigs": 1,
                        "type": "pubkeyhash",
                        "addresses": [
                            "aVFVb55LQ9rSjHC19KYPUj3eGyQkXYzcRr"
                        ]
                    }
                },
                {
                    "value": 1000,
                    "n": 1,
                    "scriptPubKey": {
                        "asm": "OP_DUP OP_HASH160 28904c18fb5423f5c3995359b27067d92ff85af3 OP_EQUALVERIFY OP_CHECKSIG",
                        "hex": "76a91428904c18fb5423f5c3995359b27067d92ff85af388ac",
                        "reqSigs": 1,
                        "type": "pubkeyhash",
                        "addresses": [
                            "aTkYcdqUeREo8g9ydvpDPACzzcChy3zpiw"
                        ]
                    }
                }
                ],
                "blockhash": "0000000b65c99d7864c506cdfaf0daedad8d651c9fa8f72479c771ae76804839",
                "confirmations": 0,
                "time": 1579761404,
                "blocktime": 1579761404
            }
        }
}
