{
    "blockHeight": 308506,
    "blockHash": "7db10f77c97acf921cb57843b0155657b57de674cd914802ce3320f52d478dfe",
    "blockTime": 1552686920,
    "blockTxs": [
        "319a7c8bcec7951931b79eade2985362c41b827f3fd013dedfe9b1a96fa57a03",
        "7780a2a8fb2356ecfaaf556ff53ba93a46cdce3bd93be8256a7e304f404600bc",
        "17f243fa49f5316062d650b20ce37d6dd795e46ed9fd4f64c9b4ccf689915d9b",
        "72270d839f189d1193953e1450a31b620ba255a6d664c8a9a0386f8b8e2800f1"
    ],
    "txDetails": {
        "17f243fa49f5316062d650b20ce37d6dd795e46ed9fd4f64c9b4ccf689915d9b": {
            "hex": "0200000001adc444b348621c06d881f6d1402fcb188316163c0c510d845b71cfc3a9ee1101010000006b483045022100e8378228debfddf315ebbc4a7455bfa3fceb8ae577c176e760f73c4be9ba781702201081481c27b72a9d2f8826f20e6289323276288a96181866821111c805d9305701210230ffa39fe697cc4d28d453ed84ed6545b9ce83a0863367b831dae54674488967ffffffff01f89bb0b0000000001976a914a738d8ab602e40c83c1d617aa3075b1954312d7988ac00000000",
            "txid": "17f243fa49f5316062d650b20ce37d6dd795e46ed9fd4f64c9b4ccf689915d9b",
            "blocktime": 1552686920,
            "time": 1552686920,
            "locktime": 0,
            "version": 2,
            "vin": [
                {
                    "txid": "0111eea9c3cf715b840d510c3c16168318cb2f40d1f681d8061c6248b344c4ad",
                    "vout": 1,
                    "sequence": 4294967295,
                    "scriptSig": {
                        "hex": "483045022100e8378228debfddf315ebbc4a7455bfa3fceb8ae577c176e760f73c4be9ba781702201081481c27b72a9d2f8826f20e6289323276288a96181866821111c805d9305701210230ffa39fe697cc4d28d453ed84ed6545b9ce83a0863367b831dae54674488967"
                    }
                }
            ],
            "vout": [
                {
                    "value": 29.64364280,
                    "n": 0,
                    "scriptPubKey": {
                        "hex": "76a914a738d8ab602e40c83c1d617aa3075b1954312d7988ac"
                    }
                }
            ]
        }
    }
}
