{
  "blockHeight": 333514,
  "blockHash": "249208b04314e1541c15d7676f09d2a47f8ea7be69b0271678304c5312d44873",
  "blockTime": 1552272592,
  "blockTxs": [
    "1dbdf1b25e3e85fc62158112468e65dba5d63b3824878650809a9718e71174eb",
    "a391909c9521ee8e4489705366bf0bcddf84d8a34726ddfd503854ae4cdb4654"
  ],
  "txDetails": {
    "1dbdf1b25e3e85fc62158112468e65dba5d63b3824878650809a9718e71174eb": {
      "hex": "020000000001010000000000000000000000000000000000000000000000000000000000000000ffffffff0503ca160500ffffffff020000000000000000000000000000000000266a24aa21a9ed598bdca4eab6001d5753ba33e9a50b1986649f4b477948b5f761decd6b742b4e0120000000000000000000000000000000000000000000000000000000000000000000000000",
      "txid": "1dbdf1b25e3e85fc62158112468e65dba5d63b3824878650809a9718e71174eb",
      "blocktime": 1552272592,
      "time": 1552272592,
      "locktime": 0,
      "version": 2,
      "vin": [
        {
          "coinbase": "03ca160500",
          "sequence": 4294967295
        }
      ],
      "vout": [
        {
          "value": 0,
          "n": 0,
          "scriptPubKey": {
            "hex": "",
            "type": "nonstandard"
          }
        },
        {
          "value": 0,
          "n": 1,
          "scriptPubKey": {
            "hex": "6a24aa21a9ed598bdca4eab6001d5753ba33e9a50b1986649f4b477948b5f761decd6b742b4e"
          }
        }
      ]
    },
    "a391909c9521ee8e4489705366bf0bcddf84d8a34726ddfd503854ae4cdb4654": {
      "hex": "0200000001bb1bddb412ba1deda03d139889fc892e395d9ae20e5f956d8acb23ae64dc530401000000484730440220243bfff81362d09ee38fda1ac381905fef9af24cf3240a15c14985978c4cccee02204220fa5157693bfa01dd8a3b94ac23b35ba5bad20ff0f8f34c2a248ffacc4f8201ffffffff0b000000000000000000802c8c630400000023210254aaf2f2a7e1de6ff886fdd25ed92d472ecbf6aba7959fcc84079faef9fd0ee0ac005a6202000000001976a914a9f8f3b055324f6b2d6bcac328ec2d7e3cd22d8b88ac005a6202000000001976a914e05a3073deebefc491f782c8af8ad2899a6bf36388ac005a6202000000001976a914dbb6c84e8c0ea78482cc1db809d37572a8bf748e88ac005a6202000000001976a91423158af7bb43843d05bab9210917b9063413a3ae88ac005a6202000000001976a91490d7395c53fb6047a2ff7c7e2b42527ebc81832288ac005a6202000000001976a9140fb6d44794ae58756164b3377c3512286511840488ac005a6202000000001976a91453f6dc6a60a98921a3d72aea5dba2aefb6d7bd3888ac005a6202000000001976a914f94467916b9e0d985f90722e0d6f5b65846dfb5e88ac005a6202000000001976a91453f6dc6a60a98921a3d72aea5dba2aefb6d7bd3888ac00000000",
      "txid": "a391909c9521ee8e4489705366bf0bcddf84d8a34726ddfd503854ae4cdb4654",
      "blocktime": 1552272592,
      "time": 1552272592,
      "locktime": 0,
      "version": 2,
      "vin": [
        {
          "txid": "0453dc64ae23cb8a6d955f0ee29a5d392e89fc8998133da0ed1dba12b4dd1bbb",
          "vout": 1,
          "scriptSig": {
            "hex": "4730440220243bfff81362d09ee38fda1ac381905fef9af24cf3240a15c14985978c4cccee02204220fa5157693bfa01dd8a3b94ac23b35ba5bad20ff0f8f34c2a248ffacc4f8201"
          },
          "sequence": 4294967295
        }
      ],
      "vout": [
        {
          "value": 0.00000000,
          "n": 0,
          "scriptPubKey": {
            "hex": "",
            "type": "nonstandard"
          }
        },
        {
          "value": 188.50000000,
          "n": 1,
          "scriptPubKey": {
            "hex": "210254aaf2f2a7e1de6ff886fdd25ed92d472ecbf6aba7959fcc84079faef9fd0ee0ac",
            "addresses": [
              "Qd3xCT4kKgTDw85vqgr1jXyHq3GqZvurpa"
            ]
          }
        },
        {
          "value": 0.40000000,
          "n": 2,
          "scriptPubKey": {
            "hex": "76a914a9f8f3b055324f6b2d6bcac328ec2d7e3cd22d8b88ac",
            "addresses": [
              "Qc6iYCZWn4BauKXGYirRG8pMtgdHMk2dzn"
            ]
          }
        },
        {
          "value": 0.40000000,
          "n": 3,
          "scriptPubKey": {
            "hex": "76a914e05a3073deebefc491f782c8af8ad2899a6bf36388ac",
            "addresses": [
              "Qh4FWjExZZj4v81xeLPG6oLB2tTnLt8BMQ"
            ]
          }
        },
        {
          "value": 0.40000000,
          "n": 4,
          "scriptPubKey": {
            "hex": "76a914dbb6c84e8c0ea78482cc1db809d37572a8bf748e88ac",
            "addresses": [
              "Qgdj4FrXXxLVkxPDYtFNNGZNd9TJrNjtpM"
            ]
          }
        },
        {
          "value": 0.40000000,
          "n": 5,
          "scriptPubKey": {
            "hex": "76a91423158af7bb43843d05bab9210917b9063413a3ae88ac",
            "addresses": [
              "QPoVZqSCxtWkHgNt8jkipv6KNJUMmE7gRT"
            ]
          }
        },
        {
          "value": 0.40000000,
          "n": 6,
          "scriptPubKey": {
            "hex": "76a91490d7395c53fb6047a2ff7c7e2b42527ebc81832288ac",
            "addresses": [
              "QZoqExD34XsaPyx61AmTRTLfSzwYK6pXXY"
            ]
          }
        },
        {
          "value": 0.40000000,
          "n": 7,
          "scriptPubKey": {
            "hex": "76a9140fb6d44794ae58756164b3377c3512286511840488ac",
            "addresses": [
              "QN35GNbDzzMAHLWBvej9vGucFLpZMoVz6N"
            ]
          }
        },
        {
          "value": 0.40000000,
          "n": 8,
          "scriptPubKey": {
            "hex": "76a91453f6dc6a60a98921a3d72aea5dba2aefb6d7bd3888ac",
            "addresses": [
              "QUFwvRXTnjnWmGVYxaXZoEAmMkKtkth8ND"
            ]
          }
        },
        {
          "value": 0.40000000,
          "n": 9,
          "scriptPubKey": {
            "hex": "76a914f94467916b9e0d985f90722e0d6f5b65846dfb5e88ac",
            "addresses": [
              "QjKzJtymBHQfuc7zGU6LSE1eHfJr2dFXpE"
            ]
          }
        },
        {
          "value": 0.40000000,
          "n": 10,
          "scriptPubKey": {
            "hex": "76a91453f6dc6a60a98921a3d72aea5dba2aefb6d7bd3888ac",
            "addresses": [
              "QUFwvRXTnjnWmGVYxaXZoEAmMkKtkth8ND"
            ]
          }
        }
      ]
    }
  }
}