{
    "blockHeight": 707554,
    "blockHash": "000000000000429dbd10e090e00384199e85555d501cfa47720e5261c66942a6",
    "blockTime": 1557858845,
    "blockTxs": [
    	"194a89653371595337c306e559d71a94a72f3395c8801189cb396ce6330636cd",
    	"58ce37e86e5c17e3c08ef14c55d994aaf4c11003fd749aa597b141c89d22c582",
    	"9d3e19d6f147c362410fa361b0cae9690e8de1c727e7a99bc145e7d95580a314",
    	"739b0ef5a5d8314f84f61105b107b7534dc9748b288fcd06dc8087783ce26e20"
    ],
    "txDetails": {
        "58ce37e86e5c17e3c08ef14c55d994aaf4c11003fd749aa597b141c89d22c582": {
            "hex": "02000000025496421e6a3627ec4a5eab571ff22b3a1a5aa7555d48b7013976eef18443a115000000006a473044022027e2ef2d5057e03864373e6a3bbf8206af18bd64c817a42979f784688a703c4d02203230b32182046d01a16ea765f85219fd3ba8b2d731eb4a0446d968da170da5a5012102f721c9e757b10fe342869b92ba76c4fbcc74d634fc9536b9c068fc033488d655feffffff886c20d01cc0647f0bff7fea3506d88fd7a49dcc17de2938846f6a52055d1f6e800000006b483045022100cf6c8d2452c5f146e317a77ccafdf6cb516c3050f9d6e71d0d834db8a02d1cc7022041823ee041589a1fcdb43d5ce121cb6470506f6726a4f667d6d20af894a034260121035e5dfde430f2d5f832c4df4a9a251293b0ba29995aee49a6908586de22cbc8c3feffffff0295117782570600001976a9147f7d88fa55fab938161953faf6bd3d026cd078dc88acf2420f00000000001976a914e8fd48114696f4e6ee5b3e5d532c408a19f691b788ac92cb0a00",
            "txid": "58ce37e86e5c17e3c08ef14c55d994aaf4c11003fd749aa597b141c89d22c582",
            "blocktime": 1557858845,
            "time": 1557858845,
            "locktime": 707474,
            "version": 2,
            "vin": [
              {
                "txid": "15a14384f1ee763901b7485d55a75a1a3a2bf21f57ab5e4aec27366a1e429654",
                "vout": 0,
                "sequence": 4294967294,
                "scriptSig": {
                  "hex": "473044022027e2ef2d5057e03864373e6a3bbf8206af18bd64c817a42979f784688a703c4d02203230b32182046d01a16ea765f85219fd3ba8b2d731eb4a0446d968da170da5a5012102f721c9e757b10fe342869b92ba76c4fbcc74d634fc9536b9c068fc033488d655"
                }
              },
              {
                "txid": "6e1f5d05526a6f843829de17cc9da4d78fd80635ea7fff0b7f64c01cd0206c88",
                "vout": 128,
                "sequence": 4294967294,
                "scriptSig": {
                  "hex": "483045022100cf6c8d2452c5f146e317a77ccafdf6cb516c3050f9d6e71d0d834db8a02d1cc7022041823ee041589a1fcdb43d5ce121cb6470506f6726a4f667d6d20af894a034260121035e5dfde430f2d5f832c4df4a9a251293b0ba29995aee49a6908586de22cbc8c3"
                }
              }
            ],
            "vout": [
              {
                "value": 69729.20762773,
                "n": 0,
                "scriptPubKey": {
                  "hex": "76a9147f7d88fa55fab938161953faf6bd3d026cd078dc88ac",
                  "addresses": [
                    "RLuJHD2GRHzTbwc47Cg43oAJQZRMMVcU7S"
                  ]
                }
              },
              {
                "value": 0.01000178,
                "n": 1,
                "scriptPubKey": {
                  "hex": "76a914e8fd48114696f4e6ee5b3e5d532c408a19f691b788ac",
                  "addresses": [
                    "RWX8GL2MHTewUvEcJMwu1cSZEhrSitG9Nz"
                  ]
                }
              }
            ]
        },
        "9d3e19d6f147c362410fa361b0cae9690e8de1c727e7a99bc145e7d95580a314": {
            "hex": "0200000004152c754032d6d014e21a10f68cd0d1f62b29ad3997bc637f434f513240a6393a370000006b483045022100f397fe990bc6871408a8178a4cac7afc27a989abd8dc32536d4b392e2d46d7d502205aafc72f6b76bfee3373da3786492c8d24107d1005751f25e6be4f8788d85a8e012103f8a3801f6e45a63821c41c8cd5baa1aca5760e2dac0edce67ea1721e3a63a35dfeffffff1d8cedc545c969e9fe0b74465c47081bc25d9c423a1668c9ede948c5627aa78f020000006a4730440220580ccb55105732dca7ae5e338c9d9af1651c1d8a9d167a0dfea41b977c38f67502205a5fe94fb9190a97f8bff5ee94e603323da36c0383a1d6fbf27b499bf900a24d012103f8a3801f6e45a63821c41c8cd5baa1aca5760e2dac0edce67ea1721e3a63a35dfeffffffb832371edbbd6ae9498ec3f33cc61333d1cfb0497f4600cbc0a05ceae82e39e7640000006b483045022100906a567b719038f7b5e0750e5c8ff4b1356dd28ecd867edfb7bf65623b50c64d02203bfe4bd0d08b4caff78112aa63bb4fbfb6804c428488dd5ac30266f0f2ba1fa9012103f8a3801f6e45a63821c41c8cd5baa1aca5760e2dac0edce67ea1721e3a63a35dfeffffffc20447c40b451c4ccb643863a3d06ecbf96681d8f5dace42a80a0e1b7627ec62660000006b483045022100e9912569e224fee0f9febfc1a9356918229461d323c891d93b21e2396bf8e3e2022053c814c6661b3fdabc838d0ea77585b9c340f659fbe902dc5cf7559939350756012103f8a3801f6e45a63821c41c8cd5baa1aca5760e2dac0edce67ea1721e3a63a35dfeffffff0269ef8a00000000001976a9148273705545d167297b7278503447d809d9e84b2e88ac003c9476520200001976a9147cf41bc3cdba1b8edf811877ab1cc9493847a3e488ace0cb0a00",
            "txid": "9d3e19d6f147c362410fa361b0cae9690e8de1c727e7a99bc145e7d95580a314",
            "blocktime": 1557858845,
            "time": 1557858845,
            "locktime": 707552,
            "version": 2,
            "vin": [
              {
                "txid": "3a39a64032514f437f63bc9739ad292bf6d1d08cf6101ae214d0d63240752c15",
                "vout": 55,
                "sequence": 4294967294,
                "scriptSig": {
                  "hex": "483045022100f397fe990bc6871408a8178a4cac7afc27a989abd8dc32536d4b392e2d46d7d502205aafc72f6b76bfee3373da3786492c8d24107d1005751f25e6be4f8788d85a8e012103f8a3801f6e45a63821c41c8cd5baa1aca5760e2dac0edce67ea1721e3a63a35d"
                }
              },
              {
                "txid": "8fa77a62c548e9edc968163a429c5dc21b08475c46740bfee969c945c5ed8c1d",
                "vout": 2,
                "sequence": 4294967294,
                "scriptSig": {
                  "hex": "4730440220580ccb55105732dca7ae5e338c9d9af1651c1d8a9d167a0dfea41b977c38f67502205a5fe94fb9190a97f8bff5ee94e603323da36c0383a1d6fbf27b499bf900a24d012103f8a3801f6e45a63821c41c8cd5baa1aca5760e2dac0edce67ea1721e3a63a35d"
                }
              },
              {
                "txid": "e7392ee8ea5ca0c0cb00467f49b0cfd13313c63cf3c38e49e96abddb1e3732b8",
                "vout": 100,
                "sequence": 4294967294,
                "scriptSig": {
                  "hex": "483045022100906a567b719038f7b5e0750e5c8ff4b1356dd28ecd867edfb7bf65623b50c64d02203bfe4bd0d08b4caff78112aa63bb4fbfb6804c428488dd5ac30266f0f2ba1fa9012103f8a3801f6e45a63821c41c8cd5baa1aca5760e2dac0edce67ea1721e3a63a35d"
                }
              },
              {
                "txid": "62ec27761b0e0aa842cedaf5d88166f9cb6ed0a3633864cb4c1c450bc44704c2",
                "vout": 102,
                "sequence": 4294967294,
                "scriptSig": {
                  "hex": "483045022100e9912569e224fee0f9febfc1a9356918229461d323c891d93b21e2396bf8e3e2022053c814c6661b3fdabc838d0ea77585b9c340f659fbe902dc5cf7559939350756012103f8a3801f6e45a63821c41c8cd5baa1aca5760e2dac0edce67ea1721e3a63a35d"
                }
              }
            ],
            "vout": [
              {
                "value": 0.09105257,
                "n": 0,
                "scriptPubKey": {
                  "hex": "76a9148273705545d167297b7278503447d809d9e84b2e88ac"
                }
              },
              {
                "value": 25532.00000000,
                "n": 1,
                "scriptPubKey": {
                  "hex": "76a9147cf41bc3cdba1b8edf811877ab1cc9493847a3e488ac"
                }
              }
            ]
        }
    }
}
