{
    "blockHeight": 250567,
    "blockHash": "000000000063732fe43aa186a706840650e1ca8d5518dedcc604102009092d64",
    "blockTime": 1558652720,
    "blockTxs": [
      "547b7b60419826cda46c97ad95b8679fc5a3ef1ef8749ed97bf7080502154937",
      "ad3e7e11991bafa0740cc17f3fe82e855000c7232122a11a66b27ba50884c71b",
      "1a395298cc0ec3100eb0bda8f10c8d4250ddd54b3ed9af5d3f76b9c88e2b729a"
    ],
    "txDetails": {
        "ad3e7e11991bafa0740cc17f3fe82e855000c7232122a11a66b27ba50884c71b": {
            "hex": "0200000002e7a41b106da1d8357084474789f01ec65cf6a2ef4a58a19af97ee2ef03fd15b2010000006a47304402202f8ce8b00ab0c171c8a03d0d4bc65fc8f01d8c3038c3b606aa12d8816401ef7002204f2fc6a420d145668a6e3938a6adb378d49f0522c5c8d411e648600f90fb456e0121038860094e22ebae773256eb3e8a60754d05d12bd3ce6c1c77e37140713049ea0ffeffffffe88d7bdb44740939e74fffbb20db4abdf6dc964431692fbb105a32d916e83e391e0000006b483045022100839e7bf9c4eccaac0bb5a0f8eaaf9e72cbc4240207474e3d99d74115de6f6485022036d3816b1ac6569c373651370025c9dc69e879b494cdb80cb9bf46169b2c6ffc0121024822b76de8e48d8341df11da5b811c36a93b4956c90051405b6ae3e9f61ddd17feffffff020d420539000000001976a914b6accf94c24319889682506eeee546b4d413ea4588ac2f695000000000001976a91493e725537f01c352f28c6a307778800ae024b79688acc6d20300",
            "txid": "ad3e7e11991bafa0740cc17f3fe82e855000c7232122a11a66b27ba50884c71b",
            "blocktime": 1558652720,
            "time": 1558652720,
            "locktime": 250566,
            "version": 2,
            "vin": [
              {
                "txid": "b215fd03efe27ef99aa1584aefa2f65cc61ef0894747847035d8a16d101ba4e7",
                "vout": 1,
                "sequence": 4294967294,
                "scriptSig": {
                  "hex": "47304402202f8ce8b00ab0c171c8a03d0d4bc65fc8f01d8c3038c3b606aa12d8816401ef7002204f2fc6a420d145668a6e3938a6adb378d49f0522c5c8d411e648600f90fb456e0121038860094e22ebae773256eb3e8a60754d05d12bd3ce6c1c77e37140713049ea0f"
                }
              },
              {
                "txid": "393ee816d9325a10bb2f69314496dcf6bd4adb20bbff4fe739097444db7b8de8",
                "vout": 30,
                "sequence": 4294967294,
                "scriptSig": {
                  "hex": "483045022100839e7bf9c4eccaac0bb5a0f8eaaf9e72cbc4240207474e3d99d74115de6f6485022036d3816b1ac6569c373651370025c9dc69e879b494cdb80cb9bf46169b2c6ffc0121024822b76de8e48d8341df11da5b811c36a93b4956c90051405b6ae3e9f61ddd17"
                }
              }
            ],
            "vout": [
              {
                "value": 9.56645901,
                "n": 0,
                "scriptPubKey": {
                  "hex": "76a914b6accf94c24319889682506eeee546b4d413ea4588ac"
                }
              },
              {
                "value": 0.05269807,
                "n": 1,
                "scriptPubKey": {
                  "hex": "76a91493e725537f01c352f28c6a307778800ae024b79688ac"
                }
              }
            ]
        },
        "1a395298cc0ec3100eb0bda8f10c8d4250ddd54b3ed9af5d3f76b9c88e2b729a": {
            "hex": "0200000002610a01e927b3c771e545c73312bd1e8cbcdcce4bb5e4cfa528f7acaaaaeb5007000000006b483045022100f0deb144cf2f8a4a3c99acce5208d2b4a93cd8c5d870905a2e71c4dd80e3ca8b022046d7a612043c610eaca100097960cf202751d4c0598c41063cf51c7648e56b43012103d0804494a2616ea51b39f047b6ede43660874b511cb1c5f75ad2a8c208c3c887feffffff72d03c659bd35d40818411eeced6525d6c15cdc7f55533e253d7961eee2c1f14000000006b4830450221008c2773819fd972eee4d51105f4b43a363dfb9c45eb897f97e5780f93d685dd9a0220049fd5eb3856a26c39698f53cc8ae1e701894680b556cce5202077a266f0447801210219c8273f88355218bcd57f41b1e1af97826cf98a63ec2559d6a4a1002e198bb1feffffff02486cfe52110400001976a914b6accf94c24319889682506eeee546b4d413ea4588accd841100000000001976a91483b5b7c1b97fbe29d83b0171ebe4f4d05fb7869b88acc6d20300",
            "txid": "1a395298cc0ec3100eb0bda8f10c8d4250ddd54b3ed9af5d3f76b9c88e2b729a",
            "blocktime": 1558652720,
            "time": 1558652720,
            "locktime": 250566,
            "version": 2,
            "vin": [
              {
                "txid": "0750ebaaaaacf728a5cfe4b54bcedcbc8c1ebd1233c745e571c7b327e9010a61",
                "vout": 0,
                "sequence": 4294967294,
                "scriptSig": {
                  "hex": "483045022100f0deb144cf2f8a4a3c99acce5208d2b4a93cd8c5d870905a2e71c4dd80e3ca8b022046d7a612043c610eaca100097960cf202751d4c0598c41063cf51c7648e56b43012103d0804494a2616ea51b39f047b6ede43660874b511cb1c5f75ad2a8c208c3c887"
                }
              },
              {
                "txid": "141f2cee1e96d753e23355f5c7cd156c5d52d6ceee118481405dd39b653cd072",
                "vout": 0,
                "sequence": 4294967294,
                "scriptSig": {
                  "hex": "4830450221008c2773819fd972eee4d51105f4b43a363dfb9c45eb897f97e5780f93d685dd9a0220049fd5eb3856a26c39698f53cc8ae1e701894680b556cce5202077a266f0447801210219c8273f88355218bcd57f41b1e1af97826cf98a63ec2559d6a4a1002e198bb1"
                }
              }
            ],
            "vout": [
              {
                "value": 44724.53360712,
                "n": 0,
                "scriptPubKey": {
                  "hex": "76a914b6accf94c24319889682506eeee546b4d413ea4588ac"
                }
              },
              {
                "value": 0.01148109,
                "n": 1,
                "scriptPubKey": {
                  "hex": "76a91483b5b7c1b97fbe29d83b0171ebe4f4d05fb7869b88ac"
                }
              }
            ]
        }
    }
}
