{
  "blockHeight": 52554,
  "blockHash": "000000ae09ee411c8a8d33a46ea16772014b3899768e8695a6a142e361b1300b",
  "blockTime": 1579496608,
  "blockTxs": [
    "967db8f7cf810d156823b4aeb195fb5805ba569b00acc64c2b355c35857425de"
  ],
  "txDetails": {
    "967db8f7cf810d156823b4aeb195fb5805ba569b00acc64c2b355c35857425de": {
      "hex": "020000000001010000000000000000000000000000000000000000000000000000000000000000ffffffff0603c722050101ffffffff0310eda133000000002321027ab3dc8de899264549af2621a59a7cfac58f2f9af38ab6004c6aa4739d9d91a6ac30c7e59a000000001976a914c2edc9030539e872797aa5eb5031ad372a1a1f4588ac0000000000000000266a24aa21a9ede2f61c3f71d1defd3fa999dfa36953755c690689799962b48bebd836974e8cf90120000000000000000000000000000000000000000000000000000000000000000000000000",
      "txid": "967db8f7cf810d156823b4aeb195fb5805ba569b00acc64c2b355c35857425de",
      "blocktime": 1579496608,
      "time": 1579496608,
      "locktime": 0,
      "version": 2,
      "vin": [
        {
          "coinbase": "034acd000101",
          "sequence": 4294967295
        }
      ],
      "vout": [
        {
          "value": 8.66250000,
          "n": 0,
          "scriptPubKey": {
            "asm": "029cead8075456ae7e79fbe494c0cb1efd149e28d1f9a2a69e2d8feca80ea497fa OP_CHECKSIG",
            "hex": "21029cead8075456ae7e79fbe494c0cb1efd149e28d1f9a2a69e2d8feca80ea497faac",
            "reqSigs": 1,
            "type": "pubkey",
            "addresses": [
              "TT44LZYYXJMntXa8BTXTmzkhnyqkgpvVtx"
            ]
          }
        },
        {
          "value": 51.97500000,
          "n": 1,
          "scriptPubKey": {
            "asm": "OP_DUP OP_HASH160 6ae0a63a2ca6b12b72c3a8f147cfe28af09470de OP_EQUALVERIFY OP_CHECKSIG",
            "hex": "76a9146ae0a63a2ca6b12b72c3a8f147cfe28af09470de88ac",
            "reqSigs": 1,
            "type": "pubkeyhash",
            "addresses": [
              "TKiKkJTSRoSSPC1VK4vj4EDi9JCNE3RVP6"
            ]
          }
        },
        {
          "value": 0.00000000,
          "n": 2,
          "scriptPubKey": {
            "asm": "OP_RETURN aa21a9ede2f61c3f71d1defd3fa999dfa36953755c690689799962b48bebd836974e8cf9",
            "hex": "6a24aa21a9ede2f61c3f71d1defd3fa999dfa36953755c690689799962b48bebd836974e8cf9",
            "type": "nulldata"
          }
        }
      ]
    }
  }
}