{
  "blockHeight": 336583,
  "blockHash": "05365aa7262003137c9a3c9ffe258a711c9c21c4ac8c7ecda907f4b46a761919",
  "blockTime": 1579496261,
  "blockTxs": [
    "985ed76516e2e615a7d4641d3845c143b48e7d74807e268f0abc1fe1db3391d9"
  ],
  "txDetails": {
    "985ed76516e2e615a7d4641d3845c143b48e7d74807e268f0abc1fe1db3391d9": {
      "hex": "020000000001010000000000000000000000000000000000000000000000000000000000000000ffffffff0603c722050101ffffffff0310eda133000000002321027ab3dc8de899264549af2621a59a7cfac58f2f9af38ab6004c6aa4739d9d91a6ac30c7e59a000000001976a914c2edc9030539e872797aa5eb5031ad372a1a1f4588ac0000000000000000266a24aa21a9ede2f61c3f71d1defd3fa999dfa36953755c690689799962b48bebd836974e8cf90120000000000000000000000000000000000000000000000000000000000000000000000000",
      "txid": "79f2c2690cae8e3e4631a30462197316228fe0e5cf4f2f2eee904d8dcd0206c6",
      "blocktime": 1579496261,
      "time": 1579496261,
      "locktime": 0,
      "version": 2,
      "vin": [
        {
          "coinbase": "03c722050101",
          "sequence": 4294967295
        }
      ],
      "vout": [
        {
          "value": 8.66250000,
          "n": 0,
          "scriptPubKey": {
            "asm": "027ab3dc8de899264549af2621a59a7cfac58f2f9af38ab6004c6aa4739d9d91a6 OP_CHECKSIG",
            "hex": "21027ab3dc8de899264549af2621a59a7cfac58f2f9af38ab6004c6aa4739d9d91a6ac",
            "reqSigs": 1,
            "type": "pubkey",
            "addresses": [
              "SXaVG1NmW4r6wez4GjYbV4iS2CPPkHRw3S"
            ]
          }
        },
        {
          "value": 25.98750000,
          "n": 1,
          "scriptPubKey": {
            "asm": "OP_DUP OP_HASH160 c2edc9030539e872797aa5eb5031ad372a1a1f45 OP_EQUALVERIFY OP_CHECKSIG",
            "hex": "76a914c2edc9030539e872797aa5eb5031ad372a1a1f4588ac",
            "reqSigs": 1,
            "type": "pubkeyhash",
            "addresses": [
              "Sf4gyfNfET3fvLusch4yXhUcpVustfmnxZ"
            ]
          }
        },
        {
          "value": 0.00000000,
          "n": 2,
          "scriptPubKey": {
            "asm": "OP_RETURN aa21a9ede2f61c3f71d1defd3fa999dfa36953755c690689799962b48bebd836974e8cf9",
            "hex": "6a24aa21a9ede2f61c3f71d1defd3fa999dfa36953755c690689799962b48bebd836974e8cf9",
            "type": "nulldata"
          }
        }
      ]
    }
  }
}