{
  "blockHash": "9c22576a9defad9cc5cf27ed479c2175d4eb396d1b7706bfd5066add9b0366d1",
  "blockHeight": 1303796,
  "blockTime": 1584710909,
  "blockTxs": [
    "c35f4d078ec352096c1f83908f87e4fbb9553f264b0ba139cd7ca82dc060105a"
  ],
  "txDetails": {
    "c35f4d078ec352096c1f83908f87e4fbb9553f264b0ba139cd7ca82dc060105a": {
      "txid": "c35f4d078ec352096c1f83908f87e4fbb9553f264b0ba139cd7ca82dc060105a",
      "version": 1,
      "vin": [
        {
          "coinbase": "03f4e41304c9c4745e08810078cef13400007a657267706f6f6c2e636f6d00",
          "sequence": 0
        }
      ],
      "vout": [
        {
          "value": 100.00000000,
          "n": 0,
          "scriptPubKey": {
            "hex": "21036842117fa1b85649c3e2e84c759387d5670051213c61764e2a5bbf55260c2f3bac"
          }
        }
      ],
      "hex": "01000000fdc4745e010000000000000000000000000000000000000000000000000000000000000000ffffffff1f03f4e41304c9c4745e08810078cef13400007a657267706f6f6c2e636f6d00000000000100e1f505000000002321036842117fa1b85649c3e2e84c759387d5670051213c61764e2a5bbf55260c2f3bac00000000",
      "time": 1584710909,
      "blocktime": 1584710909
    }
  }
}
