{
  "blockHeight": 6197648,
  "blockHash": "7bfaf2048ce581f05ea6c87cb043bb5908e6afa83ef49621bf558a027cfe367e",
  "blockTime": 1555275169,
  "blockTxs": [
    "79f2c2690cae8e3e4631a30462197316228fe0e5cf4f2f2eee904d8dcd0206c6"
  ],
  "txDetails": {
    "79f2c2690cae8e3e4631a30462197316228fe0e5cf4f2f2eee904d8dcd0206c6": {
      "hex": "01000000010000000000000000000000000000000000000000000000000000000000000000ffffffff090390915e045cb39da1ffffffff01ca9a3b00000000001976a91424cc424c1e5e977175d2b20012554d39024bd68f88ac00000000",
      "txid": "79f2c2690cae8e3e4631a30462197316228fe0e5cf4f2f2eee904d8dcd0206c6",
      "blocktime": 1555275169,
      "time": 1555275169,
      "locktime": 0,
      "version": 1,
      "vin": [
        {
          "coinbase": "0390915e045cb39da1",
          "sequence": 4294967295
        }
      ],
      "vout": [
        {
          "value": 0.0390625,
          "n": 0,
          "scriptPubKey": {
            "hex": "76a91424cc424c1e5e977175d2b20012554d39024bd68f88ac",
            "addresses": [
              "VdMPvn7vUTSzbYjiMDs1jku9wAh1Ri2Y1A"
            ]
          }
        }
      ]
    }
  }
}