{
    "blockHeight": 537194,
    "blockHash": "2ec778923888428f75e89c28625e22ebb11ce71b16b909314c661a646fa98bfc",
    "blockTime": 1555853392,
    "blockTxs": [
        "43087ee6460ab870f42712ed95d047b52d460227e2d2d62f70f70d290a1ee813",
        "a7de2ccebee8c090bf286177842944a0db0e2733b084fa56572dda0c2d4e3216",
        "d7ef9e537f6eb6d02f99f3eee65a8b4f75b5c5c5906247dff386e625b1aabef3"
    ],
    "txDetails": {
        "a7de2ccebee8c090bf286177842944a0db0e2733b084fa56572dda0c2d4e3216": {
            "hex": "02000000018226c05828e931e6e24a48cc7615c6aa8964b17ffaa6acb6ef34987eba136e0a0200000049483045022100ca50e41692a9b83622a5ce9e8626f2c7a529c9a32bfb2aea8bd038ad36124bce022034381e1394e536f5c24ce4576dc86eee1c3239baadbe0e41365b1f2eee4f277601ffffffff030000000000000000000013f506556e0000232102474875b1a3bb3f974ce93bcaccc639a1e12072e128ed389107894d9aa9babe39ac60b60507556e0000232102474875b1a3bb3f974ce93bcaccc639a1e12072e128ed389107894d9aa9babe39ac00000000",
            "txid": "a7de2ccebee8c090bf286177842944a0db0e2733b084fa56572dda0c2d4e3216",
            "blocktime": 1555853392,
            "time": 1555853392,
            "locktime": 0,
            "version": 2,
            "vin": [
                {
                    "txid": "0a6e13ba7e9834efb6aca6fa7fb16489aac61576cc484ae2e631e92858c02682",
                    "vout": 2,
                    "scriptSig": {
                        "hex": "483045022100ca50e41692a9b83622a5ce9e8626f2c7a529c9a32bfb2aea8bd038ad36124bce022034381e1394e536f5c24ce4576dc86eee1c3239baadbe0e41365b1f2eee4f277601"
                    },
                    "sequence": 4294967295
                }
            ],
            "vout": [
                {
                    "value": 0.00000000,
                    "n": 0,
                    "scriptPubKey": {
                        "hex": ""
                    }
                },
                {
                    "value": 1213114.68000000,
                    "n": 1,
                    "scriptPubKey": {
                        "hex": "2102474875b1a3bb3f974ce93bcaccc639a1e12072e128ed389107894d9aa9babe39ac"
                    }
                },
                {
                    "value": 1213114.69090400,
                    "n": 2,
                    "scriptPubKey": {
                        "hex": "2102474875b1a3bb3f974ce93bcaccc639a1e12072e128ed389107894d9aa9babe39ac"
                    }
                }
            ]
        }
    }
}
