{
    "connectBlocks": {
        "syncRanges": [
            {"lower": 549658, "upper": 549678}
        ],
        "blocks": {
            "549678": {
                "height": 549678,
                "hash": "000000016318f5193794e39a5476af38ed78440454454838409314cd756ec00e",
                "noTxs": 12,
                "txDetails": [
                    {
                        "txid": "52c38b8c576de5cf3796c539e8a99f0ea8f1292976838454e57b502ae28983a9",
                        "version": 2,
                        "vin": [
                            {
                                "txid": "ce0c02580cc840e5928575242cdec6d37d748d14a7d8123fc9cbe05a1b3572cf",
                                "vout": 45,
                                "scriptSig": {
                                    "hex": "2200201535c52434c59fd0fe0f31c34d8d1d8c68fd116372a24e3e6131ecce7185e947"
                                },
                                "sequence": 4294967295
                            },
                            {
                                "txid": "9d4605ca7c7000145805b12f6760ba9ec333ae685549e9512afbaf39156c635f",
                                "vout": 1,
                                "scriptSig": {
                                    "hex": "220020d4e3769343784a983c3ca7b85e84d5c86fd8d9eb251828b98da5f8b412761fbb"
                                },
                                "sequence": 4294967295
                            },
                            {
                                "txid": "ce0c02580cc840e5928575242cdec6d37d748d14a7d8123fc9cbe05a1b3572cf",
                                "vout": 292,
                                "scriptSig": {
                                    "hex": "220020e7035896d3f3f7856e6967b277f5a6cb57bf218b7ea2df1e7b4b81708c9c3786"
                                },
                                "sequence": 4294967295
                            },
                            {
                                "txid": "ce0c02580cc840e5928575242cdec6d37d748d14a7d8123fc9cbe05a1b3572cf",
                                "vout": 259,
                                "scriptSig": {
                                    "hex": "220020661a6777751f5d8ef04db9e8278ebb53a5657fbaa534b42435e63f59f0e48e51"
                                },
                                "sequence": 4294967295
                            },
                            {
                                "txid": "ce0c02580cc840e5928575242cdec6d37d748d14a7d8123fc9cbe05a1b3572cf",
                                "vout": 26,
                                "scriptSig": {
                                    "hex": "220020deab8ccffb6a2c4f65ccff99f1a255109497a78576cb685a3bc90b26759f738d"
                                },
                                "sequence": 4294967295
                            },
                            {
                                "txid": "ce0c02580cc840e5928575242cdec6d37d748d14a7d8123fc9cbe05a1b3572cf",
                                "vout": 137,
                                "scriptSig": {
                                    "hex": "220020a6e49ede78e13a8938a1375bccd086910c8ad140e2d80eacb5cb5fa0c5ba094f"
                                },
                                "sequence": 4294967295
                            },
                            {
                                "txid": "fa98456d11f545458201fdd70e351e98c01c67bbcdc12241f50a96a89d9513f6",
                                "vout": 1,
                                "scriptSig": {
                                    "hex": "220020e55c0fa251b3a49d8805e28bc5a029e8076aa9777e61fe78b17d25bc42a48b41"
                                },
                                "sequence": 4294967295
                            },
                            {
                                "txid": "5c18c5ba5082907eb860e4ce911f5caa2e054e7167ae09e808752ef645f331b1",
                                "vout": 0,
                                "scriptSig": {
                                    "hex": "220020024cd0f73b1a8b8b1fb7a0b30ef4a4a1e86021902bf31f0bb492d883fe62cb9a"
                                },
                                "sequence": 4294967295
                            },
                            {
                                "txid": "ce0c02580cc840e5928575242cdec6d37d748d14a7d8123fc9cbe05a1b3572cf",
                                "vout": 408,
                                "scriptSig": {
                                    "hex": "2200204956936113ae5a26d3f6c7caff72a04cc0eb801974f8ca2531bc93ec9a4f6e9d"
                                },
                                "sequence": 4294967295
                            },
                            {
                                "txid": "3b4f094365801e84ebf3d8b976322bad5fda75b2061adde7bcbf9b45c22ff5ce",
                                "vout": 1,
                                "scriptSig": {
                                    "hex": "2200208c2f214ae6e49db3016e2235c63bad7f9dd20759cf6090e0fb510033aaa5cf6b"
                                },
                                "sequence": 4294967295
                            }
                        ],
                        "vout": [
                            {
                                "value": 15.00796092,
                                "n": 0,
                                "scriptPubKey": {
                                    "hex": "a914f6256e4fc059c7c8c2e1a4deb59daf56e44481e387"
                                }
                            },
                            {
                                "value": 1.95845918,
                                "n": 1,
                                "scriptPubKey": {
                                    "hex": "a9141815cb41e3719a7f543913b8e9587cf0bdf0e4f787"
                                }
                            }
                        ],
                        "hex": "0200000000010acf72351b5ae0cbc93f12d8a7148d747dd3c6de2c24758592e540c80c58020cce2d000000232200201535c52434c59fd0fe0f31c34d8d1d8c68fd116372a24e3e6131ecce7185e947ffffffff5f636c1539affb2a51e9495568ae33c39eba60672fb105581400707cca05469d0100000023220020d4e3769343784a983c3ca7b85e84d5c86fd8d9eb251828b98da5f8b412761fbbffffffffcf72351b5ae0cbc93f12d8a7148d747dd3c6de2c24758592e540c80c58020cce2401000023220020e7035896d3f3f7856e6967b277f5a6cb57bf218b7ea2df1e7b4b81708c9c3786ffffffffcf72351b5ae0cbc93f12d8a7148d747dd3c6de2c24758592e540c80c58020cce0301000023220020661a6777751f5d8ef04db9e8278ebb53a5657fbaa534b42435e63f59f0e48e51ffffffffcf72351b5ae0cbc93f12d8a7148d747dd3c6de2c24758592e540c80c58020cce1a00000023220020deab8ccffb6a2c4f65ccff99f1a255109497a78576cb685a3bc90b26759f738dffffffffcf72351b5ae0cbc93f12d8a7148d747dd3c6de2c24758592e540c80c58020cce8900000023220020a6e49ede78e13a8938a1375bccd086910c8ad140e2d80eacb5cb5fa0c5ba094ffffffffff613959da8960af54122c1cdbb671cc0981e350ed7fd01824545f5116d4598fa0100000023220020e55c0fa251b3a49d8805e28bc5a029e8076aa9777e61fe78b17d25bc42a48b41ffffffffb131f345f62e7508e809ae67714e052eaa5c1f91cee460b87e908250bac5185c0000000023220020024cd0f73b1a8b8b1fb7a0b30ef4a4a1e86021902bf31f0bb492d883fe62cb9affffffffcf72351b5ae0cbc93f12d8a7148d747dd3c6de2c24758592e540c80c58020cce98010000232200204956936113ae5a26d3f6c7caff72a04cc0eb801974f8ca2531bc93ec9a4f6e9dffffffffcef52fc2459bbfbce7dd1a06b275da5fad2b3276b9d8f3eb841e806543094f3b01000000232200208c2f214ae6e49db3016e2235c63bad7f9dd20759cf6090e0fb510033aaa5cf6bffffffff02bc5474590000000017a914f6256e4fc059c7c8c2e1a4deb59daf56e44481e3871e5fac0b0000000017a9141815cb41e3719a7f543913b8e9587cf0bdf0e4f7870400483045022100df8b93b01751918cea26c11e963da6dea5b5e79dfaaee812252a4ff56cc7d7350220114225b9d06845f012ede818c85162018b062f855b67de87cebb0799cf079a8c4148304502210098473c112492f57ce7457c7419db5d0486ac1dca5e7531e8b1e321ca033576d9022008945fb07ca2a3c8f6dcfb9a75f31a37f5ae23682dcd38f44cf8d0a6128486d241695221036791a0dca7f5b00666546cd9b761af8dd01bf92460607e5f1a5110ccb9fefe972102c820607a97a949d3ced2ed7e3e25a4d1126cef6f751537fb8ea372772d7f463321034933c645d8182c7f079a73e13e4ca247c5762c818b95a7a129757ab8aec33efd53ae0400483045022100d3f71ab4c71e154a46156dfc8a9538f3709a4b1346fa88d5acf695855ca1d5bf0220773fae304fcdd8ada7a27078ee0659d4bc0c0f01cc4c6693b871d44454f5c025414730440220585d4042c60c6b49044c8991c6154fc34cb18149b68b06645e05fd977b096e3b02201395bd1833ecbbce089f9b04de5275399cccf0c0164bc22cdf624ced4be9199c4169522103cc09b771d1b429665af9c01bf9a94f5e983d48fedd53ffe7b6bda2baa1582b6f2103f74ff7636ca0f86e29ebaf749f652c2f33e7b348366bdf5c6ef16dd05ee604602102858597f8802224c245e077e051704424de05492eeb952f2dc78c23ca753db5c453ae0400483045022100d788e1138012361720dd9b55d20c982079ace9242a37c2b6647e38f522dcf9fd022039202ea95045251e54d1973224a19a16e6c9da191f86587e494289e1567c5c3841473044022024a5f84f737e9fa5c6ecb87ea5f4f52d21f457a383d6d58ae610761fd7c1149d02204368c7a53f3bc26ecb21881187ddc79d6e01983c111aab7f2481416e909c3aba4169522102fdace023fad5d7af552579c1fd0165615adf7b438e366648589872110e3405ba2103b9091e21681ab6fc2704208ee568a18f9ea498b5050f556c4459d07a37bbd7e72102b80025b49f9dd0ebf9c83cf36d9d69a5cbd637b14f0bc7627648ce2d1062eaab53ae0400473044022070d5c043c2140107ed199868d8f61825572a9dd5ba36cfa9690e9599d8144f1d02205cb03558192f7bf91177e763914f2efeac88e6a3c2743e460080ff00685d32b64147304402200f1bb8a1a58e47980c503cd9c15f6c875dd4d655e01448add98014dc6ecfa24b0220127572eeceeb3ab8fab8f9b4b8986c8e387bf8aacba1adcac65f9281fd58d46b4169522103bd26b5b9f58c04ae47cad5dae9a54de0e78ed2a94a80fdc6c96fda5146f3fc952102782630cd972cb4844b21e8aee0da862a66a3bbea0d573e87010322ecfe1451f42102f48e6fe2b4c226f1341b03e5980ce2193d4ef51effa288aad461392ad68eb4c053ae0400483045022100db73df85f6ec45a0cd0ed5fbf676af049ca7d59967f64cf453fc2d6869772ff60220328786ec8acec3b398f10c3af4c0ffa46dcfae0466ac974a152ae7deb11470944147304402201fe1c60c1bc5fb1f632099f0c1fec24e9eda94e2448387aa50c064fbaf38fb790220625bdea9fe98a496ade069644009c6bde60d386c40669a128a109cd0e9a1b13e4169522103e2e2f1293f61d80e0b1acbe96bd51b6213bd03bcc25b06a1a58a889f051fca612103f87fe12ad04c7615b981983a15dba4509b24169b163265dbacdd5421c2474b6b21034e37bb1ea2670b4dd4da28095350fb69e908d473df0b4834e151c13e3e4a43ac53ae0400483045022100f3e84068702e0ced030988ab5778554124f6450dbd6796361f2d776647648e0b0220587f9b7de14be91d4ed800f2e1a3f50fcd644974c465694c91daaf39ef083d2b414730440220023fadfaa29b61ed34e73598b81343a42755289ab5ff7e267195b85932054b5602204c827aba56d686014c13df9c72b3967d771ec0f79d2f3266929e127231544d2a4169522102ad3e87d64e10768057c88f8dc89551bfa9399a11aeec5521d28b79392908e6db21034eaa2f1490425feff3b0f2461cf32e283059a105dff82ab5e48885fc8cd757612103e3b85e054d0e7200bfc0aba66d165ab5a6863fc6d592d0d3021a0ecb86d29a3253ae040047304402206a181681b76c8f42f68f4f5b326a12e947b17110cf3a86673893cc5f61e429f602206624d17ea8647243bce8813a1198b842a3068899a450591dd82b20aa03392b8941483045022100be0d0b299b8d7998c1946ce900fb0f330cbaefe673e0abc0fece48277d21ca4102201b371b41881117c0ed00c5cd150935ca715cc2a8095fbe66c6f70ebdfce089394169522102130fb071f7b46727605e8f5924e8f04fd9c04b647a78fb318f173c755f457b332103248c5665fb6bd74d7ed7efbfc56a860754574fa576d717f3836201c4121014d92102f78057436fc21bff5cc23761a7b6a219bce9192489eb9ad187e7ab7f715aefc053ae0400473044022070f7bd86ef5916ec689c71ad0aa47cc78421831910e4b42c23537ebf35bedc77022043db71fcc68c94362ff883ccbf6f483f2c7413d4b5898486242241ff6d72f12e41483045022100f6f25e0474b637c53b851a5006e80df9d50d3bae163d6a30d20dcd226c4c53eb0220684bf3936547d139caf6efe822d33e6cf98a2ac2986b286097b31be6c0a5de9541695221025443bcbadf7fa275a744d0c8f0d3e5c39f5213810d5359d8b8076ddb22672051210241703aed112a30863b9a46b767b6a67dd0b3e6654eef0ba121747bd174c363ae210354cd8b368faa8ba911f8ec64b044cf1d23eacd2bba834ccba6952e3400e543e253ae040047304402202bc5d7ea157dd38ab5915ea8ca1ef151b0d5369df33cb476403b34196fdf2ec502202811fc030ec9e5dbfcce4d7a5df6f5054ca9b9271b97163d9d3946b175a4da7e4147304402205262d4da7b4a7e82f24ce5f7f54a96396cfbf349ee489a66893d06a89e50d3b40220486c162c3b0e601596417413af6ef06d0bc3c337185d7e2f76d7ba6ad4a7ad334169522102bc6ec7592583f7fa9c18ee4dde59dbdcd9d5fd57d4e2c563c4f8094ac7cf10602102a59098d990381d0edd601c86a2ce4da55acf4975a907151c56926028356f0f862103b6592286a54aadd3900e75fe79b4505992db9d24d069ca846df49547c659929d53ae0400483045022100b5e724baf05b7fd6d491cd84ced23d257773fb5268b2ef2b665021ef5ee4b43602206089789f926b0db2b253d1a7dd99317de19d358ec40e105d6aaafa0d0478ec82414730440220777cdc756bfc235355247fa1226b55fec06aed4be36d4862f23f6ebfc677089b022024de6c2004f045fce595ca00e1b79f4d7b481a317153d724b3941fa144c2c0d941695221020da0c7266d926b548d9afe6f4f580ad3e6b5adfa6d3ca4e0b495575fbefe6f122102ea9a2ab796ac3edbfb44021475a2643b9224f6ac4d7de6ef8749933fa8126179210337e1686b39673960fc12f6a8a57b818dbaab85bbeeaac2ee5072cb3448da42e853ae2d630800",
                        "time": 1538729364,
                        "blocktime": 1538729364
                    },
                    {
                        "txid": "edd9d58ae6fd4b3b1df5ddd9068a3729d0aa2f1a7741b4b6676d456d610cefeb",
                        "version": 2,
                        "vin": [
                            {
                                "txid": "8591f5430cee05e8f8d1b44397ee8658bb876de458d04f74af2c16474bd954da",
                                "vout": 19,
                                "scriptSig": {
                                    "hex": "483045022100827291be60bb3fd9e86ad65c7dcca10fcb496461ec8c850017afa4902ced771b02200f1d049434954119c93ee77f701054fdcbfc45d5004422a2651668c00f3a54dd412102f4979bdfc9125a44fccb76be691df566d3be3417ad882a451ced16aa47e18ae3"
                                },
                                "sequence": 4294967295
                            }
                        ],
                        "vout": [
                            {
                                "value": 0.02167665,
                                "n": 0,
                                "scriptPubKey": {
                                    "hex": "76a914165412169a3490dff47510234c69ccb73bf7ae3f88ac"
                                }
                            },
                            {
                                "value": 0.00052382,
                                "n": 1,
                                "scriptPubKey": {
                                    "hex": "76a91447add4d2ee7aaccc058d59e5e84a76a64fb5c2fd88ac"
                                }
                            }
                        ],
                        "hex": "0200000001da54d94b47162caf744fd058e46d87bb5886ee9743b4d1f8e805ee0c43f59185130000006b483045022100827291be60bb3fd9e86ad65c7dcca10fcb496461ec8c850017afa4902ced771b02200f1d049434954119c93ee77f701054fdcbfc45d5004422a2651668c00f3a54dd412102f4979bdfc9125a44fccb76be691df566d3be3417ad882a451ced16aa47e18ae3ffffffff0271132100000000001976a914165412169a3490dff47510234c69ccb73bf7ae3f88ac9ecc0000000000001976a91447add4d2ee7aaccc058d59e5e84a76a64fb5c2fd88ac00000000",
                        "time": 1538729364,
                        "blocktime": 1538729364
                    }
                ]
            },
            "549666": {
                "height": 549666,
                "hash": "0000000191f830ea03cd84ec4cbb7e27b4d1f3cf63782bcec7899a953a530a5e",
                "noTxs": 3,
                "txDetails": [
                    {
                        "txid": "a4dca5fb2b2382a3515c1acfed78af32823d6e5f84cc6bd09bd6b25fc2372881",
                        "version": 2,
                        "vin": [
                            {
                                "txid": "cbd7fc09ce8b141cf699fdc16f1efbcc942f67aa5ced60d6a61a22244e28e24c",
                                "vout": 2,
                                "scriptSig": {
                                    "hex": "483045022100d260efe69f776811617e2fbf6e126e416a26fc54b6aa8787bfc6b0f03e83a3cd022018785547b18aab8975ac3ae67733cca483b6985ef82aee0eaaf1d4746a68e18f41210353aeb0c7187cb763ac041c4c720ea4e7168fc28d1d57b805cd1b288cb71eff38"
                                },
                                "sequence": 4294967294
                            }
                        ],
                        "vout": [
                            {
                                "value": 0.86276496,
                                "n": 0,
                                "scriptPubKey": {
                                    "hex": "a91475a59de09f942e6d8f41ce9e7a9777fd31e4b38e87"
                                }
                            },
                            {
                                "value": 0.20377052,
                                "n": 1,
                                "scriptPubKey": {
                                    "hex": "76a914a455cb288775c24cfca92682b8a4d44db5fad5db88ac"
                                }
                            },
                            {
                                "value": 0.20129775,
                                "n": 2,
                                "scriptPubKey": {
                                    "hex": "76a91437b078a6bf1ef587716a125f5b3ff6c6d3305e7988ac"
                                }
                            },
                            {
                                "value": 0.10334349,
                                "n": 3,
                                "scriptPubKey": {
                                    "hex": "76a914b0409421f32ea5341cd2f0b49d4993a49efe737f88ac"
                                }
                            },
                            {
                                "value": 0.10253043,
                                "n": 4,
                                "scriptPubKey": {
                                    "hex": "76a9145417b1969c16432235013fa940dc4f1bc61fea1088ac"
                                }
                            },
                            {
                                "value": 0.10251712,
                                "n": 5,
                                "scriptPubKey": {
                                    "hex": "a914b74b51785f7d0b67f1b93f0350d2ddad033ac05487"
                                }
                            },
                            {
                                "value": 0.10231528,
                                "n": 6,
                                "scriptPubKey": {
                                    "hex": "76a91431037ed33ab77553a950c8abed18564d4dbb686688ac"
                                }
                            },
                            {
                                "value": 0.10014118,
                                "n": 7,
                                "scriptPubKey": {
                                    "hex": "76a914aa6ab9b075da7f8709e1b2424f0f2907059b8d7188ac"
                                }
                            },
                            {
                                "value": 0.07085398,
                                "n": 8,
                                "scriptPubKey": {
                                    "hex": "76a9143eb39e49b1cd795b10a71ed69b8c674874f14e0c88ac"
                                }
                            },
                            {
                                "value": 0.03659851,
                                "n": 9,
                                "scriptPubKey": {
                                    "hex": "76a9147b90bb963aa10f7dc09cbcb29d09e8f3e5ef74cc88ac"
                                }
                            },
                            {
                                "value": 0.02883811,
                                "n": 10,
                                "scriptPubKey": {
                                    "hex": "76a9143d2c04c7ca9075e7ade0611f24d2f832b2992dc088ac"
                                }
                            },
                            {
                                "value": 0.02574707,
                                "n": 11,
                                "scriptPubKey": {
                                    "hex": "76a91424dda7877e0fbb61366a54949fcb986769119bc488ac"
                                }
                            },
                            {
                                "value": 0.01389376,
                                "n": 12,
                                "scriptPubKey": {
                                    "hex": "a914987d534c64bfa2675b274a190e4aa4bd0b7992e587"
                                }
                            },
                            {
                                "value": 0.01234922,
                                "n": 13,
                                "scriptPubKey": {
                                    "hex": "76a91447689913a2dc71bd88b9e5544a7e4edd9975cb5588ac"
                                }
                            },
                            {
                                "value": 0.01103419,
                                "n": 14,
                                "scriptPubKey": {
                                    "hex": "76a914b203e4871b07dc3b87a428712697f91fc25d516188ac"
                                }
                            },
                            {
                                "value": 0.01073954,
                                "n": 15,
                                "scriptPubKey": {
                                    "hex": "76a91446cb6306ca795cba91d094658e2b67ee9a7f4aa688ac"
                                }
                            },
                            {
                                "value": 0.01037813,
                                "n": 16,
                                "scriptPubKey": {
                                    "hex": "76a9140bbd9cd26b30c9502138370d2eb5920179fbec2f88ac"
                                }
                            },
                            {
                                "value": 0.01022772,
                                "n": 17,
                                "scriptPubKey": {
                                    "hex": "76a91469347f8294ca6978f1a871d5548b2039d994602e88ac"
                                }
                            },
                            {
                                "value": 0.01000094,
                                "n": 18,
                                "scriptPubKey": {
                                    "hex": "76a914f594ad1e831fc5c3e8736e16e0955c6d3c8cec1688ac"
                                }
                            },
                            {
                                "value": 0.00984064,
                                "n": 19,
                                "scriptPubKey": {
                                    "hex": "76a914245a86a1ba99e7aff0087b5662885d417c6f84e888ac"
                                }
                            },
                            {
                                "value": 0.00564781,
                                "n": 20,
                                "scriptPubKey": {
                                    "hex": "76a9141fb798d1e112fb79b365a12d0225065dcfd3163a88ac"
                                }
                            },
                            {
                                "value": 0.0054624,
                                "n": 21,
                                "scriptPubKey": {
                                    "hex": "a914521d76cd01774068b664a08e512ab03125f989cf87"
                                }
                            },
                            {
                                "value": 0.00434229,
                                "n": 22,
                                "scriptPubKey": {
                                    "hex": "76a9144232e2afff0a1248793a3971c64230e10c923ed088ac"
                                }
                            },
                            {
                                "value": 2.98527855,
                                "n": 23,
                                "scriptPubKey": {
                                    "hex": "76a914525941b21cf26088467933b7182014a470eeac8288ac"
                                }
                            },
                            {
                                "value": 0.0039823,
                                "n": 24,
                                "scriptPubKey": {
                                    "hex": "76a9143b24cbe507c5505f83860a22697fe4688cb75f1688ac"
                                }
                            },
                            {
                                "value": 0.00372068,
                                "n": 25,
                                "scriptPubKey": {
                                    "hex": "76a9147af4109734e8c8a606b6a1b1b520c6dddc6c869288ac"
                                }
                            },
                            {
                                "value": 0.00230834,
                                "n": 26,
                                "scriptPubKey": {
                                    "hex": "76a9143c9bcf0bde1afe9d561e0149163cc990e37e161688ac"
                                }
                            },
                            {
                                "value": 0.00229549,
                                "n": 27,
                                "scriptPubKey": {
                                    "hex": "76a914b0affdf725f7ac1013eee60bdb36f58a33aa2c4688ac"
                                }
                            },
                            {
                                "value": 0.00177726,
                                "n": 28,
                                "scriptPubKey": {
                                    "hex": "76a9144463b427100121ea44c4b5bc51a1c4337603455788ac"
                                }
                            },
                            {
                                "value": 0.0013421,
                                "n": 29,
                                "scriptPubKey": {
                                    "hex": "76a914fd5d4d85ebc6716a3373ca92949047dbe692fd8988ac"
                                }
                            },
                            {
                                "value": 0.00126366,
                                "n": 30,
                                "scriptPubKey": {
                                    "hex": "a914c6dd2fba3363ae36a370b5a90d30bb932f338ef187"
                                }
                            },
                            {
                                "value": 0.00107627,
                                "n": 31,
                                "scriptPubKey": {
                                    "hex": "76a914f5ddf4b574cf78654400e62a48ead634b953472a88ac"
                                }
                            },
                            {
                                "value": 0.00103847,
                                "n": 32,
                                "scriptPubKey": {
                                    "hex": "76a9140f6e3b67da330b1c54922d632cd9408cb6d3871788ac"
                                }
                            },
                            {
                                "value": 0.00103358,
                                "n": 33,
                                "scriptPubKey": {
                                    "hex": "76a91436876b22f85f6b29113e07030e7894c403c0eb6888ac"
                                }
                            }
                        ],
                        "hex": "02000000014ce2284e24221aa6d660ed5caa672f94ccfb1e6fc1fd99f61c148bce09fcd7cb020000006b483045022100d260efe69f776811617e2fbf6e126e416a26fc54b6aa8787bfc6b0f03e83a3cd022018785547b18aab8975ac3ae67733cca483b6985ef82aee0eaaf1d4746a68e18f41210353aeb0c7187cb763ac041c4c720ea4e7168fc28d1d57b805cd1b288cb71eff38feffffff22907924050000000017a91475a59de09f942e6d8f41ce9e7a9777fd31e4b38e87dced3601000000001976a914a455cb288775c24cfca92682b8a4d44db5fad5db88acef273301000000001976a91437b078a6bf1ef587716a125f5b3ff6c6d3305e7988ac8db09d00000000001976a914b0409421f32ea5341cd2f0b49d4993a49efe737f88acf3729c00000000001976a9145417b1969c16432235013fa940dc4f1bc61fea1088acc06d9c000000000017a914b74b51785f7d0b67f1b93f0350d2ddad033ac05487e81e9c00000000001976a91431037ed33ab77553a950c8abed18564d4dbb686688aca6cd9800000000001976a914aa6ab9b075da7f8709e1b2424f0f2907059b8d7188ac561d6c00000000001976a9143eb39e49b1cd795b10a71ed69b8c674874f14e0c88ac4bd83700000000001976a9147b90bb963aa10f7dc09cbcb29d09e8f3e5ef74cc88ace3002c00000000001976a9143d2c04c7ca9075e7ade0611f24d2f832b2992dc088ac73492700000000001976a91424dda7877e0fbb61366a54949fcb986769119bc488ac403315000000000017a914987d534c64bfa2675b274a190e4aa4bd0b7992e587ead71200000000001976a91447689913a2dc71bd88b9e5544a7e4edd9975cb5588ac3bd61000000000001976a914b203e4871b07dc3b87a428712697f91fc25d516188ac22631000000000001976a91446cb6306ca795cba91d094658e2b67ee9a7f4aa688acf5d50f00000000001976a9140bbd9cd26b30c9502138370d2eb5920179fbec2f88ac349b0f00000000001976a91469347f8294ca6978f1a871d5548b2039d994602e88ac9e420f00000000001976a914f594ad1e831fc5c3e8736e16e0955c6d3c8cec1688ac00040f00000000001976a914245a86a1ba99e7aff0087b5662885d417c6f84e888ac2d9e0800000000001976a9141fb798d1e112fb79b365a12d0225065dcfd3163a88acc05508000000000017a914521d76cd01774068b664a08e512ab03125f989cf8735a00600000000001976a9144232e2afff0a1248793a3971c64230e10c923ed088ac6f2ccb11000000001976a914525941b21cf26088467933b7182014a470eeac8288ac96130600000000001976a9143b24cbe507c5505f83860a22697fe4688cb75f1688ac64ad0500000000001976a9147af4109734e8c8a606b6a1b1b520c6dddc6c869288acb2850300000000001976a9143c9bcf0bde1afe9d561e0149163cc990e37e161688acad800300000000001976a914b0affdf725f7ac1013eee60bdb36f58a33aa2c4688ac3eb60200000000001976a9144463b427100121ea44c4b5bc51a1c4337603455788ac420c0200000000001976a914fd5d4d85ebc6716a3373ca92949047dbe692fd8988ac9eed01000000000017a914c6dd2fba3363ae36a370b5a90d30bb932f338ef1876ba40100000000001976a914f5ddf4b574cf78654400e62a48ead634b953472a88aca7950100000000001976a9140f6e3b67da330b1c54922d632cd9408cb6d3871788acbe930100000000001976a91436876b22f85f6b29113e07030e7894c403c0eb6888ac21630800",
                        "time": 1538724408,
                        "blocktime": 1538724408
                    }
                ]
            }
        }
    },
    "connectBlocks": {
        "syncRanges": [
            {"lower": 549674, "upper": 549678}
        ],
        "fakeBlocks": {
            "549676": {
                "height": 549676,
                "hash": "00000001112f0a4b2fbe27997f85e893d03069b368dfba298fe33eb62bc73f1b"
            },
            "549677": {
                "height": 549677,
                "hash": "00000000b10ed260d98dae5fbaae05040a26403edfc5963a1eb2b84601925ac3"
            },
            "549678": {
                "height": 549678,
                "hash": "0000000090438b8c8613d785e5f439c31d1442810f2650b33b6397814960826d"
            }
        },
        "realBlocks": {
            "549676": {
                "height": 549676,
                "hash": "000000017fcec281ac7f04e8e052437a07b035ba732eeb902ca07d80fed3ed9e"
            },
            "549677": {
                "height": 549677,
                "hash": "00000001153a63cff4a1b52ef0521687b52740de4171679d9df5c14022bb357c"
            },
            "549678": {
                "height": 549678,
                "hash": "000000016318f5193794e39a5476af38ed78440454454838409314cd756ec00e"
            }
        }
    }
}
