{
    "connectBlocks": {
        "syncRanges": [
            {"lower": 1851157, "upper": 1851162}
        ],
        "blocks": {
            "1851162": {
                "height": 1851162,
                "hash": "0000000050a2ab1816b07e63ee9faf8cefbb44a65192e1c5a7360c41efd1d1ef",
                "noTxs": 2,
                "txDetails": [
                    {
			            "hex": "0100000001aef422fb91cd91e556966fed4121ac44017a761d71385596536bb447ae05213e000000006a47304402202341ac4297925257dc72eb418a069c45e76f7070340e27501f6308cc7eff45f802204a347915adceff5f6fc9b8075d95d47887d46b344c7bbc8066d315931b189ad001210228c2520812b7f8c63e7a088c61b6348b22fa0c98812e736a1fd896bc828d3c65feffffff028041f13d000000001976a91478379ea136bb5783b675cd11e412bf0703995aeb88aca9983141000000001976a9144d869697281ad18370313122795e56dfdc3a331388ac193f1c00",
			            "txid": "f81c34b300961877328c3aaa7cd5e69068457868309fbf1e92544e3a6a915bcb",
                        "version": 1,
                        "vin": [
                            {
				                "txid": "3e2105ae47b46b53965538711d767a0144ac2141ed6f9656e591cd91fb22f4ae",
                                "vout": 0,
                                "sequence": 4294967294,
                                "scriptSig": {
				                    "hex": "47304402202341ac4297925257dc72eb418a069c45e76f7070340e27501f6308cc7eff45f802204a347915adceff5f6fc9b8075d95d47887d46b344c7bbc8066d315931b189ad001210228c2520812b7f8c63e7a088c61b6348b22fa0c98812e736a1fd896bc828d3c65"
                                }
                            }
                        ],
                        "vout": [
                            {
				                "value": 10.39221120,
                                "n": 0,
                                "scriptPubKey": {
				                    "hex": "76a91478379ea136bb5783b675cd11e412bf0703995aeb88ac"
                                }
                            },
                            {
				                "value": 10.93769385,
                                "n": 1,
                                "scriptPubKey": {
				                    "hex": "76a9144d869697281ad18370313122795e56dfdc3a331388ac"
                                }
                            }
                        ],
			                "time": 1583392607,
			                "blocktime": 1583392607
                    }
                ]
            }
        }
    },
    "handleFork": {
        "syncRanges": [
            {"lower": 1851157, "upper": 1851162}
        ],
        "fakeBlocks": {
            "1851159": {
                "height": 1851159,
                "hash": "0000000954c26c65b18f72bd3e09d21033b7bb5e5083834912c12ebd27a487a1"
            },
            "1851160": {
                "height": 1851160,
                "hash": "0000001246c307c2c82e4186f48db5e3a8a3ce7d10247b904ecef36ed857aaa5"
            },
            "1851161": {
                "height": 1851161,
                "hash": "0000000c6a16db38d0c8ccf070b67933a95d7a89bea070df19d129403164c937"
            },
            "1851162": {
                "height": 1851162,
                "hash": "0000000983707dadd92795f29427ea403bb08eb7f58e5a005ee4389c0a3bb4f5"
            }
        },
        "realBlocks": {
            "1851159": {
                "height": 1851159,
                "hash": "000000044e0aafd95fc2a7fa9ae55907c8995efa210bc323001e1369e6c2c36c"
            },
            "1851160": {
                "height": 1851160,
                "hash": "0000000de74eea08d48f9a3235036aee30d3acf0ab2c2c6a6a58d1d3331b75ac"
            },
            "1851161": {
                "height": 1851161,
                "hash": "000000157556e42684a33a917e5c64217fa33162ccf30167e28577d47dbecc2d"
            },
            "1851162": {
                "height": 1851162,
                "hash": "0000000050a2ab1816b07e63ee9faf8cefbb44a65192e1c5a7360c41efd1d1ef"
            }
        }
    }
}
