{
    "connectBlocks": {
        "syncRanges": [
            {"lower": 215931, "upper": 215951}
        ],
        "blocks": {
            "215943": {
                "height": 215943,
                "hash": "000000000b6ac6971dcdc55557fe84e3469c735f08e8f1ea657df95ec568a297",
                "noTxs": 2,
                "txDetails": [
                    {
                        "hex": "020000000142af5721a0f2d696466b52caf54c113cabbf3f03d72411ffbcc19139b0925854010000006a4730440220073d1cfd38421aeca25d00bfedb19d49ce08bc164dbf62d6fbccbb08445cde2d02207ae326a517234e79ec5600bb0a460f5a3a7590f67de70c669a3865086e5080c0012102ac6d9d2cad17e3cddbd77db02ba0f20b49ef33533b3c0143f7a2bba5c55023f7feffffff0290079bc10100000017a914c4be81a4c24c32f423fddd661069f66d4a0bc956878ee149f6070000001976a91427fbccd3c1e9c61f5d574609c57c4b2d274d412d88ac864b0300",
                        "txid": "48f0da83fe77e385b5ccd8fc038c5b2931ae4518c743eb41fb0a8f7c9ab27b59",
                        "version": 2,
                        "vin": [
                            {
                                "txid": "545892b03991c1bcff1124d7033fbfab3c114cf5ca526b4696d6f2a02157af42",
                                "vout": 1,
                                "scriptSig": {
                                    "hex": "4730440220073d1cfd38421aeca25d00bfedb19d49ce08bc164dbf62d6fbccbb08445cde2d02207ae326a517234e79ec5600bb0a460f5a3a7590f67de70c669a3865086e5080c0012102ac6d9d2cad17e3cddbd77db02ba0f20b49ef33533b3c0143f7a2bba5c55023f7"
                                },
                                "value": 417.39938302,
                                "sequence": 4294967294
                            }
                        ],
                        "vout": [
                            {
                                "value": 75.4313,
                                "valueSat": 7543130000,
                                "n": 0,
                                "scriptPubKey": {
                                    "hex": "a914c4be81a4c24c32f423fddd661069f66d4a0bc95687"
                                }
                            },
                            {
                                "value": 341.96808078,
                                "valueSat": 34196808078,
                                "n": 1,
                                "scriptPubKey": {
                                    "hex": "76a91427fbccd3c1e9c61f5d574609c57c4b2d274d412d88ac"
                                }
                            }
                        ],
                        "time": 1535538717,
                        "blocktime": 1535538717
                    }
                ]
            },
            "215929": {
                "height": 215929,
                "hash": "0000000004eca42bcd9a0adcb15c457c6a9bdbfab2973d8dad7857adffc23101",
                "noTxs": 2,
                "txDetails": [
                    {
                        "hex": "01000000010000000000000000000000000000000000000000000000000000000000000000ffffffff4c03794b0304706e865b08fabe6d6d00007f8f0000000000000000019bff1000000000000000400000000000000020010000000000000058000000390000000d2f6e6f64655374726174756d2f00000000058b08910f000000001976a914c982406f087057a97456e48d335546ae8d93a03c88ac1a22443e000000001976a914acc22c0822d82ae13e1a05f8506aea8783ab1e1e88ac8a08910f000000001976a914c2c29ebc787954ef99d01c5f79115abf7012fb8e88ac8a08910f000000001976a914d7b47d4b40a23c389f5a17754d7f60f511c7d0ec88ac8a08910f000000001976a914dc3e0793134b081145ec0c67a9c72a7b297df27c88ac00000000",
                        "txid": "14cb85e0064fa84d4a1447c687bca6816bdc795c6fcb80e3d3f55d623afd2ec1",
                        "version": 1,
                        "vin": [
                            {
                                "coinbase": "03794b0304706e865b08fabe6d6d00007f8f0000000000000000019bff1000000000000000400000000000000020010000000000000058000000390000000d2f6e6f64655374726174756d2f",
                                "sequence": 0
                            }
                        ],
                        "vout": [
                            {
                                "value": 2.61163147,
                                "valueSat": 261163147,
                                "n": 0,
                                "scriptPubKey": {
                                    "hex": "76a914c982406f087057a97456e48d335546ae8d93a03c88ac"
                                }
                            },
                            {
                                "value": 10.4465257,
                                "valueSat": 1044652570,
                                "n": 1,
                                "scriptPubKey": {
                                    "hex": "76a914acc22c0822d82ae13e1a05f8506aea8783ab1e1e88ac"
                                }
                            },
                            {
                                "value": 2.61163146,
                                "valueSat": 261163146,
                                "n": 2,
                                "scriptPubKey": {
                                    "hex": "76a914c2c29ebc787954ef99d01c5f79115abf7012fb8e88ac"
                                }
                            },
                            {
                                "value": 2.61163146,
                                "valueSat": 261163146,
                                "n": 3,
                                "scriptPubKey": {
                                    "hex": "76a914d7b47d4b40a23c389f5a17754d7f60f511c7d0ec88ac"
                                }
                            },
                            {
                                "value": 2.61163146,
                                "valueSat": 261163146,
                                "n": 4,
                                "scriptPubKey": {
                                    "hex": "76a914dc3e0793134b081145ec0c67a9c72a7b297df27c88ac"
                                }
                            }
                        ],
                        "time": 1535536752,
                        "blocktime": 1535536752
                    },
                    {
                        "hex": "0100000001f3073d7448e89b5b54d6e50c575e89eee9eec54db783bdec9fce1473cf01c096000000006a4730440220227d8c2b75cf984a13d86ef2b7d9e8986c44aec959332b0c1bdba9efb254ba1e02201068bf80623d6e214ee85c86721c8dca2d659797564acfe78ad0f914e003399f0121020c8e419f7a4b0501dfdbcdfa122b0a4479150220787b68d5811b3c773e1cb454ffffffff02904f0f00000000001976a91484783991f36aaa3bff9f010360fbd8023e995f4f88acd9b30700000000001976a9145f11f75814cb8aa6952740de181cc469690219bb88ac00000000",
                        "txid": "6339f2e24e77be885efa2801f9ef52e8c68c57c05d82067d68e210467c3f0660",
                        "version": 1,
                        "vin": [
                            {
                                "txid": "96c001cf7314ce9fecbd83b74dc5eee9ee895e570ce5d6545b9be848743d07f3",
                                "vout": 0,
                                "scriptSig": {
                                    "hex": "4730440220227d8c2b75cf984a13d86ef2b7d9e8986c44aec959332b0c1bdba9efb254ba1e02201068bf80623d6e214ee85c86721c8dca2d659797564acfe78ad0f914e003399f0121020c8e419f7a4b0501dfdbcdfa122b0a4479150220787b68d5811b3c773e1cb454"
                                },
                                "value": 0.01527641,
                                "sequence": 4294967295
                            }
                        ],
                        "vout": [
                            {
                                "value": 0.01003408,
                                "valueSat": 1003408,
                                "n": 0,
                                "scriptPubKey": {
                                    "hex": "76a91484783991f36aaa3bff9f010360fbd8023e995f4f88ac"
                                }
                            },
                            {
                                "value": 0.00504793,
                                "valueSat": 504793,
                                "n": 1,
                                "scriptPubKey": {
                                    "hex": "76a9145f11f75814cb8aa6952740de181cc469690219bb88ac"
                                }
                            }
                        ],
                        "time": 1535536752,
                        "blocktime": 1535536752
                    }
                ]
            }
        }
    },
    "connectBlocks": {
        "syncRanges": [
            {"lower": 215947, "upper": 215951}
        ],
        "fakeBlocks": {
            "215949": {
                "height": 215949,
                "hash": "00000000000000e463222f52668f5b66f15c65ee4db3c60ca6853ffa93ed21f3"
            },
            "215950": {
                "height": 215950,
                "hash": "00000000000002327a29e7fdf539e773e960e631622c46cf859efebdbb78f9a8"
            },
            "215951": {
                "height": 215951,
                "hash": "000000000000034fa12d7d3167b5cc37ae8b8e5e305b243c4842fdc576453837"
            }
        },
        "realBlocks": {
            "215949": {
                "height": 215949,
                "hash": "00000000000001e0624eaeddc6e71dd57a289bb7bedd95596b0fe69530c4ae82"
            },
            "215950": {
                "height": 215950,
                "hash": "000000000000004cad8dc943447df9d6420f7f8a61908a1b47f6231a2c58479d"
            },
            "215951": {
                "height": 215951,
                "hash": "00000000000000a028321edd2c74411fc14a9d2af1633776a8c4c07689aca081"
            }
        }
    }
}
