{
    "connectBlocks": {
        "syncRanges": [
            {"lower": 100000, "upper": 100020}
        ],
        "blocks": {
            "100005": {
                "height": 100005,
                "hash": "0000000000000521f66d113ea7ca9a5a03e0c1ade0c440bbd32c459b24d5d47e",
                "noTxs": 3,
                "txDetails": [
                    {
                        "hex": "01000000010000000000000000000000000000000000000000000000000000000000000000ffffffff00ffffffff03e184db0f00000000000017a914f5916158e3e2c4551c1796708db8367207ed13bb8700000000000000000000266a24a586010000000000000000000000000000000000000000000000000084efffe9a8e93376eb569b5f0000000000001976a914b3c2069c496bc13228c154b03993809f278233d188ac0000000000000000012ba2006f0000000000000000ffffffff0800002f646372642f",
                        "txid": "111e559788e2213ad354d0e293d79ce6ebda98340016fba5314ea62cfa157562",
                        "version": 1,
                        "vin": [
                            {
                                "txid": "",
                                "vout": 0,
                                "coinbase": "00002f646372642f",
                                "sequence": 4294967294
                            }
                        ],
                        "vout": [
                            {
                                "value": 2.66044641,
                                "n": 0,
                                "scriptPubKey": {
                                    "hex": "a914f5916158e3e2c4551c1796708db8367207ed13bb87",
                                    "addresses": [
                                        "Dcur2mcGjmENx4DhNqDctW5wJCVyT3Qeqkx"
                                     ]
                                }
                            },
                            {
                                "value": 0,
                                "n": 1,
                                "scriptPubKey": {
                                    "hex": "6a24a586010000000000000000000000000000000000000000000000000084efffe9a8e93376"
                                }
                            },
                            {
                                "value": 16.04015851,
                                "n": 2,
                                "scriptPubKey": {
                                    "hex": "76a914b3c2069c496bc13228c154b03993809f278233d188ac",
                                    "addresses": [
                                        "DshMNsvETDWpVoCe1re9NTAChiJagzsFV7J"
                                    ]
                                }
                            }
                        ],
                        "time": 1484891644,
                        "blocktime": 1484891644
                    },
                    {
                        "hex": "010000000771c0d98b5e604efb69b5dcccf6e934dd7fb40baa6572bbeb9e4ff75e5899aa1c0100000000ffffffff72d9c5d4a2798360f102badc1a0283934eb1ba04c69b7b152088d3c0f72069bd0100000000ffffffff73c8832d83ad240cbc582c0084279cdc9bfba725ae85d847024d25f3bfd26ce10100000000ffffffff7874bdd4ddd605ec3cfec5e5efbb73d482d2fc03227c6f5d210d1f41d706dad91600000000ffffffff7874bdd4ddd605ec3cfec5e5efbb73d482d2fc03227c6f5d210d1f41d706dad92f00000000ffffffff790d74bd9ff9178fc3ba60b8faaf05b8f78b604d4a90696791169c6682275c2f0100000000ffffffff7a64c28e2b9dfb8248744b234af4a151f7d223924d806869ac682d1861c99f860000000000ffffffff0291a9bad30900000000001976a914ae06b5f3af5d9e81f1a1a63dd0a64f19dafd7bc588ac32a285e90200000000001976a9148f2273ad9bb74f78fc3e24a9b29ed4756958001f88ac0000000000000000076c980a060000000039860100080000006b483045022100bbad991e492adc128329c01fc8a69cad490311192997d89fbb673a1dc3acd9e002205bc58d4db2c75cc9306a404f1878aa4e0bc0ef4774555fab802c84a5e9c5dd1a012103e4aa9749379b85116621c6308bcfc48d7d293f6866187fc26f6534987497912bd456de050000000010830100020000006a47304402204eeae188a6b7d983f3a316df1cb71c1884007b3557e554adfc53a7143a81c0cc02204c200cdaeb97ac0e268f5445163c320d0af67a7efc55bce14e47bf3e741395e20121035a0f902dc68ffe0e8e0559d3833d84dad9466f0ac467ca85ac0dac2abbbd6784da41de020000000022830100070000006b48304502210099eefa905ef76102a5aa15f256c75b60a5ac688b148ed2b2f2baa87531dee255022027f6bf71df34d63921ecb817adbac0b369f7350847550344504fdb51d3ddbec50121036d8a38a3e7219b42008bcc88a1d6de11479deaf077327b864b5181122c049884a6f71c0100000000c9840100030000006b48304502210097c20b800de44d256b9078e26408605295f511e92a01222e36fdc129eeb264d2022003e976c07cd3d2e2a955a28bd4510b7d6dd883c7699c76af43d09687f4500ab4012102d4828ba360e1409872b269c9a66a5bbdc04e2478cf38faaab370c953b683e8dbaf4d0e0100000000c9840100030000006b483045022100de0d039786d03fd1fbf2ba4383ed17b4120ab9ef5e5f197b413808bf74aede1402206bf601514f8a27777fad96f51ed3da65f129df03abd42fedf69af0a415b82f2b012102261c5be43f15ff9c6af795759047ccaec9f4805d5a31e3240a97313d7de858c057dfe2050000000002850100090000006b483045022100917523b954ea3e27c18c63d791070cbf37efa0066741719af153d80336b2b08102206fed9413ab193cfee63177a4b4ae44383a444669165438ec77f4193f9abcbe5f012103de17ca81a7ce2655abc63f2a5d0f85ab41c0cadd6e564eadb409fbe614bc679ee5047ea60c0000008d850100030000006b483045022100bc8d6aa9da128d9cb98bdb949fa25bb3a9d4e126b03d0ad66caa39c00ec1abff02200b90a3717c4f179ddbdeffe203a2c1ca58d3f4c51317955a47eef7ea0eea447f012102d73d8c7df63c5dcab39d0b22ce2e4380611be0e71c4a324f369c91e3818cdb9a",
                        "txid": "114694eebaddaf48adaffb097fb4ed338d0fe5650a337047b6c34c0c2ed48981",
                        "version": 2,
                        "vin": [
                            {
                               "txid": "1caa99585ef74f9eebbb7265aa0bb47fdd34e9f6ccdcb569fb4e605e8bd9c071",
                               "vout": 1,
                               "sequence": 4294967295,
                               "scriptSig": {
                                  "hex": "483045022100bbad991e492adc128329c01fc8a69cad490311192997d89fbb673a1dc3acd9e002205bc58d4db2c75cc9306a404f1878aa4e0bc0ef4774555fab802c84a5e9c5dd1a012103e4aa9749379b85116621c6308bcfc48d7d293f6866187fc26f6534987497912b"
                               }
                            },
                            {
                               "txid": "bd6920f7c0d38820157b9bc604bab14e9383021adcba02f1608379a2d4c5d972",
                               "vout": 1,
                               "sequence": 4294967295,
                               "scriptSig": {
                                  "hex": "47304402204eeae188a6b7d983f3a316df1cb71c1884007b3557e554adfc53a7143a81c0cc02204c200cdaeb97ac0e268f5445163c320d0af67a7efc55bce14e47bf3e741395e20121035a0f902dc68ffe0e8e0559d3833d84dad9466f0ac467ca85ac0dac2abbbd6784"
                               }
                            },
                            {
                               "txid": "e16cd2bff3254d0247d885ae25a7fb9bdc9c2784002c58bc0c24ad832d83c873",
                               "vout": 1,
                               "sequence": 4294967295,
                               "scriptSig": {
                                  "hex": "48304502210099eefa905ef76102a5aa15f256c75b60a5ac688b148ed2b2f2baa87531dee255022027f6bf71df34d63921ecb817adbac0b369f7350847550344504fdb51d3ddbec50121036d8a38a3e7219b42008bcc88a1d6de11479deaf077327b864b5181122c049884"
                               }
                            },
                            {
                               "txid": "d9da06d7411f0d215d6f7c2203fcd282d473bbefe5c5fe3cec05d6ddd4bd7478",
                               "vout": 22,
                               "sequence": 4294967295,
                               "scriptSig": {
                                  "hex": "48304502210097c20b800de44d256b9078e26408605295f511e92a01222e36fdc129eeb264d2022003e976c07cd3d2e2a955a28bd4510b7d6dd883c7699c76af43d09687f4500ab4012102d4828ba360e1409872b269c9a66a5bbdc04e2478cf38faaab370c953b683e8db"
                               }
                            },
                            {
                               "txid": "d9da06d7411f0d215d6f7c2203fcd282d473bbefe5c5fe3cec05d6ddd4bd7478",
                               "vout": 47,
                               "sequence": 4294967295,
                               "scriptSig": {
                                  "hex": "483045022100de0d039786d03fd1fbf2ba4383ed17b4120ab9ef5e5f197b413808bf74aede1402206bf601514f8a27777fad96f51ed3da65f129df03abd42fedf69af0a415b82f2b012102261c5be43f15ff9c6af795759047ccaec9f4805d5a31e3240a97313d7de858c0"
                               }
                            },
                            {
                               "txid": "2f5c2782669c16916769904a4d608bf7b805affab860bac38f17f99fbd740d79",
                               "vout": 1,
                               "sequence": 4294967295,
                               "scriptSig": {
                                  "hex": "483045022100917523b954ea3e27c18c63d791070cbf37efa0066741719af153d80336b2b08102206fed9413ab193cfee63177a4b4ae44383a444669165438ec77f4193f9abcbe5f012103de17ca81a7ce2655abc63f2a5d0f85ab41c0cadd6e564eadb409fbe614bc679e"
                               }
                            },
                            {
                               "txid": "869fc961182d68ac6968804d9223d2f751a1f44a234b744882fb9d2b8ec2647a",
                               "vout": 0,
                               "sequence": 4294967295,
                               "scriptSig": {
                                  "hex": "483045022100bc8d6aa9da128d9cb98bdb949fa25bb3a9d4e126b03d0ad66caa39c00ec1abff02200b90a3717c4f179ddbdeffe203a2c1ca58d3f4c51317955a47eef7ea0eea447f012102d73d8c7df63c5dcab39d0b22ce2e4380611be0e71c4a324f369c91e3818cdb9a"
                               }
                            }
                         ],
                         "vout": [
                            {
                               "value": 422.06931345,
                               "n": 0,
                               "scriptPubKey": {
                                  "hex": "76a914ae06b5f3af5d9e81f1a1a63dd0a64f19dafd7bc588ac",
                                  "addresses": [
                                     "Dsgq575bWosNScm9HigQDVHQdTkFQd3g7rC"
                                  ]
                               }
                            },
                            {
                               "value": 125.0778373,
                               "n": 1,
                               "scriptPubKey": {
                                  "hex": "76a9148f2273ad9bb74f78fc3e24a9b29ed4756958001f88ac",
                                  "addresses": [
                                     "Dse1jPcustc7sMudDycgH4HGbV85HCY3MMr"
                                  ]
                               }
                            }
                         ],
                        "time": 1484891644,
                        "blocktime": 1484891644
                    }
                ]
            },
            "100011": {
                "height": 100011,
                "hash": "00000000000000399eee039c7ebcdeaf7940e3b0bfa6b2d1dd332285e9572749",
                "noTxs": 5,
                "txDetails": [
                    {
                        "hex": "0100000004a1e19215642f11d809bc002b515d7b4dfa14c9488800f1f43650ca0c9ae03fac0200000000ffffffffa585dd9ddd253c81bed3641bfa41ec13e6de72f52d2f76845833e4c4a8f0d2120000000000ffffffffaaa6f277fc9ec80d875fd9ce57c1a3598665f30f627ed4c40c56856c7acec1ab0000000000ffffffffc50f02dd06e930f3e20093fcc53749e30564084665bb7cf2868092d508c8be010200000000ffffffff020756d01f0000000000001976a91486dbe10bdd00a6b8e16456966525dc484f52ce8288ac2ca6f9320100000000001976a914a472eab42acbe0a80b96e1245877223f45e889d688ac00000000000000000424b2305f000000008c850100000000006b483045022100c34624406214b85e80dafe5a6ac5c3651caf71d64f35f2472ca0f40187c5215c02202c401683ec1428076f03a7f30168892de2c2ff4e77d0001a7638ba57670f34c3012103da2b1c13507c9b96b399520c3233f6c81eb4beed2d30be8077ad3a04854e4fecdc2ff75800000000a0860100010000006a47304402202043e50984305d8a81867270dd1a78fd75c5a4cadca6ffec801b0333f1c3f50c0220187dc23684e2f0257cb264a606c9fd2325d4579716763f2f2946e6951f112a7101210309a4f12413c7524e330e5dc08611a968f076d547ef7b62be13ae54629e7554105fc06e3b00000000aa860100020000006a47304402205efdee5709a934bf18634aac3b4a15f461537e71e8cc0e071bf8375c40b59aad02203a13124efcf243ac853016120e66714b2127b0b369792bf0d22aecee39e304e80121023d74b0497fbdc497ad116f4e9dd1ccb08c1cad4baaf81257b9e6b706ff872e9b6ccf3e5f000000009c850100000000006a473044022041c129f846ede6cce7eb027700d669c1c5e4b5fbd54b4f19577449072381db58022072a0715a22922cd2f3abcb7b760f4120e1f84b7ed53ff3ffe3534a4a55cec04b012103da2b1c13507c9b96b399520c3233f6c81eb4beed2d30be8077ad3a04854e4fec",
                        "txid": "fbbb2c7c8e2e6c3d840b614089f238077cc60940f4d9089d413daf770e0ab976",
                        "version": 1,
                        "vin": [
                            {
                               "txid": "ac3fe09a0cca5036f4f1008848c914fa4d7b5d512b00bc09d8112f641592e1a1",
                               "vout": 2,
                               "sequence": 4294967295,
                               "scriptSig": {
                                  "hex": "483045022100c34624406214b85e80dafe5a6ac5c3651caf71d64f35f2472ca0f40187c5215c02202c401683ec1428076f03a7f30168892de2c2ff4e77d0001a7638ba57670f34c3012103da2b1c13507c9b96b399520c3233f6c81eb4beed2d30be8077ad3a04854e4fec"
                               }
                            },
                            {
                               "txid": "12d2f0a8c4e4335884762f2df572dee613ec41fa1b64d3be813c25dd9ddd85a5",
                               "vout": 0,
                               "sequence": 4294967295,
                               "scriptSig": {
                                  "hex": "47304402202043e50984305d8a81867270dd1a78fd75c5a4cadca6ffec801b0333f1c3f50c0220187dc23684e2f0257cb264a606c9fd2325d4579716763f2f2946e6951f112a7101210309a4f12413c7524e330e5dc08611a968f076d547ef7b62be13ae54629e755410"
                               }
                            },
                            {
                               "txid": "abc1ce7a6c85560cc4d47e620ff3658659a3c157ced95f870dc89efc77f2a6aa",
                               "vout": 0,
                               "sequence": 4294967295,
                               "scriptSig": {
                                  "hex": "47304402205efdee5709a934bf18634aac3b4a15f461537e71e8cc0e071bf8375c40b59aad02203a13124efcf243ac853016120e66714b2127b0b369792bf0d22aecee39e304e80121023d74b0497fbdc497ad116f4e9dd1ccb08c1cad4baaf81257b9e6b706ff872e9b"
                               }
                            },
                            {
                               "txid": "01bec808d5928086f27cbb6546086405e34937c5fc9300e2f330e906dd020fc5",
                               "vout": 2,
                               "sequence": 4294967295,
                               "scriptSig": {
                                  "hex": "473044022041c129f846ede6cce7eb027700d669c1c5e4b5fbd54b4f19577449072381db58022072a0715a22922cd2f3abcb7b760f4120e1f84b7ed53ff3ffe3534a4a55cec04b012103da2b1c13507c9b96b399520c3233f6c81eb4beed2d30be8077ad3a04854e4fec"
                               }
                            }
                         ],
                         "vout": [
                            {
                               "value": 5.33747207,
                               "n": 0,
                               "scriptPubKey": {
                                  "hex": "76a91486dbe10bdd00a6b8e16456966525dc484f52ce8288ac",
                                  "addresses": [
                                     "DsdFySbuMDf5DuLT9y2fKWMhHvbe1p3wFyt"
                                  ]
                               }
                            },
                            {
                               "value": 51.501891,
                               "n": 1,
                               "scriptPubKey": {
                                  "hex": "76a914a472eab42acbe0a80b96e1245877223f45e889d688ac",
                                  "addresses": [
                                     "DsfxRyT6X6Rkq1RdecTsjrA6yhFx7eZX3K6"
                                  ]
                               }
                            }
                         ],
                        "time": 1484894155,
                        "blocktime": 1484894155
                    }
                ]
            }
        }
    }
}
