{
    "connectBlocks": {
        "syncRanges": [
            {"lower": 1003776, "upper": 1003796}
        ],
        "blocks": {
            "1003776": {
                "height": 1003776,
                "hash": "b9775282a6def6a186d29584af8907c991e27e91603ce461bf5c79890f020a45",
                "noTxs": 2,
                "txDetails": [
                    {
                        "txid": "9f3400d241a594a5d7b039cad7c535226d481e486c8e54cf0e88d47149a53a79",
                        "version": 1,
                        "vin": [
                            {
                                "txid": "c2b57977801b69472ac635e2d53cb53e652ff432caa91c47ae9c70bc8d4b27a6",
                                "vout": 0,
                                "scriptSig": {
                                    "hex": "47304402203e68a85b0ae7fd4f6b4ab6abe44e091d08aba37dd787fc271467ffaee8c9733402205264badf478dbc18051331b2f53a43447f53f950ea98db5fdcca28ef179c122201"
                                },
                                "sequence": 4294967295
                            }
                        ],
                        "vout": [
                            {
                                "value": 0.00000000,
                                "n": 0,
                                "scriptPubKey": {
                                    "hex": ""
                                }
                            },
                            {
                                "value": 118.27,
                                "n": 1,
                                "scriptPubKey": {
                                    "hex": "2103fb4259bbe5c1e956a6b804ab19812f0cd0938cf6151be81aa14e3ffa955dfcd6ac"
                                }
                            },
                            {
                                "value": 118.28219178,
                                "n": 2,
                                "scriptPubKey": {
                                    "hex": "2103fb4259bbe5c1e956a6b804ab19812f0cd0938cf6151be81aa14e3ffa955dfcd6ac"
                                }
                            }
                        ],
                        "hex": "010000006eed435c01a6274b8dbc709cae471ca9ca32f42f653eb53cd5e235c62a47691b807779b5c2010000004847304402203e68a85b0ae7fd4f6b4ab6abe44e091d08aba37dd787fc271467ffaee8c9733402205264badf478dbc18051331b2f53a43447f53f950ea98db5fdcca28ef179c122201ffffffff03000000000000000000c0b2f1c002000000232103fb4259bbe5c1e956a6b804ab19812f0cd0938cf6151be81aa14e3ffa955dfcd6ac2a4d04c102000000232103fb4259bbe5c1e956a6b804ab19812f0cd0938cf6151be81aa14e3ffa955dfcd6ac00000000",
                        "time": 1547955566,
                        "blocktime": 1547955566
                    }
                ]
            },
            "1003796": {
                "height": 1003796,
                "hash": "8ec7b5006dd4b6683c6b58185064e94ab0b87f083ed4e58706f6f928cb4f9d58",
                "noTxs": 2,
                "txDetails": [
                    {
                        "txid": "1d8a926a59f64b0b5a5efcb3872801f74dfe30d0ed68330bd98295f05f6c0580",
                        "version": 1,
                        "vin": [
                            {
                                "txid": "7807e471847d0f66616653601d02b2ea482e97385d2c03daec77e000b62c10a1",
                                "vout": 1,
                                "scriptSig": {
                                    "hex": "473044022033a999110dcadb95223db2028f5fcbf3a5b37ec48498ec4678eaff0f6c8787b002207100681343a265c9995681702f3694cbbffaadaf1bc42a3b6fd69e3a79896f1701"
                                },
                                "sequence": 4294967295
                            }
                        ],
                        "vout": [
                            {
                                "value": 0.00000000,
                                "n": 0,
                                "scriptPubKey": {
                                    "hex": ""
                                }
                            },
                            {
                                "value": 459.47739724,
                                "n": 1,
                                "scriptPubKey": {
                                    "hex": "21025f48dc22185bc3f9428068600d779b9bbbe208a49ffbbe6af551000e70979cb7ac"
                                }
                            }
                        ],
                        "hex": "010000006eed435c01a6274b8dbc709cae471ca9ca32f42f653eb53cd5e235c62a47691b807779b5c2010000004847304402203e68a85b0ae7fd4f6b4ab6abe44e091d08aba37dd787fc271467ffaee8c9733402205264badf478dbc18051331b2f53a43447f53f950ea98db5fdcca28ef179c122201ffffffff03000000000000000000c0b2f1c002000000232103fb4259bbe5c1e956a6b804ab19812f0cd0938cf6151be81aa14e3ffa955dfcd6ac2a4d04c102000000232103fb4259bbe5c1e956a6b804ab19812f0cd0938cf6151be81aa14e3ffa955dfcd6ac00000000",
                        "time": 1547956478,
                        "blocktime": 1547956478
                    }
                ]
            }
        }
    }
}
