{
    "connectBlocks": {
        "syncRanges": [
            {"lower": 1003776, "upper": 1003796}
        ],
        "blocks": {
            "1003796": {
                "height": 1003796,
                "hash": "9f3400d241a594a5d7b039cad7c535226d481e486c8e54cf0e88d47149a53a79",
                "noTxs": 2,
                "txDetails": [
                    {
                        "txid": "9f3400d241a594a5d7b039cad7c535226d481e486c8e54cf0e88d47149a53a79",
                        "version": 1,
                        "vin": [
                            {
                                "txid": "c2b57977801b69472ac635e2d53cb53e652ff432caa91c47ae9c70bc8d4b27a6",
                                "vout": 1,
                                "scriptSig": {
                                    "hex": "47304402203e68a85b0ae7fd4f6b4ab6abe44e091d08aba37dd787fc271467ffaee8c9733402205264badf478dbc18051331b2f53a43447f53f950ea98db5fdcca28ef179c122201"
                                },
                                "sequence": 4294967295
                            }
                        ],
                        "vout": [
                            {
                                "value": 0.00000000,
                                "n": 0,
                                "scriptPubKey": {
                                    "hex": ""
                                }
                            },
                            {
                                "value": 118.27000000,
                                "n": 1,
                                "scriptPubKey": {
                                    "hex": "2103fb4259bbe5c1e956a6b804ab19812f0cd0938cf6151be81aa14e3ffa955dfcd6ac"
                                }
                            },
                            {
                                "value": 118.28219178,
                                "n": 2,
                                "scriptPubKey": {
                                    "hex": "2103fb4259bbe5c1e956a6b804ab19812f0cd0938cf6151be81aa14e3ffa955dfcd6ac"
                                }
                            }
                        ],
                        "hex": "010000006eed435c01a6274b8dbc709cae471ca9ca32f42f653eb53cd5e235c62a47691b807779b5c2010000004847304402203e68a85b0ae7fd4f6b4ab6abe44e091d08aba37dd787fc271467ffaee8c9733402205264badf478dbc18051331b2f53a43447f53f950ea98db5fdcca28ef179c122201ffffffff03000000000000000000c0b2f1c002000000232103fb4259bbe5c1e956a6b804ab19812f0cd0938cf6151be81aa14e3ffa955dfcd6ac2a4d04c102000000232103fb4259bbe5c1e956a6b804ab19812f0cd0938cf6151be81aa14e3ffa955dfcd6ac00000000",
                        "time": 1547955566,
                        "blocktime": 1547955566
                    }
                ]
            },
            "1003793": {
                "height": 1003793,
                "hash": "b784ed4c2a42b4f971825b670577dd03227c611a7852e0c1814b85ee62b9461a",
                "noTxs": 2,
                "txDetails": [
                    {
                        "txid": "8c806ebe9e252ed2b5fc4e0795f80ea46928d1b35c539414f0fc3041e9c9cc0c",
                        "version": 1,
                        "vin": [
                            {
                                "txid": "2be40b20383425b188fd557adc5d4d2c4ce105198fb21db8f4e4af9a4a5231b1",
                                "vout": 0,
                                "scriptSig": {
                                    "hex": "4730440220267b1945d446c285dc8e1398cc2c2bc95e0fc76c0e7867ba3dcd8615dd808482022001078ce59e104525bd25c4be14d15ef5eaa6a5a054eb7e1031d13ba34200fbf901"
                                },
                                "sequence": 4294967295
                            }
                        ],
                        "vout": [
                            {
                                "value": 0.00000000,
                                "n": 0,
                                "scriptPubKey": {
                                    "hex": ""
                                }
                            },
                            {
                                "value": 128.73999999,
                                "n": 1,
                                "scriptPubKey": {
                                    "hex": "21039ac9f70272400032dc3bd11628103fd8105acf41bc8ffb554b1ddd1956705f63ac"
                                }
                            }
                        ],
                        "hex": "01000000e4f0435c01b131524a9aafe4f4b81db28f1905e14c2c4d5ddc7a55fd88b1253438200be42b01000000484730440220267b1945d446c285dc8e1398cc2c2bc95e0fc76c0e7867ba3dcd8615dd808482022001078ce59e104525bd25c4be14d15ef5eaa6a5a054eb7e1031d13ba34200fbf901ffffffff020000000000000000007fa659ff020000002321039ac9f70272400032dc3bd11628103fd8105acf41bc8ffb554b1ddd1956705f63ac00000000",
                        "time": 1547956452,
                        "blocktime": 1547956452
                    }
                ]
            }
        }
    }
}
