{
  "connectBlocks": {
    "syncRanges": [
      {
        "lower": 430894,
        "upper": 430894
      }
    ],
    "blocks": {
      "430894": {
        "height": 430894,
        "hash": "ca642b4cebd715d7448066e72d9c1c9f7cc17a7c7275ce5732357f9ede6199c7",
        "noTxs": 2,
        "txDetails": [
          {
            "hex": "01000000010000000000000000000000000000000000000000000000000000000000000000ffffffff06032e93060101ffffffff0100000000000000000000000000",
            "txid": "c206fc61c6957c54f365e7416d57a7cb314674b64aa84443ffa9b6d196aca9d9",
            "version": 1,
            "locktime": 0,
            "vin": [
              {
                "coinbase": "032e93060101",
                "sequence": 4294967295
              }
            ],
            "vout": [
              {
                "value": 0.00000000,
                "valueSat": 0,
                "n": 0,
                "scriptPubKey": {
                  "asm": "",
                  "hex": "",
                  "type": "nonstandard"
                }
              }
            ],
            "blockhash": "ca642b4cebd715d7448066e72d9c1c9f7cc17a7c7275ce5732357f9ede6199c7",
            "height": 430894,
            "confirmations": 1036,
            "time": 1564178016,
            "blocktime": 1564178016,
            "size": 66
          },
          {
            "hex": "010000000175d0b5235b4786be686a50f04382c3e401a1e8aa1ba17e7c959a58ddd39efeaa010000006b483045022100e552531d4be4290438edc7e8c5d1e2b5548c1a76cd396dfa9423b0e55abb0c6a02203efc3f76133de9161ba787c5fd9ef4cffbfd0745cfea8cf3a3f6dd3bce9293d0012103961c8f7574f64a61087adf3057f394be8bdc33b7a8abcbc60a71f7477dbd52a1ffffffff03000000000000000000009bb81da10100001976a9143ae7ad31dc26934c71e61bbb3248fb509a5f5d5988ac009ca6920c0000001976a9140d570e6e31e046f05b26f8bd8b14adbc2e76f99988ac00000000",
            "txid": "877557968ae65d64e99d09170cd9548e8a309508596355cc264758ce8c483b4b",
            "version": 1,
            "locktime": 0,
            "vin": [
              {
                "txid": "aafe9ed3dd589a957c7ea11baae8a101e4c38243f0506a68be86475b23b5d075",
                "vout": 1,
                "scriptSig": {
                  "asm": "3045022100e552531d4be4290438edc7e8c5d1e2b5548c1a76cd396dfa9423b0e55abb0c6a02203efc3f76133de9161ba787c5fd9ef4cffbfd0745cfea8cf3a3f6dd3bce9293d001 03961c8f7574f64a61087adf3057f394be8bdc33b7a8abcbc60a71f7477dbd52a1",
                  "hex": "483045022100e552531d4be4290438edc7e8c5d1e2b5548c1a76cd396dfa9423b0e55abb0c6a02203efc3f76133de9161ba787c5fd9ef4cffbfd0745cfea8cf3a3f6dd3bce9293d0012103961c8f7574f64a61087adf3057f394be8bdc33b7a8abcbc60a71f7477dbd52a1"
                },
                "sequence": 4294967295
              }
            ],
            "vout": [
              {
                "value": 0.00000000,
                "valueSat": 0,
                "n": 0,
                "scriptPubKey": {
                  "asm": "",
                  "hex": "",
                  "type": "nonstandard"
                }
              },
              {
                "value": 17915.00000000,
                "valueSat": 1791500000000,
                "n": 1,
                "scriptPubKey": {
                  "asm": "OP_DUP OP_HASH160 3ae7ad31dc26934c71e61bbb3248fb509a5f5d59 OP_EQUALVERIFY OP_CHECKSIG",
                  "hex": "76a9143ae7ad31dc26934c71e61bbb3248fb509a5f5d5988ac",
                  "reqSigs": 1,
                  "type": "pubkeyhash",
                  "addresses": [
                    "DAWZGZ2NSQHgDY7HWZCkZEHC9ya5kiJVQJ"
                  ]
                }
              },
              {
                "value": 540.00000000,
                "valueSat": 54000000000,
                "n": 2,
                "scriptPubKey": {
                  "asm": "OP_DUP OP_HASH160 0d570e6e31e046f05b26f8bd8b14adbc2e76f999 OP_EQUALVERIFY OP_CHECKSIG",
                  "hex": "76a9140d570e6e31e046f05b26f8bd8b14adbc2e76f99988ac",
                  "reqSigs": 1,
                  "type": "pubkeyhash",
                  "addresses": [
                    "D6MdcXyHpuMTDSF6zLPLT2UmXHB2ZY5x37"
                  ]
                }
              }
            ],
            "blockhash": "ca642b4cebd715d7448066e72d9c1c9f7cc17a7c7275ce5732357f9ede6199c7",
            "height": 430894,
            "confirmations": 1037,
            "time": 1564178016,
            "blocktime": 1564178016,
            "size": 235
          }
        ]
      }
    }
  }
}