{
  "connectBlocks": {
    "syncRanges": [
      {
        "lower": 407407,
        "upper": 407407
      }
    ],
    "blocks": {
      "407407": {
        "height": 407407,
        "hash": "6aa3a471e610501b12d9dacf3353925fcc53c4b26f4a7195d42b412c5c80a5d6",
        "noTxs": 2,
        "txDetails": [
          {
            "hex": "01000000010000000000000000000000000000000000000000000000000000000000000000ffffffff06036f37060101ffffffff0100000000000000000000000000",
            "txid": "3f8f01aec6717ede0e167f267fe486f18ddd25a13afd910dc1d41537aa1c6658",
            "version": 1,
            "locktime": 0,
            "vin": [
              {
                "coinbase": "036f37060101",
                "sequence": 4294967295
              }
            ],
            "vout": [
              {
                "value": 0,
                "n": 0,
                "scriptPubKey": {
                  "asm": "",
                  "hex": "",
                  "type": "nonstandard"
                }
              }
            ],
            "blockhash": "6aa3a471e610501b12d9dacf3353925fcc53c4b26f4a7195d42b412c5c80a5d6",
            "time": 1562753629,
            "blocktime": 1562753629,
            "confirmations": 0
          },
          {
            "hex": "0100000001652779264ccc941129adb833b8a42a6d278a98f295d25a0a53868ab1dc13bed4020000006a473044022046c6ab760d25c7d94f20aa2c81cc281a57bb3fa174023dcaac385727ab05f214022056841e947398a1d86bf7d0b99191f7d3421d0abf6ad1357955d38f5fe6c3a8c40121023c85ccefc390984ba8f71a0f0b999b7b6c6e9a30ccd63087d67d34d5c1fefc7dffffffff0300000000000000000080170a4e830000001976a914771f45c78657c739f0cc26dfc0b5a87ddd6e431c88ac009ca6920c0000001976a914e7c53cbb09860c3713b44958dd644e4d9154345688ac00000000",
            "txid": "b25224449d0f5266073876e924c4d6a4f127175aae151a66db6619e4ca41fe1d",
            "version": 1,
            "locktime": 0,
            "vin": [
              {
                "txid": "d4be13dcb18a86530a5ad295f2988a276d2aa4b833b8ad291194cc4c26792765",
                "vout": 2,
                "scriptSig": {
                  "asm": "3044022046c6ab760d25c7d94f20aa2c81cc281a57bb3fa174023dcaac385727ab05f214022056841e947398a1d86bf7d0b99191f7d3421d0abf6ad1357955d38f5fe6c3a8c401 023c85ccefc390984ba8f71a0f0b999b7b6c6e9a30ccd63087d67d34d5c1fefc7d",
                  "hex": "473044022046c6ab760d25c7d94f20aa2c81cc281a57bb3fa174023dcaac385727ab05f214022056841e947398a1d86bf7d0b99191f7d3421d0abf6ad1357955d38f5fe6c3a8c40121023c85ccefc390984ba8f71a0f0b999b7b6c6e9a30ccd63087d67d34d5c1fefc7d"
                },
                "sequence": 4294967295
              }
            ],
            "vout": [
              {
                "value": 0.00000000,
                "valueSat": 0,
                "n": 0,
                "scriptPubKey": {
                  "asm": "",
                  "hex": "",
                  "type": "nonstandard"
                }
              },
              {
                "value": 5639.50000000,
                "valueSat": 563950000000,
                "n": 1,
                "scriptPubKey": {
                  "asm": "OP_DUP OP_HASH160 771f45c78657c739f0cc26dfc0b5a87ddd6e431c OP_EQUALVERIFY OP_CHECKSIG",
                  "hex": "76a914771f45c78657c739f0cc26dfc0b5a87ddd6e431c88ac",
                  "reqSigs": 1,
                  "type": "pubkeyhash",
                  "addresses": [
                    "DFzxQweDpy41rwm3aue4eJpiTKKJwJuLYj"
                  ]
                }
              },
              {
                "value": 540.00000000,
                "valueSat": 54000000000,
                "n": 2,
                "scriptPubKey": {
                  "asm": "OP_DUP OP_HASH160 e7c53cbb09860c3713b44958dd644e4d91543456 OP_EQUALVERIFY OP_CHECKSIG",
                  "hex": "76a914e7c53cbb09860c3713b44958dd644e4d9154345688ac",
                  "reqSigs": 1,
                  "type": "pubkeyhash",
                  "addresses": [
                    "DSGaurVjmEyVuqcz3LKGqGgcvmLZMwuou6"
                  ]
                }
              }
            ],
            "blockhash": "6aa3a471e610501b12d9dacf3353925fcc53c4b26f4a7195d42b412c5c80a5d6",
            "time": 1562753629,
            "blocktime": 1562753629,
            "confirmations": 0
          }
        ]
      }
    }
  },
  "handleFork": {
    "syncRanges": [
      {
        "lower": 407407,
        "upper": 407407
      }
    ],
    "fakeBlocks": {
      "407407": {
        "height": 407407,
        "hash": "915a2413d358f373be303f242aa92619e6e0eeb16856217140f8749b86acea79"
      }
    },
    "realBlocks": {
      "407407": {
        "height": 407407,
        "hash": "6aa3a471e610501b12d9dacf3353925fcc53c4b26f4a7195d42b412c5c80a5d6"
      }
    }
  }
}