{
    "connectBlocks": {
        "syncRanges": [
            {"lower": 2101303, "upper": 2101345}
        ],
        "blocks": {
            "2101317": {
                "height": 2101317,
                "hash": "debcad94a94ec0a18088ce418207c3f0169aeb278db5d5e7fe1acc0a854169be",
                "noTxs": 3,
                "txDetails": [
                    {
                        "hex": "0100000001ccc918717419ea3c038f5e1b4c1eb20ede84d5157acb394b89d15bd1922f51e201000000da004730440220652ffef2be035bb7365f30f16450e64fdcba0f18c41fcd0f36e74f5c50d30c0902200d1bf9a4ab1e16d16e47271f10a918461c005ab5793a2b7eb67e1f14cda20151014830450221008c89d5526a3dbab2fd506fb88c3de5e1d0e94d57c408e4f2c39c35cba4c27a0902205bd541dda1703ba2f239ef092e3b59f1092acc71c5135834f9d49b8d030d0f480147522103abf01d993487a683db0a788298e176624b8530c9481b8f3f17eaec015a6e8c882103ec7f0dd153f1fa7f2fd5d6b331796298ebd0a657950c70cbb58eac34c7b475f352aeffffffff0200743ba40b00000017a914f2c3c9e719f5c996ca59798309b3677c5385070d8700f0a24c795a010017a91401d4df05a673fc46698c4d2effdac931d76002528700000000",
                        "txid": "14e085da1e44a7885fde414a6efb2f92b856625ca8f874ac11e09c776304a886",
                        "version": 1,
                        "vin": [
                            {
                                "txid": "e2512f92d15bd1894b39cb7a15d584de0eb21e4c1b5e8f033cea19747118c9cc",
                                "vout": 1,
                                "scriptSig": {
                                    "hex": "004730440220652ffef2be035bb7365f30f16450e64fdcba0f18c41fcd0f36e74f5c50d30c0902200d1bf9a4ab1e16d16e47271f10a918461c005ab5793a2b7eb67e1f14cda20151014830450221008c89d5526a3dbab2fd506fb88c3de5e1d0e94d57c408e4f2c39c35cba4c27a0902205bd541dda1703ba2f239ef092e3b59f1092acc71c5135834f9d49b8d030d0f480147522103abf01d993487a683db0a788298e176624b8530c9481b8f3f17eaec015a6e8c882103ec7f0dd153f1fa7f2fd5d6b331796298ebd0a657950c70cbb58eac34c7b475f352ae"
                                },
                                "sequence": 4294967295
                            }
                        ],
                        "vout": [
                            {
                                "value": 500.00000000,
                                "n": 0,
                                "scriptPubKey": {
                                    "hex": "a914f2c3c9e719f5c996ca59798309b3677c5385070d87"
                                }
                            },
                            {
                                "value": 3809520.00000000,
                                "n": 1,
                                "scriptPubKey": {
                                    "hex": "a91401d4df05a673fc46698c4d2effdac931d760025287"
                                }
                            }
                        ],
                        "time": 1576249514,
                        "blocktime": 1576249514
                    },
                    {
                        "hex": "01000000018e7275b4aa7ac76609bfb0259837fab9317f691045ec6ca6218363b827690eca01000000db0048304502210096021cc5d6ee479887d2eacf16ebb2867bf666a9c9fbc3dd92b1604e0d0ddc51022014e68ad785126dead79421f8027bfe2fc6ccc70a3cb2159fd071170ff4a0a2b101483045022100e0e68deca4b83ec36898e89b35d6cc17e24f2afee7f821f294ee7f02b226fd9202207ac48ecb29433023d2d4e2f93f1e844e1cb31047317490cfd4e886d07ce4925c0147522103abf01d993487a683db0a788298e176624b8530c9481b8f3f17eaec015a6e8c882103ec7f0dd153f1fa7f2fd5d6b331796298ebd0a657950c70cbb58eac34c7b475f352aeffffffff0200743ba40b00000017a914a33f3c34fa6cf20d5c69bff84ce516adbe85c6708700d950f219f6000017a91401d4df05a673fc46698c4d2effdac931d76002528700000000",
                        "txid": "e0432574b3ec052a0622639c781bf5eee5aa7372361e329dd6bc434db1b03db7",
                        "version": 1,
                        "vin": [
                            {
                                "txid": "ca0e6927b8638321a66cec4510697f31b9fa379825b0bf0966c77aaab475728e",
                                "vout": 1,
                                "scriptSig": {
                                    "hex": "0048304502210096021cc5d6ee479887d2eacf16ebb2867bf666a9c9fbc3dd92b1604e0d0ddc51022014e68ad785126dead79421f8027bfe2fc6ccc70a3cb2159fd071170ff4a0a2b101483045022100e0e68deca4b83ec36898e89b35d6cc17e24f2afee7f821f294ee7f02b226fd9202207ac48ecb29433023d2d4e2f93f1e844e1cb31047317490cfd4e886d07ce4925c0147522103abf01d993487a683db0a788298e176624b8530c9481b8f3f17eaec015a6e8c882103ec7f0dd153f1fa7f2fd5d6b331796298ebd0a657950c70cbb58eac34c7b475f352ae"
                                },
                                "sequence": 4294967295
                            }
                        ],
                        "vout": [
                            {
                                "value": 500.00000000,
                                "n": 0,
                                "scriptPubKey": {
                                    "hex": "a914a33f3c34fa6cf20d5c69bff84ce516adbe85c67087"
                                }
                            },
                            {
                                "value": 2705913.00000000,
                                "n": 1,
                                "scriptPubKey": {
                                    "hex": "a91401d4df05a673fc46698c4d2effdac931d760025287"
                                }
                            }
                        ],
                        "time": 1576249514,
                        "blocktime": 1576249514
                    }
                ]
            },
            "2101339": {
                "height": 2101339,
                "hash": "da25c3650e1feacfabbc4b6a65d7ba70a3f354b763506f1348d798f51cbe5b35",
                "noTxs": 7,
                "txDetails": [
                    {
                        "hex": "01000000018ab51e1ed1f2671fa03041d32911f70eabe7e5b36289dbaecbb13cdd6376022c01000000d9004730440220593c40ce566ca2137eea75f2b3c9aedb79671b75b65a6cc19002ff63f4c568fe0220163ff99d3baf64efaaa8fa48f6ee9cd488c9c9931a70e87ab5eca107f115d9f4014730440220784a49214b47a75056351f676467f6dab5f06f84259f7fc7e1bc9efeab55eaf202204d53d292bdc1c0db7567b0056ec715a0f24ebe0f7ba95fdb8e5591d8a3da73820147522103abf01d993487a683db0a788298e176624b8530c9481b8f3f17eaec015a6e8c882103ec7f0dd153f1fa7f2fd5d6b331796298ebd0a657950c70cbb58eac34c7b475f352aeffffffff0200743ba40b00000017a9144051325c50c4e2c3e867342b2639204d844399d8870081f16957a2010017a91401d4df05a673fc46698c4d2effdac931d76002528700000000",
                        "txid": "bfe99f76c54ce18b56220670c7c42ded599f5043f65b65e6b2066867b29ef19c",
                        "version": 1,
                        "vin": [
                            {
                                "txid": "2c027663dd3cb1cbaedb8962b3e5e7ab0ef71129d34130a01f67f2d11e1eb58a",
                                "vout": 1,
                                "scriptSig": {
                                    "hex": "004730440220593c40ce566ca2137eea75f2b3c9aedb79671b75b65a6cc19002ff63f4c568fe0220163ff99d3baf64efaaa8fa48f6ee9cd488c9c9931a70e87ab5eca107f115d9f4014730440220784a49214b47a75056351f676467f6dab5f06f84259f7fc7e1bc9efeab55eaf202204d53d292bdc1c0db7567b0056ec715a0f24ebe0f7ba95fdb8e5591d8a3da73820147522103abf01d993487a683db0a788298e176624b8530c9481b8f3f17eaec015a6e8c882103ec7f0dd153f1fa7f2fd5d6b331796298ebd0a657950c70cbb58eac34c7b475f352ae"
                                },
                                "sequence": 4294967295
                            }
                        ],
                        "vout": [
                            {
                                "value": 500.00000000,
                                "n": 0,
                                "scriptPubKey": {
                                    "hex": "a9144051325c50c4e2c3e867342b2639204d844399d887"
                                }
                            },
                            {
                                "value": 4599713.00000000,
                                "n": 1,
                                "scriptPubKey": {
                                    "hex": "a91401d4df05a673fc46698c4d2effdac931d760025287"
                                }
                            }
                        ],
                        "time": 1576254096,
                        "blocktime": 1576254096
                    },
                    {
                        "hex": "0100000001c536d697327ee834f55bf6347ee73d6413b6126ec54ae69700caf4be6723192d01000000db00483045022100bf6ecb6ba5586adc0fcc95e2205d75c8965ebb17d892d5a1459e1f73aa1c5efb022023988cffc13d4942f44ac4f82dfc79547ce312b2d6dda62b2f6e875465b7faeb01483045022100d3d67d93d7e2c3224036f09ad2f9a07ef12d65a8d8542f3d79249ebbc5f068a80220154638ade598e1929ed2c38bcab477805ea01c9582dbf1f25ec23f268013b11a0147522103abf01d993487a683db0a788298e176624b8530c9481b8f3f17eaec015a6e8c882103ec7f0dd153f1fa7f2fd5d6b331796298ebd0a657950c70cbb58eac34c7b475f352aeffffffff0200743ba40b00000017a914497d17688b2a45fa496db089ed6c8978ba809dd98700833f59ff3d010017a91401d4df05a673fc46698c4d2effdac931d76002528700000000",
                        "txid": "71a93721f624f14e957fb9de84d2c3bb49490d2d2f0b33b00350c7011e0f3068",
                        "version": 1,
                        "vin": [
                            {
                                "txid": "2d192367bef4ca0097e64ac56e12b613643de77e34f65bf534e87e3297d636c5",
                                "vout": 1,
                                "scriptSig": {
                                    "hex": "00483045022100bf6ecb6ba5586adc0fcc95e2205d75c8965ebb17d892d5a1459e1f73aa1c5efb022023988cffc13d4942f44ac4f82dfc79547ce312b2d6dda62b2f6e875465b7faeb01483045022100d3d67d93d7e2c3224036f09ad2f9a07ef12d65a8d8542f3d79249ebbc5f068a80220154638ade598e1929ed2c38bcab477805ea01c9582dbf1f25ec23f268013b11a0147522103abf01d993487a683db0a788298e176624b8530c9481b8f3f17eaec015a6e8c882103ec7f0dd153f1fa7f2fd5d6b331796298ebd0a657950c70cbb58eac34c7b475f352ae"
                                },
                                "sequence": 4294967295
                            }
                        ],
                        "vout": [
                            {
                                "value": 500.00000000,
                                "n": 0,
                                "scriptPubKey": {
                                    "hex": "a914497d17688b2a45fa496db089ed6c8978ba809dd987"
                                }
                            },
                            {
                                "value": 3496419.00000000,
                                "n": 1,
                                "scriptPubKey": {
                                    "hex": "a91401d4df05a673fc46698c4d2effdac931d760025287"
                                }
                            }
                        ],
                        "time": 1576254096,
                        "blocktime": 1576254096
                    }
                ]
            }
        }
    }
}
