{
    "connectBlocks": {
        "syncRanges": [
            {"lower": 550716, "upper": 550736}
        ],
        "blocks": {
            "550736": {
                "height": 550736,
                "hash": "00000000000000000181e327d1165480db82d915d46b9d39232526309072e014",
                "noTxs": 6,
                "txDetails": [
                    {
                        "hex": "020000000118a6b44b981cab21e486ee56c8bc74c58d907649842a0088bb0a80f2faa22263010000006b483045022100dea77aa13dcdd457c7bad51e7ee310046a8f8e3c370c25217010db57a60335ca022024937a8c0c179fc8ef9923694b2f7e276904ae859010dd12b46e356ce6d76147412102619a1e932ef161c58f0d8c24fbf6b5b709f8e996aa8caa7a26130240a3416176feffffff0582efe71f000000001976a914ab4c29c2e271a5378ffedfdb1a4bedd4cd571cde88ace0dced27000000001976a914cf5d4c7955cdf8bb3e516db1eb76efe538a448a588aca0910203000000001976a9148d0e5abd1c82e99670d332582ba20d423fa4323288acc4ba0800000000001976a91419f529fccd87142620546e1bbefdbc30a2a93a6188ac18841300000000001976a9149c90ec9c987a451961ea29a29e265c4db0466a2788ac4e670800",
                        "txid": "c100893fc0fb74c38277978a78433aa92df5473d94e1651962fff0e55c5762fc",
                        "version": 2,
                        "vin": [
                            {
                                "txid": "6322a2faf2800abb88002a844976908dc574bcc856ee86e421ab1c984bb4a618",
                                "vout": 1,
                                "scriptSig": {
                                    "hex": "483045022100dea77aa13dcdd457c7bad51e7ee310046a8f8e3c370c25217010db57a60335ca022024937a8c0c179fc8ef9923694b2f7e276904ae859010dd12b46e356ce6d76147412102619a1e932ef161c58f0d8c24fbf6b5b709f8e996aa8caa7a26130240a3416176"
                                },
                                "sequence": 4294967294
                            }
                        ],
                        "vout": [
                            {
                                "value": 5352938.26,
                                "n": 0,
                                "scriptPubKey": {
                                    "hex": "76a914ab4c29c2e271a5378ffedfdb1a4bedd4cd571cde88ac"
                                }
                            },
                            {
                                "value": 6699000.00,
                                "n": 1,
                                "scriptPubKey": {
                                    "hex": "76a914cf5d4c7955cdf8bb3e516db1eb76efe538a448a588ac"
                                }
                            },
                            {
                                "value": 505000.00,
                                "n": 2,
                                "scriptPubKey": {
                                    "hex": "76a9148d0e5abd1c82e99670d332582ba20d423fa4323288ac"
                                }
                            },
                            {
                                "value": 5721.00,
                                "n": 3,
                                "scriptPubKey": {
                                    "hex": "76a91419f529fccd87142620546e1bbefdbc30a2a93a6188ac"
                                }
                            },
                            {
                                "value": 12790.00,
                                "n": 4,
                                "scriptPubKey": {
                                    "hex": "76a9149c90ec9c987a451961ea29a29e265c4db0466a2788ac"
                                }
                            }
                        ],
                        "time": 1538669466,
                        "blocktime": 1538669466
                    },
                    {
                        "hex": "020000000e34620707fc49a213e57c18880360c465c51b3e8709e26829229bf6e0499cf1d9010000006a473044022057269d92e28fc3956075172173ef67a1f8e8e81bfe3a94e139373b5d8bfbace402202e6d80dcf22ce50ced02df68161c8af3f95476c498cc36f0b8450934fcf6387441210209bd24ca51b659d8950af12363513af576e776131eaad2baf72cf2d5ed2db4d0feffffff6991b494656029ed424f149c7fce99089a02dd534cc4b657312ac61e07691845010000006a4730440220773b5faf496664b9da746853148b9f4e65d7901b9e775f0d304f60bb45b6bce702207c725522f19c2ab1e40012ba76443368005ab45e50faff706b8a9f4e4f1ade294121029f5115229faf57ec14b710bbbb71cea99663f1987b0642095d957f4365ae8189feffffff922caf594105198fef72665241286caceba276ccd4f25de230d0154d01d20bf4010000006a4730440220232a37b6f939395d4acb5ea6deb95894833a08eceb7b47cd26f54f9b6ea0c0630220284837d62429c2d919e5371e461436a8b2f8364e5a391d2620c3da943f6da7734121034032e450981630d01d6f7f67b2f0984a4f8b447b8c17da16d448f3b911fb6e31feffffff1b663b64fa1d070e1c557bf51f9f9bb3ff1d57e7bb6699487fe6465e6124d357000000006b483045022100d1b020e2d6b54ee90bada53872669921b5dc532863a0d4195958248ac74e7233022025f89661164946dc4318b7f2a21aa034847cee15b1597ece4399931f8b8ebe724121035fa81b02f2a72f9e8a35ed2f4fc1913a3aa74a1991d4b125e895168f015fe399feffffff5b3306f9d512292ae2644af096ab1529b6caff7cc1a0d233fc3a7d3850165073010000006a47304402202014a66e2a6c27f9eda4e87f1495764995507e9b7379f7cea58ba8c344e1ab770220446218231005a000e8f20abfba75e964ebe4cef5d3e4f60bc6be46a548ad7c71412102c384cca7a64cb48f7dc3a8ded4ee0ac07146108799fcb6020c07a7b166661699feffffff63049d8a5b57abf73f080d38d28ea14d159589993910ffa1c1d4a566fe0a4bfe010000006b483045022100b3584a86c1dc3481af9d9a75ebc421d78c35f2818c4b4366d8be383732d7aa4c022029c09ec4c4fc181b3cbebe4634a4fded19288559972e551d8382a4140f44a1794121024c066efd26424849d0a15910d0a49ced61cd7b2c311d50ac0f95bd5a9d609a83feffffff27e91003f5c59999d0c78e278b6eca1ee1a6fed82bb60e92a5946443cd73a3ba010000006a47304402200b88b727cf75ade32a1cf6915bc6cfa1e9102813c4d69db5fac613170a205f22022016bebf2825c288d24732772fff1376936502dc79789ee5cf3879e2bf2564fe58412102a5e690c5f8218ac5521a0ea3b1f0e59d6ba1c17d938659affa585a9d81799cbafeffffffa37670dd96e4814d30487edb4b647d48dcd2fd81ab3f1f9f3c669ef93fa3f9fe010000006a473044022064f2ed5f821b0e98fb556eadf5a5636e36e98f965796baf2ff0ad0080f4e68e7022010891d52d74f1dc55d861ad4898ec18318345ed2b358c698213944b381ab900e412102beb30e14403c4a03277d559019b60cd8fb877872896565fc0cdebb843797accdfeffffff1c7bb2fa455084c1447914819004365df5500a2fc32d9e6250fd74c795082590010000006b483045022100a73951625dc0635ec373851730b5d268c60b36fcbbcda85228452176024a1db30220332ddb3940c0d05c215a41bb751a77d1969e240a3dd3612e7b2ec49913907761412103cf972121caef0095019ae80fc3a91cc3aa3590f57ad5751319b1a5bde03549bcfeffffff50540eee49c962f60790966073658688b74a6fc1c7dbd846f114405143ab9267010000006b483045022100d2487d304222d511d3c2645315f4821486f250c2edba85c1aec5ce5604ab6f0b0220275d210b5c97c90f275be2193413792511bfaa6d3338ea418fc01cbba42f96334121037cff19a246685228edd8df2c7dd5ed1efa1d779e8ce9ae99274c20912922bd59feffffff999e5c78b01055b92f36e277c8fda3f0253cecf8b9a7640fb85b0ebd79b58dc5000000006a473044022010e90626ae890f8d9ac5be7b780f93269794f897732d4ca78b45797994b88ab402200fe4f787e4b5cf66a29b7a8f0a07b6a85d7a9ea18b89f216e3211b53641032bd4121030803961c4606e6cacba6b1ddd615a35a3abaaec945f60245da9e777d23975fdcfefffffff27534af3a65ee1b60692cead34519e798bf01bd108a6e5ec6f6422bfe605820010000006b483045022100ae8a1a285a324544e588215e878c02d0db4853bb4064dbb7babde6f9d403738202201caab0d5afdbda4ee6a27f9e10fec2045717ac63b55ac647a5c2a5440c7c00c6412102ade72a40797ce9bf5662169d3317c1bd31455b086ecddbdc1bcb4cdf8ba6fc89feffffff40c16f37c67b80f53cf6fd906c3c53922bc21c050d560464258e45993bc20e92000000006a47304402205acc6b45d4c3e330a45dcd4ef69840edcd2b31da247151e741c0468f8e65ae98022032da991edacd2b5437a44bd2463a5f93ef1b32f3467d5748ceed5c70aa5eac1041210221099010e3629434851ceb0c5992388b815e9290b78aef55de30a08f73c29716feffffff4b7ebd29cb82e8cef3f7ebb275edf7f8604ae67821f137a4a3a309920431bd24000000006a47304402207a0f2ad56df4bb879fd645c2cf07d034079ff0574cbe54bf51234968c19f526802207b25da2a8304a4e1f8d4a78f0c7902e9eef647a856c6f5193bed10d1fa26b338412102aa396f2b3bdbc39134b4e1f52d02ec83d0cee811d35ae78a539c8428781f3876feffffff02dea0446d000000001976a914d1e5cdc2076e9e4890d5f5d0356dc4543b86e85d88ac033b0f00000000001976a91418195caf282889538a9ed9958bcc47a6bf7326b388ac00000000",
                        "txid": "28abbf7f1360142b11534051aac3fb05a26815cef4a8a726feb761a6e24bdf34",
                        "version": 2,
                        "vin": [
                            {
                                "txid": "d9f19c49e0f69b222968e209873e1bc565c4600388187ce513a249fc07076234",
                                "vout": 1,
                                "scriptSig": {
                                    "hex": "473044022057269d92e28fc3956075172173ef67a1f8e8e81bfe3a94e139373b5d8bfbace402202e6d80dcf22ce50ced02df68161c8af3f95476c498cc36f0b8450934fcf6387441210209bd24ca51b659d8950af12363513af576e776131eaad2baf72cf2d5ed2db4d0"
                                },
                                "sequence": 4294967294
                            },
                            {
                                "txid": "451869071ec62a3157b6c44c53dd029a0899ce7f9c144f42ed29606594b49169",
                                "vout": 1,
                                "scriptSig": {
                                    "hex": "4730440220773b5faf496664b9da746853148b9f4e65d7901b9e775f0d304f60bb45b6bce702207c725522f19c2ab1e40012ba76443368005ab45e50faff706b8a9f4e4f1ade294121029f5115229faf57ec14b710bbbb71cea99663f1987b0642095d957f4365ae8189"
                                },
                                "sequence": 4294967294
                            },
                            {
                                "txid": "f40bd2014d15d030e25df2d4cc76a2ebac6c2841526672ef8f19054159af2c92",
                                "vout": 1,
                                "scriptSig": {
                                    "hex": "4730440220232a37b6f939395d4acb5ea6deb95894833a08eceb7b47cd26f54f9b6ea0c0630220284837d62429c2d919e5371e461436a8b2f8364e5a391d2620c3da943f6da7734121034032e450981630d01d6f7f67b2f0984a4f8b447b8c17da16d448f3b911fb6e31"
                                },
                                "sequence": 4294967294
                            },
                            {
                                "txid": "57d324615e46e67f489966bbe7571dffb39b9f1ff57b551c0e071dfa643b661b",
                                "vout": 0,
                                "scriptSig": {
                                    "hex": "483045022100d1b020e2d6b54ee90bada53872669921b5dc532863a0d4195958248ac74e7233022025f89661164946dc4318b7f2a21aa034847cee15b1597ece4399931f8b8ebe724121035fa81b02f2a72f9e8a35ed2f4fc1913a3aa74a1991d4b125e895168f015fe399"
                                },
                                "sequence": 4294967294
                            },
                            {
                                "txid": "73501650387d3afc33d2a0c17cffcab62915ab96f04a64e22a2912d5f906335b",
                                "vout": 1,
                                "scriptSig": {
                                    "hex": "47304402202014a66e2a6c27f9eda4e87f1495764995507e9b7379f7cea58ba8c344e1ab770220446218231005a000e8f20abfba75e964ebe4cef5d3e4f60bc6be46a548ad7c71412102c384cca7a64cb48f7dc3a8ded4ee0ac07146108799fcb6020c07a7b166661699"
                                },
                                "sequence": 4294967294
                            },
                            {
                                "txid": "fe4b0afe66a5d4c1a1ff1039998995154da18ed2380d083ff7ab575b8a9d0463",
                                "vout": 1,
                                "scriptSig": {
                                    "hex": "483045022100b3584a86c1dc3481af9d9a75ebc421d78c35f2818c4b4366d8be383732d7aa4c022029c09ec4c4fc181b3cbebe4634a4fded19288559972e551d8382a4140f44a1794121024c066efd26424849d0a15910d0a49ced61cd7b2c311d50ac0f95bd5a9d609a83"
                                },
                                "sequence": 4294967294
                            },
                            {
                                "txid": "baa373cd436494a5920eb62bd8fea6e11eca6e8b278ec7d09999c5f50310e927",
                                "vout": 1,
                                "scriptSig": {
                                    "hex": "47304402200b88b727cf75ade32a1cf6915bc6cfa1e9102813c4d69db5fac613170a205f22022016bebf2825c288d24732772fff1376936502dc79789ee5cf3879e2bf2564fe58412102a5e690c5f8218ac5521a0ea3b1f0e59d6ba1c17d938659affa585a9d81799cba"
                                },
                                "sequence": 4294967294
                            },
                            {
                                "txid": "fef9a33ff99e663c9f1f3fab81fdd2dc487d644bdb7e48304d81e496dd7076a3",
                                "vout": 1,
                                "scriptSig": {
                                    "hex": "473044022064f2ed5f821b0e98fb556eadf5a5636e36e98f965796baf2ff0ad0080f4e68e7022010891d52d74f1dc55d861ad4898ec18318345ed2b358c698213944b381ab900e412102beb30e14403c4a03277d559019b60cd8fb877872896565fc0cdebb843797accd"
                                },
                                "sequence": 4294967294
                            },
                            {
                                "txid": "90250895c774fd50629e2dc32f0a50f55d36049081147944c1845045fab27b1c",
                                "vout": 1,
                                "scriptSig": {
                                    "hex": "483045022100a73951625dc0635ec373851730b5d268c60b36fcbbcda85228452176024a1db30220332ddb3940c0d05c215a41bb751a77d1969e240a3dd3612e7b2ec49913907761412103cf972121caef0095019ae80fc3a91cc3aa3590f57ad5751319b1a5bde03549bc"
                                },
                                "sequence": 4294967294
                            },
                            {
                                "txid": "6792ab43514014f146d8dbc7c16f4ab78886657360969007f662c949ee0e5450",
                                "vout": 1,
                                "scriptSig": {
                                    "hex": "483045022100d2487d304222d511d3c2645315f4821486f250c2edba85c1aec5ce5604ab6f0b0220275d210b5c97c90f275be2193413792511bfaa6d3338ea418fc01cbba42f96334121037cff19a246685228edd8df2c7dd5ed1efa1d779e8ce9ae99274c20912922bd59"
                                },
                                "sequence": 4294967294
                            },
                            {
                                "txid": "c58db579bd0e5bb80f64a7b9f8ec3c25f0a3fdc877e2362fb95510b0785c9e99",
                                "vout": 0,
                                "scriptSig": {
                                    "hex": "473044022010e90626ae890f8d9ac5be7b780f93269794f897732d4ca78b45797994b88ab402200fe4f787e4b5cf66a29b7a8f0a07b6a85d7a9ea18b89f216e3211b53641032bd4121030803961c4606e6cacba6b1ddd615a35a3abaaec945f60245da9e777d23975fdc"
                                },
                                "sequence": 4294967294
                            },
                            {
                                "txid": "205860fe2b42f6c65e6e8a10bd01bf98e71945d3ea2c69601bee653aaf3475f2",
                                "vout": 1,
                                "scriptSig": {
                                    "hex": "483045022100ae8a1a285a324544e588215e878c02d0db4853bb4064dbb7babde6f9d403738202201caab0d5afdbda4ee6a27f9e10fec2045717ac63b55ac647a5c2a5440c7c00c6412102ade72a40797ce9bf5662169d3317c1bd31455b086ecddbdc1bcb4cdf8ba6fc89"
                                },
                                "sequence": 4294967294
                            },
                            {
                                "txid": "920ec23b99458e256404560d051cc22b92533c6c90fdf63cf5807bc6376fc140",
                                "vout": 0,
                                "scriptSig": {
                                    "hex": "47304402205acc6b45d4c3e330a45dcd4ef69840edcd2b31da247151e741c0468f8e65ae98022032da991edacd2b5437a44bd2463a5f93ef1b32f3467d5748ceed5c70aa5eac1041210221099010e3629434851ceb0c5992388b815e9290b78aef55de30a08f73c29716"
                                },
                                "sequence": 4294967294
                            },
                            {
                                "txid": "24bd31049209a3a3a437f12178e64a60f8f7ed75b2ebf7f3cee882cb29bd7e4b",
                                "vout": 0,
                                "scriptSig": {
                                    "hex": "47304402207a0f2ad56df4bb879fd645c2cf07d034079ff0574cbe54bf51234968c19f526802207b25da2a8304a4e1f8d4a78f0c7902e9eef647a856c6f5193bed10d1fa26b338412102aa396f2b3bdbc39134b4e1f52d02ec83d0cee811d35ae78a539c8428781f3876"
                                },
                                "sequence": 4294967294
                            }
                        ],
                        "vout": [
                            {
                                "value": 18332141.74,
                                "scriptPubKey": {
                                    "hex": "76a914d1e5cdc2076e9e4890d5f5d0356dc4543b86e85d88ac"
                                }
                            },
                            {
                                "value": 9981.47,
                                "n": 1,
                                "scriptPubKey": {
                                    "hex": "76a91418195caf282889538a9ed9958bcc47a6bf7326b388ac"
                                }
                            }
                        ],
                        "time": 1538669466,
                        "blocktime": 1538669466
                    }
                ]
            }
        }
    },
    "handleFork": {
        "syncRanges": [
            {"lower": 550716, "upper": 550736}
        ],
        "fakeBlocks": {
            "550733": {
                "height": 550733,
                "hash": "000000000000000000a517d8c6f3073e6872d9f3333314de7456687b228a6358"
            },
            "550734": {
                "height": 550734,
                "hash": "000000000000000001afb0d221f7e4d62937a8aa60fd9e2ecadb74554c7033f6"
            },
            "550735": {
                "height": 550735,
                "hash": "00000000000000000003b4357ac6904a5985f5175dafa31ff7e6ec4fcafec310"
            },
            "550736": {
                "height": 550736,
                "hash": "000000000000000001d21a5f91bf04b1bc68b0bee17b02763547192b8deda84b"
            }
        },
        "realBlocks": {
            "550733": {
                "height": 550733,
                "hash": "000000000000000000555800282da8751765b6ae1d4979c0d024fe025d9a32da"
            },
            "550734": {
                "height": 550734,
                "hash": "0000000000000000013f343250868b23037c84082725c5ec317e1e09bf4a2dcf"
            },
            "550735": {
                "height": 550735,
                "hash": "000000000000000000cfe8d66f1f8d2f155b61425ebc2daf5d10b133edc93af5"
            },
            "550736": {
                "height": 550736,
                "hash": "00000000000000000181e327d1165480db82d915d46b9d39232526309072e014"
            }
        }
    }
}
