{
	"connectBlocks": {
		"syncRanges": [
			{"lower": 2200724, "upper": 2200744}
		],
		"blocks": {
			"2200744": {
				"height": 2200744,
				"hash": "000000000000239eef9c547395bdedb12c05377479a00a6e85cc2eac2ba33e18",
				"noTxs": 1,
				"txDetails": [
					{
						"hex": "010000000001010000000000000000000000000000000000000000000000000000000000000000ffffffff2003a8942104fb2e685b0837ff5e928d0000000d2f6e6f64655374726174756d2f00000000020000000000000000266a24aa21a9ede2f61c3f71d1defd3fa999dfa36953755c690689799962b48bebd836974e8cf90065cd1d000000001976a9147a2dd8d03f7ae3c1acc88d51213aaf7de20e62d088ac0120000000000000000000000000000000000000000000000000000000000000000000000000",
						"txid": "d12a3d710831f88c02caaf66a6662b211ec05adfa94392ddc2c57edbb006b299",
						"version": 1,
						"vin": [
							{
								"coinbase": "03a8942104fb2e685b0837ff5e928d0000000d2f6e6f64655374726174756d2f",
								"sequence": 0
							}
						],
						"vout": [
							{
								"value": 0.00000000,
								"n": 0,
								"scriptPubKey": {
									"hex": "6a24aa21a9ede2f61c3f71d1defd3fa999dfa36953755c690689799962b48bebd836974e8cf9"
								}
							},
							{
								"value": 5.00000000,
								"n": 1,
								"scriptPubKey": {
									"hex": "76a9147a2dd8d03f7ae3c1acc88d51213aaf7de20e62d088ac"
								}
							}
						]
					}
				]
			}
		}
	},
	"handleFork": {
		"syncRanges": [
			{"lower": 2200724, "upper": 2200744}
		],
		"fakeBlocks": {
			"2200744": {
				"height": 2200744,
				"hash": "00000000000091c2f138f8e97dfda7256f8aee2d4ee4ad52cefbad837ca50a99"
			},
			"2200743": {
				"height": 2200743,
				"hash": "000000000001596f4fd5ba68aa7a7e09d1a28096ea520940080fb1c128ca13a4"
			}
		},
		"realBlocks": {
			"2200744": {
				"height": 2200744,
				"hash": "000000000000239eef9c547395bdedb12c05377479a00a6e85cc2eac2ba33e18"
			},
			"2200743": {
				"height": 2200743,
				"hash": "000000000000b75b5efad34254aef25060f695a532589f993cf07f77986629df"
			}
		}
	}
}
