{
  "connectBlocks": {
    "syncRanges": [
      {
        "lower": 340750,
        "upper": 340770
      }
    ],
    "blocks": {
      "340756": {
        "height": 340756,
        "hash": "40c7c0bf84e8e6c0ed1ad92bc97d1b08d2da2a24dbc1912508a451e1dbf1b84f",
        "noTxs": 2,
        "txDetails": [
          {
            "hex": "020000000001010000000000000000000000000000000000000000000000000000000000000000ffffffff050314330500ffffffff020000000000000000000000000000000000266a24aa21a9ed598bdca4eab6001d5753ba33e9a50b1986649f4b477948b5f761decd6b742b4e0120000000000000000000000000000000000000000000000000000000000000000000000000",
            "txid": "e3d3524e7831f5c0677c79ca76d28d2d702479fb67c92a993fec402813857a10",
            "blocktime": 1649384064,
            "time": 1649384064,
            "locktime": 0,
            "version": 2,
            "vin": [
              {
                "coinbase": "0314330500",
                "sequence": 4294967295
              }
            ],
            "vout": [
              {
                "value": 0,
                "n": 0,
                "scriptPubKey": {
                  "hex": "",
                  "type": "nonstandard"
                }
              },
              {
                "value": 0,
                "n": 1,
                "scriptPubKey": {
                  "hex": "6a24aa21a9ed598bdca4eab6001d5753ba33e9a50b1986649f4b477948b5f761decd6b742b4e"
                }
              }
            ]
          },
          {
            "hex": "0200000001dc04621fb40be2823e9e3be355362ee8b8a703f8fac511adeea9c2b62a055517020000004847304402202fe07dc28ab5cd9ac8117f9bcc1e77b10a5cfe461f642057ecf07ddd2e9ce938022063a2523be3bb96dc8c8231a466a375e82bd0dfa62904bc28a2ca2ec152896b3601ffffffff03000000000000000000c0b2aec20700000023210309114bf489097c85e2c8356d8273620f95304b2a809a72f97fee44e09368ee33ac0247c6c20700000023210309114bf489097c85e2c8356d8273620f95304b2a809a72f97fee44e09368ee33ac00000000",
            "txid": "7403edf97d01490d4e94f60344c43952cec08dcc53ee74127971c236a24983c3",
            "blocktime": 1649384064,
            "time": 1649384064,
            "locktime": 0,
            "version": 2,
            "vin": [
              {
                "txid": "1755052ab6c2a9eead11c5faf803a7b8e82e3655e33b9e3e82e20bb41f6204dc",
                "vout": 2,
                "scriptSig": {
                  "hex": "47304402202fe07dc28ab5cd9ac8117f9bcc1e77b10a5cfe461f642057ecf07ddd2e9ce938022063a2523be3bb96dc8c8231a466a375e82bd0dfa62904bc28a2ca2ec152896b3601"
                },
                "sequence": 4294967295
              }
            ],
            "vout": [
              {
                "value": 0.00000000,
                "n": 0,
                "scriptPubKey": {
                  "hex": "",
                  "type": "nonstandard"
                }
              },
              {
                "value": 333.31,
                "n": 1,
                "scriptPubKey": {
                  "hex": "210309114bf489097c85e2c8356d8273620f95304b2a809a72f97fee44e09368ee33ac",
                  "addresses": [
                    "HNfujurT3BzM4HU9rVA52fU3XMX4eu4Qf7"
                  ]
                }
              },
              {
                "value": 333.32545282,
                "n": 2,
                "scriptPubKey": {
                  "hex": "210309114bf489097c85e2c8356d8273620f95304b2a809a72f97fee44e09368ee33ac",
                  "addresses": [
                    "HNfujurT3BzM4HU9rVA52fU3XMX4eu4Qf7"
                  ]
                }
              }
            ]
          }
        ]
      }
    }
  },
  "handleFork": {
    "syncRanges": [
      {
        "lower": 340750,
        "upper": 340770
      }
    ],
    "fakeBlocks": {
      "333511": {
        "height": 340751,
        "hash": "fb0e87a1ccadd775e7e7d31497ef30d8cf2ccc2bcbc57396a364c948b6c34016"
      },
      "333512": {
        "height": 340752,
        "hash": "b5e1eb1e02a8f31390152534c4e05a3976ee6ba14689cfc0ba9a866de460b887"
      },
      "333513": {
        "height": 340753,
        "hash": "1a2b9b3c74865c23612bd4dcb97b84213a4fc549cb5e8585a0117d53e9464e00"
      },
      "333514": {
        "height": 340754,
        "hash": "5603634c6dd553695f46b4f30010b3181087215c7ed291992d1c2864d70f46fe"
      }
    },
    "realBlocks": {
      "333511": {
        "height": 340751,
        "hash": "49b9feddcee7f41aa44b734958d111c132640a0c08913e3a7ab95eb837529414"
      },
      "333512": {
        "height": 340752,
        "hash": "a9fc9788302ef2de1a9beccff1827f32543fbc504f44f5866bd75bd771d6b7bc"
      },
      "333513": {
        "height": 340753,
        "hash": "fd1dd9831e96035050f405cef6025f35e7e0b1dfe6b39358ce5d052f70f4048a"
      },
      "333514": {
        "height": 340754,
        "hash": "0c614b3d0fbba6451c733bdc95e5ca4ad00ce699ecd6373220f460623e95576f"
      }
    }
  }
}
