{
  "connectBlocks": {
    "syncRanges": [
      {"lower": 52540, "upper": 52560}
    ],
    "blocks": {
      "52560": {
        "height": 52560,
        "hash": "0000001fd7770513f219cd3b1ee8f2ce9a86dc68073714c8d8db136318feb931",
        "noTxs": 1,
        "txDetails": [
          {
            "txid": "32f9ce2a59348445d0cabb02b8755ae2af9223e6aacee9997208e5a10b311f07",
            "version": 2,
            "vin": [
              {
                "coinbase": "0350cd000101",
                "sequence": 4294967295
              }
            ],
            "vout": [
              {
                "value": 8.66250000,
                "n": 0,
                "scriptPubKey": {
                  "asm": "02be09a13226d35f8f744518e0248e0c2051a708c7c3d023d86ca137baa1817a93 OP_CHECKSIG",
                  "hex": "2102be09a13226d35f8f744518e0248e0c2051a708c7c3d023d86ca137baa1817a93ac",
                  "reqSigs": 1,
                  "type": "pubkey",
                  "addresses": [
                    "TF9GSAHt11x8ZbqfneFtK1TR8SBfMFyVh2"
                  ]
                }
              },
              {
                "value": 51.97500000,
                "n": 1,
                "scriptPubKey": {
                  "asm": "OP_DUP OP_HASH160 813f3fff4391501da585a5095854fb8243edd9af OP_EQUALVERIFY OP_CHECKSIG",
                  "hex": "76a914813f3fff4391501da585a5095854fb8243edd9af88ac",
                  "reqSigs": 1,
                  "type": "pubkeyhash",
                  "addresses": [
                    "TMkbwVTHCWbdt46X9uvJJx5coVQtmdi8Em"
                  ]
                }
              },
              {
                "value": 0.00000000,
                "n": 2,
                "scriptPubKey": {
                  "asm": "OP_RETURN aa21a9ede2f61c3f71d1defd3fa999dfa36953755c690689799962b48bebd836974e8cf9",
                  "hex": "6a24aa21a9ede2f61c3f71d1defd3fa999dfa36953755c690689799962b48bebd836974e8cf9",
                  "type": "nulldata"
                }
              }
            ],
            "hex": "020000000001010000000000000000000000000000000000000000000000000000000000000000ffffffff060350cd000101ffffffff0310eda13300000000232102be09a13226d35f8f744518e0248e0c2051a708c7c3d023d86ca137baa1817a93ac608ecb35010000001976a914813f3fff4391501da585a5095854fb8243edd9af88ac0000000000000000266a24aa21a9ede2f61c3f71d1defd3fa999dfa36953755c690689799962b48bebd836974e8cf90120000000000000000000000000000000000000000000000000000000000000000000000000",
            "time": 1579497010,
            "blocktime": 1579497010
          }
        ]
      }
    }
  },
  "handleFork": {
    "syncRanges": [
      {"lower": 52554, "upper": 52560}
    ],
    "fakeBlocks": {
      "52558": {
        "height": 52558,
        "hash": "0000000303a5548a51befce17d2ab172bd289e4fb74c69b455883597db73a280"
      },
      "52559": {
        "height": 52559,
        "hash": "000000bcd2ac3fe0e896495862a092373825258700652842c70a20a6c1c26728"
      },
      "52560": {
        "height": 52560,
        "hash": "00000129806b8bf5e20457f1cfdef534301ccae0cab37ece91be91af8db42e09"
      }
    },
    "realBlocks": {
      "52558": {
        "height": 52558,
        "hash": "00000132421fe3a44a6e86678de930f9c45ea9b8b1de689d679b686dc2e5853d"
      },
      "52559": {
        "height": 52559,
        "hash": "000001685f9fb3e191628447270894c516770e211f2c46013f1fa7d786eec6f2"
      },
      "52560": {
        "height": 52560,
        "hash": "0000001fd7770513f219cd3b1ee8f2ce9a86dc68073714c8d8db136318feb931"
      }
    }
  }
}