{
    "blockHeight": 1241851,
    "blockHash": "00000000ff54973b45ac277fc9e92408479703d785eae0e96508bc5aa792d621",
    "blockTime": 1529571678,
    "blockTxs": [
        "0cbcd28da300a850fd922caf633f2aaca0fd0a2d4ce46c6f07314c644287527a",
        "32fe2a3a60eb952d6ade53b7030ddb6ad8af5797391857baaad37c5b20f3b5ca"
    ],
    "txDetails": {
        "0cbcd28da300a850fd922caf633f2aaca0fd0a2d4ce46c6f07314c644287527a": {
            "hex": "01000000010000000000000000000000000000000000000000000000000000000000000000ffffffff0a03fbf212055374617368ffffffff01483b5009000000001976a914014dc11b35cafe7605b4c1798a5b86efd788cff488ac00000000",
            "txid": "0cbcd28da300a850fd922caf633f2aaca0fd0a2d4ce46c6f07314c644287527a",
            "blocktime":1529571678,
            "time":1529571678,
            "locktime": 0,
            "version": 1,
            "vin": [
                {
                    "coinbase": "03fbf212055374617368",
                    "sequence": 4294967295
                }
            ],
            "vout": [
                {
                    "value": 1.56253000,
                    "n": 0,
                    "scriptPubKey": {
                        "hex": "76a914014dc11b35cafe7605b4c1798a5b86efd788cff488ac"
                    }
                }
            ]
        },
        "32fe2a3a60eb952d6ade53b7030ddb6ad8af5797391857baaad37c5b20f3b5ca": {
            "hex": "010000000321d231b0d81f74e29145cc5c7dc92b45aecaedc84ed0178d223c1ba75024ff58030000006a473044022004739fe75329dee2f6deedca41eec94ca9c5d6e3a3ad807f28813c81406b6db002204153c2c0c72214295aaeb637ff6390e8ea220adf7ef30f5c0e7b95933f880bed4121027909d648cd5d774d250e5f8ab4c4aadfba07f4abb835f9100387bdc047e176bcfeffffff21d231b0d81f74e29145cc5c7dc92b45aecaedc84ed0178d223c1ba75024ff58040000006a47304402206fd8709b72836a8a7c7d3059a2bcd11e835de7966277aa14a70aaa978a557ea3022036dc594d1050e98091f2382715461bae03faef774ca7ec1f9d6bd852cf3e12a84121028b5d4e481b88bcdb98cf5baff279ba364d73cf1a001bcbebee25895577897e67feffffff21d231b0d81f74e29145cc5c7dc92b45aecaedc84ed0178d223c1ba75024ff58050000006b483045022100cb820ff34bad9ac75e73c8eedc0929547021ec2e0b9099db39177702c1d5ac3802200f2b9727a1396f68e3bcf16a9b5f2ea0587a3496d9f483007b1d940a6edeb52841210387f3f2b2ef3d3ee85fb4530bb702af0fa3644b23d61e8c0e50c87d828cf27136feffffff06e8030000000000001976a9142d2fa4c2a38862814cca01f2f0b78d58f093dfc288ace8030000000000001976a9140ab1ed3b3358a1caec5e75475a1db96b668432b288ace8030000000000001976a914a65b5515f02325e02d3a296be60fe6f612265ea088ac60670100000000001976a914fc92ae15367bd3f9154bf475e07a4017bfadccac88ac48d0bd0b000000001976a91496c4871f24d2534c7c592699045940df9f3cb70088acc0150c00000000001976a9149c0d281ac7ae4e471cdd607af502cdeb038849c488ac00000000",
            "txid": "32fe2a3a60eb952d6ade53b7030ddb6ad8af5797391857baaad37c5b20f3b5ca",
            "blocktime":1529571678,
            "time":1529571678,
            "locktime": 0,
            "version": 1,
            "vin": [
                {
                    "txid": "58ff2450a71b3c228d17d04ec8edcaae452bc97d5ccc4591e2741fd8b031d221",
                    "vout": 3,
                    "sequence": 4294967294,
                    "scriptSig": {
                        "hex": "473044022004739fe75329dee2f6deedca41eec94ca9c5d6e3a3ad807f28813c81406b6db002204153c2c0c72214295aaeb637ff6390e8ea220adf7ef30f5c0e7b95933f880bed4121027909d648cd5d774d250e5f8ab4c4aadfba07f4abb835f9100387bdc047e176bc"
                    }
                },
                {
                    "txid": "58ff2450a71b3c228d17d04ec8edcaae452bc97d5ccc4591e2741fd8b031d221",
                    "vout": 4,
                    "sequence": 4294967294,
                    "scriptSig": {
                        "hex": "47304402206fd8709b72836a8a7c7d3059a2bcd11e835de7966277aa14a70aaa978a557ea3022036dc594d1050e98091f2382715461bae03faef774ca7ec1f9d6bd852cf3e12a84121028b5d4e481b88bcdb98cf5baff279ba364d73cf1a001bcbebee25895577897e67"
                    }
                },
                {
                    "txid": "58ff2450a71b3c228d17d04ec8edcaae452bc97d5ccc4591e2741fd8b031d221",
                    "vout": 5,
                    "sequence": 4294967294,
                    "scriptSig": {
                        "hex": "483045022100cb820ff34bad9ac75e73c8eedc0929547021ec2e0b9099db39177702c1d5ac3802200f2b9727a1396f68e3bcf16a9b5f2ea0587a3496d9f483007b1d940a6edeb52841210387f3f2b2ef3d3ee85fb4530bb702af0fa3644b23d61e8c0e50c87d828cf27136"
                    }
                }
            ],
            "vout": [
                {
                    "value": 0.00001000,
                    "n": 0,
                    "scriptPubKey": {
                        "hex": "76a9142d2fa4c2a38862814cca01f2f0b78d58f093dfc288ac"
                    }
                },
                {
                    "value": 0.00001000,
                    "n": 1,
                    "scriptPubKey": {
                        "hex": "76a9140ab1ed3b3358a1caec5e75475a1db96b668432b288ac"
                    }
                },
                {
                    "value": 0.00001000,
                    "n": 2,
                    "scriptPubKey": {
                        "hex": "76a914a65b5515f02325e02d3a296be60fe6f612265ea088ac"
                    }
                },
                {
                    "value": 0.00092000,
                    "n": 3,
                    "scriptPubKey": {
                        "hex": "76a914fc92ae15367bd3f9154bf475e07a4017bfadccac88ac"
                    }
                },
                {
                    "value": 1.96989000,
                    "n": 4,
                    "scriptPubKey": {
                        "hex": "76a91496c4871f24d2534c7c592699045940df9f3cb70088ac"
                    }
                },
                {
                    "value": 0.00792000,
                    "n": 5,
                    "scriptPubKey": {
                        "hex": "76a9149c0d281ac7ae4e471cdd607af502cdeb038849c488ac"
                    }
                }
            ]
        }
    }
}
