{
    "blockHeight": 1239639,
    "blockHash": "0000000075dd9708c23f5830de27c5d644983bb877c575c52926f19be7d80fe2",
    "blockTxs": [
        "f12d490ad439ff37c91e9ec5ecd5440c2d4a96653f2668402c5ebacc6d07dcf8",
        "0e78e3276bd59dd403306334ab05b2d58167b4cf04dbb94ae76dc189db5bf3df",
        "9eeba85181725993afc6a89e2e98c07e12bbd9c732b851af448eb6055d8d8ba7",
        "045f898538c5b9a99a4bf21c8e06aa7279caacdf7616994b7d4f0ed39637dff7",
        "8614ae1addce0983f8b1bb2e6139fca4e7aa2d4f57f28ce1145bd1103c75a307",
        "1d10b63e6d336b19ce7f7a867639b52b42be7e63ea53a86e5c7b101eb8f5bf59",
        "1cbb193374d455ad09f1ae4486418dbbd65435ac14b1b8733897976bd776478b",
        "722d99abace73265477b42849c86f9a8460a07aef7497187db24cffb4b27c856",
        "a856b35655852ec5d698561633f997b945ee03d57a7b60e3c86eaabdd3a90054",
        "e82cdbb67f6c23c72d0273bdd976697d5bfc4b2373e637f4eeb5211134b84bd6",
        "efd3295c37cd3988f16efc09d083dbbc27f5c0074b9ea0dffd4f8540b36dd02c",
        "b955bc3e800aa6d72c1a9eb9ce4a513f409ec923c31e30075f58336c830040a8",
        "9730ec3e10e5a3bf358e533a497e75f44aceaf28da8248534326e5d7dac0d048",
        "a90df75c045e638a0c00902d35c9c72592d0e76ac0fa34fba6aad749c5aded21",
        "0e21dd654596cac9f579e21a549a533d1be7319470fcf8f920a35d64cf020d1f"
    ],
    "txDetails": {
        "9eeba85181725993afc6a89e2e98c07e12bbd9c732b851af448eb6055d8d8ba7": {
            "hex": "0200000001b2c673aede02a4054a8c23e456e581d684f47dadb54083317d6152949d55d94e010000006b483045022100f31a23984a44f485a570a102899e3a25cdf6d1234259e602dbe61f2c3e77e490022069a6a7b013452bd66ed3c11aba22a64559134cd1af3d283730a9b7fb33631cca412103cb05918b81d36c387c791d2accfaefead287a4a30427387fb1095fc0c363ef8efeffffff0200c2eb0b0000000017a914ac90ed8510c9a7445b104fd1602341dc2f890d15878906e1e1160000001976a9147f7ed17e71afc40beac9b8d0b0fb53731161339c88ac56ea1200",
            "txid": "9eeba85181725993afc6a89e2e98c07e12bbd9c732b851af448eb6055d8d8ba7",
            "blocktime":1528796166,
            "time":1528796166,
            "locktime": 1239638,
            "vin": [
                {
                    "txid": "4ed9559d9452617d318340b5ad7df484d681e556e4238c4a05a402deae73c6b2",
                    "vout": 1,
                    "sequence": 4294967294,
                    "scriptSig": {
                        "hex": "483045022100f31a23984a44f485a570a102899e3a25cdf6d1234259e602dbe61f2c3e77e490022069a6a7b013452bd66ed3c11aba22a64559134cd1af3d283730a9b7fb33631cca412103cb05918b81d36c387c791d2accfaefead287a4a30427387fb1095fc0c363ef8e"
                    }
                }
            ],
            "vout": [
                {
                    "value": 2.0,
                    "n": 0,
                    "scriptPubKey": {
                        "hex": "a914ac90ed8510c9a7445b104fd1602341dc2f890d1587"
                    }
                },
                {
                    "value": 982.78901385,
                    "n": 1,
                    "scriptPubKey": {
                        "hex": "76a9147f7ed17e71afc40beac9b8d0b0fb53731161339c88ac"
                    }
                }
            ]
        },
        "0e21dd654596cac9f579e21a549a533d1be7319470fcf8f920a35d64cf020d1f": {
            "hex": "0200000008349c1ef994e931d4da1f545d2e578f898ddf457392c5485dc75378de8f36bef4010000006a4730440220351f1566e3ef02e900942103c60cba5a768cd710d3d1afbc75406099ad2d9e4702206e0f639a9991c7afb2136fb2e437629103ad0989898d1c90078ded5f08f5cb3341210303ae341929bdb242226a9a8c15cdbed5b89fa286842714d8be7e3f16c63abe11feffffff4ae685c8efc7f090e75b80f1b705d7bf5fa6dbbcf88c5f5cf2dc0678a9646fb4000000006b483045022100b8dae1825b0d0ccbe212e8da6767ea049bad9acfc737e5c5ef3dc5eeef6d313c02207e4c669956f871a4a5f71903bf38a8c587b81940943682364b11fb1cd9c078d7412103c9bd0064d2759628c1f6e5ad9d6345a5bce64dc4f4bb0675162f77acd557e4e2feffffff1ac21ded05387165cb7d0d95e2036a82f79a314575f065407e0c32a6b24b2f1d010000006b483045022100ef4a9469a5b3dbc0f03e8d8c5f254ad86f2c1e92e75a5ee737c3b3186b5edd95022076abcdfa976c3c78d2b196fb79699057248fad6d3d5e782524b85d84704394cc412103882df93f092501520bb36206703dadb65b25a3fbd0323c690dc8e72f5ee4a770feffffffea6905abb313a2aa3f6c8a056294abe06774dbf75688b03b96b8a2132aaf0cbf010000006b483045022100e4ab9dd0a75bc76c6c2cf549fb37c5577bad7f58953a7103abe4a77a95b873c10220545aa0c2b2869d444fb99d237549d6ac270c711d60788a6463ef4fee63ebd8fc4121031adea1da6e87b0771ea8c2a4723127d8cc9328b0594d159570ebe97b1e021c9efeffffff8c9a7a668dad3766f953d9779861f9c007b0a06f6ea2afbf8ab30137f34300fa000000006a47304402207253f724d891f5e1e66ec0c8084ade910a52257a1257933c23bd1b4da862e33a0220363df96e31dffa0a599b56c5049519a4d8ed34e96dc1fefecfd2bc31fc6d79d9412103186a4fc8445b3b437587c71f00fc9da7a267c0a38915fcf567528e310a73c0bdfeffffff82445d5b10b84b5256ef028615465e2d139c45584884c06e68bc38930d826e72010000006a47304402204846adc41599336307a087d4fa779a059ffe12c69456c82fa4b03942c901284002203e5f0c5e72b9ded7f48b4d22cbdb39390bea33003d46d8b4652c8ede1f13b3e54121031adea1da6e87b0771ea8c2a4723127d8cc9328b0594d159570ebe97b1e021c9efeffffffb8816c2c3b95aa8126f6d2d04798632b3167e6e2144d5f4e84cfb29e9d6f442d010000006a473044022078b1aff9a4ed3452f782db38341d846edd295f9a907c7373519408fb33eeb3240220578da5e91ec0c82604982b09cbd1f44e28260fcd640bcc55f086ce296ef32ef7412103c9bd0064d2759628c1f6e5ad9d6345a5bce64dc4f4bb0675162f77acd557e4e2feffffff70628ac9b2814f99fe4cd5f67a76047af533774ae90331fa8cb68e4dcbff1cb0010000006b483045022100cd88592589ab3bbd6e23920770a067a37ffbff3a31238167731377f11903676202202cb1c019365870dad3113abb3b0bc68ab9e65d9d60592f3315ffa444dfd88be741210393bd44ad6ed9295bf408e01bcdbdf6e4e8fd4a573ad20f37e54ff6e9b1596028feffffff027f766c02000000001976a9149f96c6e6c3aabf438eef5c589c47fa4b4f96592a88ac1c3d0f00000000001976a914e2ffd7cf2fe9468512878196d1b48fee9e9d003288ac56ea1200",
            "txid": "0e21dd654596cac9f579e21a549a533d1be7319470fcf8f920a35d64cf020d1f",
            "blocktime":1528796166,
            "time":1528796166,
            "locktime": 1239638,
            "vin": [
                {
                    "txid": "f4be368fde7853c75d48c5927345df8d898f572e5d541fdad431e994f91e9c34",
                    "vout": 1,
                    "sequence": 4294967294,
                    "scriptSig": {
                        "hex": "4730440220351f1566e3ef02e900942103c60cba5a768cd710d3d1afbc75406099ad2d9e4702206e0f639a9991c7afb2136fb2e437629103ad0989898d1c90078ded5f08f5cb3341210303ae341929bdb242226a9a8c15cdbed5b89fa286842714d8be7e3f16c63abe11"
                    }
                },
                {
                    "txid": "b46f64a97806dcf25c5f8cf8bcdba65fbfd705b7f1805be790f0c7efc885e64a",
                    "vout": 0,
                    "sequence": 4294967294,
                    "scriptSig": {
                        "hex": "483045022100b8dae1825b0d0ccbe212e8da6767ea049bad9acfc737e5c5ef3dc5eeef6d313c02207e4c669956f871a4a5f71903bf38a8c587b81940943682364b11fb1cd9c078d7412103c9bd0064d2759628c1f6e5ad9d6345a5bce64dc4f4bb0675162f77acd557e4e2"
                    }
                },
                {
                    "txid": "1d2f4bb2a6320c7e4065f07545319af7826a03e2950d7dcb65713805ed1dc21a",
                    "vout": 1,
                    "sequence": 4294967294,
                    "scriptSig": {
                        "hex": "483045022100ef4a9469a5b3dbc0f03e8d8c5f254ad86f2c1e92e75a5ee737c3b3186b5edd95022076abcdfa976c3c78d2b196fb79699057248fad6d3d5e782524b85d84704394cc412103882df93f092501520bb36206703dadb65b25a3fbd0323c690dc8e72f5ee4a770"
                    }
                },
                {
                    "txid": "bf0caf2a13a2b8963bb08856f7db7467e0ab9462058a6c3faaa213b3ab0569ea",
                    "vout": 1,
                    "sequence": 4294967294,
                    "scriptSig": {
                        "hex": "483045022100e4ab9dd0a75bc76c6c2cf549fb37c5577bad7f58953a7103abe4a77a95b873c10220545aa0c2b2869d444fb99d237549d6ac270c711d60788a6463ef4fee63ebd8fc4121031adea1da6e87b0771ea8c2a4723127d8cc9328b0594d159570ebe97b1e021c9e"
                    }
                },
                {
                    "txid": "fa0043f33701b38abfafa26e6fa0b007c0f9619877d953f96637ad8d667a9a8c",
                    "vout": 0,
                    "sequence": 4294967294,
                    "scriptSig": {
                        "hex": "47304402207253f724d891f5e1e66ec0c8084ade910a52257a1257933c23bd1b4da862e33a0220363df96e31dffa0a599b56c5049519a4d8ed34e96dc1fefecfd2bc31fc6d79d9412103186a4fc8445b3b437587c71f00fc9da7a267c0a38915fcf567528e310a73c0bd"
                    }
                },
                {
                    "txid": "726e820d9338bc686ec0844858459c132d5e46158602ef56524bb8105b5d4482",
                    "vout": 1,
                    "sequence": 4294967294,
                    "scriptSig": {
                        "hex": "47304402204846adc41599336307a087d4fa779a059ffe12c69456c82fa4b03942c901284002203e5f0c5e72b9ded7f48b4d22cbdb39390bea33003d46d8b4652c8ede1f13b3e54121031adea1da6e87b0771ea8c2a4723127d8cc9328b0594d159570ebe97b1e021c9e"
                    }
                },
                {
                    "txid": "2d446f9d9eb2cf844e5f4d14e2e667312b639847d0d2f62681aa953b2c6c81b8",
                    "vout": 1,
                    "sequence": 4294967294,
                    "scriptSig": {
                        "hex": "473044022078b1aff9a4ed3452f782db38341d846edd295f9a907c7373519408fb33eeb3240220578da5e91ec0c82604982b09cbd1f44e28260fcd640bcc55f086ce296ef32ef7412103c9bd0064d2759628c1f6e5ad9d6345a5bce64dc4f4bb0675162f77acd557e4e2"
                    }
                },
                {
                    "txid": "b01cffcb4d8eb68cfa3103e94a7733f57a04767af6d54cfe994f81b2c98a6270",
                    "vout": 1,
                    "sequence": 4294967294,
                    "scriptSig": {
                        "hex": "483045022100cd88592589ab3bbd6e23920770a067a37ffbff3a31238167731377f11903676202202cb1c019365870dad3113abb3b0bc68ab9e65d9d60592f3315ffa444dfd88be741210393bd44ad6ed9295bf408e01bcdbdf6e4e8fd4a573ad20f37e54ff6e9b1596028"
                    }
                }
            ],
            "vout": [
                {
                    "value": 0.40662655,
                    "n": 0,
                    "scriptPubKey": {
                        "hex": "76a9149f96c6e6c3aabf438eef5c589c47fa4b4f96592a88ac"
                    }
                },
                {
                    "value": 0.00998684,
                    "n": 1,
                    "scriptPubKey": {
                        "hex": "76a914e2ffd7cf2fe9468512878196d1b48fee9e9d003288ac"
                    }
                }
            ]
        }
    }
}
