{
    "blockHeight": 1325168,
    "blockHash": "000000000000004ed0834f3de922e66d024ec4da9fcc2da17be61369cb6dc041",
    "blockTxs": [
        "e1179f205aabbf48dc2ce4ebd9ed255571b0578e4de551f6574a50cb81120007",
        "00a5aa2891d41af9eb1dc30c940f142a609ecab8f370eb0874ba7d32252d1b1b",
        "1c519d80804dd17258cfc801bf2c875607956fc9f065a664f43e88d53f80af6f",
        "b10c1e2f7c8a6b10fddf94260aff0f8a5f56e33c8d0de48c49a72eb8418c3f6e",
        "ba85ca543b290deb84cde9c4ca53614dbe557a3dede5d0adb141f803f8e82f34",
        "60dfc2c9cc184ae68ca9e540ab4393d9d2179d060e2ac290f29560c6a1360f51",
        "3a40bca678653ae8f7f6d2771b571d5ace1a258056b99e3fd361a10f1016bc53",
        "4d4e495f3329801d92c7e3dc9874a372576bf3548decf884ede388143980ecab",
        "74ba4bee8d559e4d8b4859c086b0ea5f2c36bcabc95d8578e775f065f70943b8",
        "32bcc281f081e172dcb40ad137564724bd9486095813b78990d1d986173ac3c6",
        "b6e77c59f4a988731d9b8520e0f4971223e622946eb12e28cc2bab72f1e9c2f8",
        "0bc8f39da5d5300a2728b45edb18c8219e94a8b27a2e8074f6c5c10a00d99788",
        "8329b31d2a490d57980afcf5c7df4574ce57f952aef6f5aecb3b7786f5c9f255",
        "e559c2fd0f4e8aebe28fcb6dbb099fc6ee92d726d74fda28522f52bc1490a470",
        "3005378ee85fc905a1812bdfae4b2e0e9bb09f5867a53fd73237bb319a1774aa",
        "ebea245b9e4d96fab65c938547a9b3ffd03659b92b8ae4fcdfe4ac9bc325c0a2",
        "a2d5fe23b50253dda9941dd6c97c04853d58f048acf347acf9ccf549ee215b51",
        "017c2ccec866850521db877c1c7f6d095b7df668f891cfaf70a5e14ce39d010c",
        "d101d3467a831cc4dfc87bdd19d0ff5d01b8c872e47b2096eeeac3b44c2a258a",
        "3884180bab62d0f0498a8ad012b0005aceec778a18a617e5392d99cee5f21869",
        "a00200e57bed4fbd193c4cad49549d311282fee9a82956083353a2874f9bfd9f",
        "d32ce7a9413111fb2e3578472d520eb1437db701f20256e3afd37b7c0a6d67e6",
        "fed1df6d23a40e1a1f26820bbe35febb668aa2240902f1fd17b31a84dde6eb39",
        "5bef621ad6d0970939ae36270a3228d3c315f8008fb04eebffab5f7a3589d114",
        "411e7f3f4cae4125c8933403809771ebfcaa088f6ef773e5a412ead8639fb515",
        "d53858bbbbde4518ea92abda93ac5d01e5122d420a468e6d076244edd99bcea1",
        "b5fc4d963805b439d11f06b5d5d89ce3aac225e7145d1673d20d3d37a12c61dd",
        "c8d7332377d4bf43c232bc7afc3d7e3aacf13523d1c8488f68f530e58e6cfd88",
        "3c21a6b7e3810ca10efac45446cd2b7ef0c9848ac589be7375b61ea5aabbbea4",
        "5a25c2b70e2194e05a6208c99343ebe0fad970dd19f3f9cca88aaf77ab9e4658",
        "031e3c08ebdcafccf6dc5d7ff1161cd5314424d0a943d2c22a5a2109286e332d",
        "4992d16008aa3050b3e2e4aab67e488eb338850ff1c348367ae3d089d8d67a52",
        "beb3e71b8da7da7917228f5ce8a88afdc45836c421b053dde24d367865326bd7"
    ],
    "txDetails": {
        "e559c2fd0f4e8aebe28fcb6dbb099fc6ee92d726d74fda28522f52bc1490a470": {
            "hex": "01000000000102a4b8c14f271cfa77d5ecaed9c3026472a55ea6bca119e2ff7b04975326f5974001000000171600147edbcdda98080eeb6e8a63c63da135498295c3cdffffffffabcdf96b8ba187c24d70f98a2edfbf100821506212637f28b30a08efa970a4eb0100000017160014df7d60680e984aae4052e24bce8f17e4bfdcc532ffffffff0292fe1e00000000001976a914abba3808b854c70b63ff038fcddfbafcb707713988ac13e796110100000017a914c9e67d2b78a38857c786ea9a2fc3e64cb6e775648702483045022100a6910d3a3b64545a44e097a3739b1206095602fa796afc51f81b249d1293ad0a02206cdae51853b59ca52003f4e54ea8ae418b6b4d036cbe1fdd78677efe8eddb318012102b45e239d96f8504ae45a32af7c80f6164f7b9658166e318521ee822192fee3ef0247304402202684a6f59ee255f3f5e9a9209a735bf2aaa818d47add7c3f7a5590623bd2211c0220452bf2fb8d0dc0380862988f0f098c21e861004e02da7bd1fc6bea4e7f33d2dc012103f308867fda821467f77d372791644225174ae16daba86e55754c150a8d5aa40d00000000",
            "txid": "e559c2fd0f4e8aebe28fcb6dbb099fc6ee92d726d74fda28522f52bc1490a470",
            "blocktime": 1528788394,
            "time": 1528788394,
            "locktime": 0,
            "vin": [
                {
                    "txid": "4097f5265397047bffe219a1bca65ea5726402c3d9aeecd577fa1c274fc1b8a4",
                    "vout": 1,
                    "sequence": 4294967295,
                    "scriptSig": {
                        "hex": "1600147edbcdda98080eeb6e8a63c63da135498295c3cd"
                    }
                },
                {
                    "txid": "eba470a9ef080ab3287f63126250210810bfdf2e8af9704dc287a18b6bf9cdab",
                    "vout": 1,
                    "sequence": 4294967295,
                    "scriptSig": {
                        "hex": "160014df7d60680e984aae4052e24bce8f17e4bfdcc532"
                    }
                }
            ],
            "vout": [
                {
                    "value": 0.02031250,
                    "n": 0,
                    "scriptPubKey": {
                        "hex": "76a914abba3808b854c70b63ff038fcddfbafcb707713988ac"
                    }
                },
                {
                    "value": 45.90069523,
                    "n": 1,
                    "scriptPubKey": {
                        "hex": "a914c9e67d2b78a38857c786ea9a2fc3e64cb6e7756487"
                    }
                }
            ]
        },
        "5bef621ad6d0970939ae36270a3228d3c315f8008fb04eebffab5f7a3589d114": {
            "hex": "01000000025b0551bd0fffcf55881e285e15b364ab9a831d2494d2eb7a163a4bbd6f551151000000006b483045022100dff500e8c060a9c8810483d4ada8f91c0b844e92778cc762300040870109c0be02207029fa781ec37ddeb0ffbfa7160e625afdd126f30ec11fb9bc25f4d2164933bb0121023c6017ab9f471a69157180c5e30b9aef2ff73ea2a1a774c53a975e2557536314ffffffffd49a58913818610b0aa065d4f32995863d216c44040a49d454f6b7eeb65c9adc010000006b483045022100dce24b819b70f920d0bb60fa1241fa14f2500412a60aceeaae2610e1593b5e3c022041fdc5a02dc26af043bea27713f1245340b98bd47aa283e23b96ecc4aae157a4012102d18a88bcf5f65d937de7d9bc24d2f492a55216087262bf4683d0055dd0521a56feffffff02da869800000000001976a914b4f1349ec3e7c751c6720e2c0783e3449e21e36888ac80fe210a000000001976a914b4f1349ec3e7c751c6720e2c0783e3449e21e36888ac00000000",
            "txid": "5bef621ad6d0970939ae36270a3228d3c315f8008fb04eebffab5f7a3589d114",
            "blocktime": 1528788394,
            "time": 1528788394,
            "locktime": 0,
            "vin": [
                {
                    "txid": "5111556fbd4b3a167aebd294241d839aab64b3155e281e8855cfff0fbd51055b",
                    "vout": 0,
                    "sequence": 4294967295,
                    "scriptSig": {
                        "hex": "483045022100dff500e8c060a9c8810483d4ada8f91c0b844e92778cc762300040870109c0be02207029fa781ec37ddeb0ffbfa7160e625afdd126f30ec11fb9bc25f4d2164933bb0121023c6017ab9f471a69157180c5e30b9aef2ff73ea2a1a774c53a975e2557536314"
                    }
                },
                {
                    "txid": "dc9a5cb6eeb7f654d4490a04446c213d869529f3d465a00a0b61183891589ad4",
                    "vout": 1,
                    "sequence": 4294967294,
                    "scriptSig": {
                        "hex": "483045022100dce24b819b70f920d0bb60fa1241fa14f2500412a60aceeaae2610e1593b5e3c022041fdc5a02dc26af043bea27713f1245340b98bd47aa283e23b96ecc4aae157a4012102d18a88bcf5f65d937de7d9bc24d2f492a55216087262bf4683d0055dd0521a56"
                    }
                }
            ],
            "vout": [
                {
                    "value": 0.09995994,
                    "n": 0,
                    "scriptPubKey": {
                        "hex": "76a914b4f1349ec3e7c751c6720e2c0783e3449e21e36888ac"
                    }
                },
                {
                    "value": 1.7,
                    "n": 1,
                    "scriptPubKey": {
                        "hex": "76a914b4f1349ec3e7c751c6720e2c0783e3449e21e36888ac"
                    }
                }
            ]
        }
    }
}
